S0120000736F632D656D7074795F332E733337AF
S214000000B8100020110300007701000077010000FF
S2140000107701000077010000770100000000000073
S2140000200000000000000000000000007701000053
S2140000307701000000000000770100007701000053
S214000040DFF800F069000020DFF800F0270000204D
S214000050F8B5044625464FF0FF3080260146FF20BF
S21400006000F08AF8761EF9D180344FF4F06600F07E
S21400007022F8761EFBD14435A9884E1C06E04FF4C4
S214000080006700F018F87F1EFBD1761CA988090AC5
S214000090F6B2B142F3DA4FF420540146FF2000F0E6
S2140000A06BF8641EF9D12968C043814201D1012052
S2140000B0F2BD0020F2BD014614F8010B00F05CB85A
S2140000C0F8B504460D46164610E02846FFF7B8FF7A
S2140000D03746B7F5006F88BF4FF4006722463946AB
S2140000E02846FFF7B1FF3D443C44F61B012EECDAF0
S2140000F0F1BD000038B51D48016841F020010160DF
S2140001004FF4904440F6A72204F110000188914273
S2140001101AD1018F080AC50201F0FF00C002B0F52F
S214000120804F11D12046FFF793FF48B14FF400608F
S2140001302844A0F580424FF480412046FFF7C0FFD8
S2140001402046FFF77DFF05E04FF400600444B4F559
S214000150802FD9D34FF48040054A41691160016869
S2140001608D464068BDE8324000470000B0400E4073
S21400017008ED00E0BEE7FEE70A0A484000F0FF0090
S21400018008214308C00746BF034858401846491E82
S214000190F7D15040704700002083B8ED264A5060E3
S2140001A001201060D160082010601069C007FCD4E0
S2140001B07047F8B5214C0546206840F001000E4611
S2140001C01746206005E057F8041BFFF7E7FF2D1DD4
S2140001D0361F042E2846F6D23EB139684FF0FF325D
S2140001E0F3009A401143FFF7D9FF2068400840000B
S2140001F02060F1BD10B5114A136843F00103136087
S2140002004FF0FF31034602E053F8044B214000F55F
S2140002100064A342F8D311F1010F07D090600120CB
S2140002205060022050605069C007FCD41068400837
S2140002304000106010BD00000C000E4008000E408C
S21400024010B450F8041B79B10268436802440830C1
S214000250DC0744BFA9F10104E31852F8044B43F845
S214000260044B091FF9D1ECE710BC704710B50749DD
S21400027079441831064C7C44163404E00A68081D9C
S214000280114488470146A142F8D110BD2C00000059
S2140002903C0000004EF68851CEF20001086840F49B
S2140002A070000860BFF34F8FBFF36F8F4FF0007082
S2140002B0E1EE100A7047000089FFFFFFA40000006F
S2140002C0DCFEFFFF100000200000000000F00BF82E
S2140002D0002801D0FFF7CAFF0020AFF30080FFF729
S2140002E049FF00F002F80120704700F001B8000056
S2140002F00746384600F002F8FBE7000080B5AFF38B
S2140003000080024A11001820ABBEFBE72600020060
S214000310AFF30080FFF7BEFFFFF7D8FF0000000036
S21400032000000000000000000000000000000000C8
S21400033000000000000000000000000000000000B8
S21400034000000000000000000000000000000000A8
S2140003500000000000000000000000000000000098
S214004000004800203F0D02005B720000C3790000EC
S214004010A70A000100410000000000800000000028
S214004020C335E1AC00000000000000000000000006
S214004030000000000000000000000000000000007B
S21400404000000000206D73B10000000000000000BA
S21400405000000000FFFFFFFF00000000000000005F
S214004060000000000000000000000000000000004B
S214004070000000000000000000000000000000003B
S214004080000000000000000000000000000000002B
S214004090000000000000000000000000000000001B
S2140040A0000000000000000000000000000000000B
S2140040B000000000000000000000000000000000FB
S2140040C000000000000000000000000000000000EB
S2140040D000000000000000000000000000000000DB
S2140040E000000000000000000000000000000000CB
S2140040F000000000000000000000000000000000BB
S214004100004800203F0D02005B720000C3790000EB
S214004110877A000063890000A7890000000000007D
S2140041200000000000000000000000006F9D00007E
S214004130A79F000000000000EFA10000D7CD000000
S214004140599E0100AB63010007DA0000B36301006B
S214004150F5630100D3630100D1630100ED63010044
S214004160BBE40000DBF0000047F2000097190100F6
S2140041700F230100132301005F2F0100F32F01001E
S21400418037350100D33E01009B510100BB510100B1
S214004190CF6101005F740100C383010043DF0100AB
S2140041A057E10100EFF60100EBF80100DD630100C6
S2140041B0E56301000BF901009B080200590D02009F
S2140041C0A7F801005B0D02000000000000000000E0
S2140041D000000000000000000000000000000000DA
S2140041E000000000000000000000000000000000CA
S2140041F000000000000000000000000000000000BA
S21400420002986003029866030298E60502980A027E
S21400421002987E0302988C0302987E03029800049C
S2140042200298D0040298F60402982A0502983805E7
S21400423002989E050298D0050763076301DB0A71A2
S21400424090B9637902982203076300B902EC00CDA7
S214004250114502EC00CC411103B804D91E72073197
S214004260911210DA087102DD1272147002B807603B
S21400427006987C0E3038087208B80298700602EC71
S21400428000CA05B801DB127120DA0E7110DAEC7282
S21400429001DA0A71ADB80A7023DAE07202EC00C8DF
S2140042A007689111173111402111C03111400119D1
S2140042B090B820DA04716178411108D904716278E7
S2140042C020D904726378273123DD0872C0DA0471BE
S2140042D0607803B8411107310872A11508359C7142
S2140042E002DD2872A11108D9927102D91E72CCDAA9
S2140042F08A7206B802DB0C71026D5111FFD9527238
S2140043000765054D4C720298220321114049C0D919
S2140043103E71A0314115403501655141036108DA0F
S214004320207204DA2A721049A1150235067108DBDC
S214004330107201340C71076B80DB147190B86778CB
S21400434000C00D0F0C0D06987E0E01D8087207B837
S21400435002987006CC32204A00C00517085006980E
S2140043607E0E113001420DDA6271208800C1C61837
S214004370000020BB04DA0E7208DA087242B903693C
S214004380F823E8233114056B01DA06710649024B5F
S214004390076B076B00C0580F00213810BC2002DAEC
S2140043A0107100B9FF21A11380DB06717CB9076983
S2140043B018100298A60200C3040F0021341080D8FB
S2140043C04671EFBA0698C20C00920362DDDA987264
S2140043D0A11101D9327100C23810084024120423FA
S2140043E0281302EC00C804D9167104BA18300871F4
S2140043F00060FD20012A02EC00C8FF22FA7604DCE9
S214004400067218B87378029822030698D00700B888
S214004410011A91101730011900C202020000069816
S214004420900604D9067101B802A800C0040F002146
S214004430041380DB06710298380001DB607100C24D
S214004440600F002124111114FF3402EC00C8FF2471
S214004450FA7607611138076106988C0E0761111409
S2140044600111411006988C0E01D8087203B8029804
S2140044707006042202DB16712410112811280698F3
S214004480A00E00C418000840FF200814FA222410CA
S2140044900760076006988C0E01D8087120BC10DBF8
S2140044A006720298220300BB00C1580F00211415A3
S2140044B0511207620762C021112CFF320E7140882C
S2140044C0511406982C034143009441115112076A77
S2140044D0FF320E715114076406982C03076C414393
S2140044E000C15C0F00211410013BB82114113110DB
S2140044F0FF300C7104610112006001DAF8713110AE
S2140045000760FF300C7100610112006001DAF8717B
S21400451001D90C7288B8787804B8029870060298A8
S214004520B6010698C00C00B8477800F83088508866
S214004530FF34087102ECFF24F87002EC00CD141072
S21400454001BB5150FFD8047131440760006B10DB8B
S214004550F2710421FF22E4720F4C0095009300A034
S2140045600698D00700F80698D00700C5980F0021D7
S21400457054150698380900C59C0F002100F80698C7
S214004580D0070698860B0698C40A00F80698D00747
S21400459010B902BA0698920600C59C0F002100F8D2
S2140045A09112033288B903DE44727179A11020D8C3
S2140045B00A710698380900B9587000C3040F002124
S2140045C0341380DB1C7100C3A8100840A1141034FB
S2140045D0024C481300BC481391140764FF34481378
S2140045E08CBB627B40D80871517900BA7079076A33
S2140045F000C0A000084006985E0E042002985E0EDA
S2140046000698D00700BD06983E0810B903DC047172
S21400461000B902BA0698920604D9067101D840710C
S214004620811008D8107106983E0803DC087218B886
S214004630717826700698B004FFD80C7288B8477850
S21400464000B844783E70911010D80E7100BB00C4BC
S2140046506C5008400698CC0620B802A800F800C0A7
S214004660040F0021041320DB1A71911010D8087172
S2140046708CB844789C7008DB9872A11308DB9272A1
S21400468003BD0698A4040698860B00C5A00F00215B
S21400469006983E0803DC0472042554150698C009E3
S2140046A00298E80C9110015503355150011900A0ED
S2140046B001B8811180D9187100C10C50084014103F
S2140046C004300C7200C1A45008401410013000A041
S2140046D00698D0070698860B00BD0698A40488B8EE
S2140046E0477800B8447800C5A80F002154150698EE
S2140046F0C0090298E80C0698D0070698B004FFD8C0
S214004700067208B8607800C200000202069890069A
S21400471000F806986A0E88B850785178911104D936
S214004720047248788CB8427800A00698D00706989D
S21400473012050698C40A00F80698D00706983E08A0
S21400474007DC0A7200C59C0F002100F80698C40A10
S21400475003B9911004D8047100B900C20000020029
S2140047600698920601D8207200C0040F002104119A
S21400477020D91471076101D9E0728110076001D851
S214004780D8728CB864780698120500C5AC0F002164
S21400479054150698380900C5B00F002100F8069891
S2140047A0D007811108D90C7118B8717820B802A802
S2140047B000F80698120500BD0698A40488B8477845
S2140047C000B8447800C5B40F002154150298E80CD0
S2140047D00698D00706980C0E0698860B0698C40A0C
S2140047E00698120500F8B110076001D80A7108B8DB
S2140047F07F78020C7E780698D00701F8911010D8C2
S214004800367100C00C0F0021041000C590500840FF
S2140048105411A0255412E82554151159112D067669
S2140048200122212D012DDC7518B875788CB84478D6
S21400483001B802A800F8B110076810D8307100C09F
S2140048404810084000C300000840311460242824A3
S21400485044113411076101D9FA7144122810076215
S21400486028100762281007622810E8700298AA0B22
S2140048700698FE0800C024000840207800F888BA91
S214004880727A811204DAFC7200A088BA527A00A00A
S21400489018700698D60810D906710CDB087200B896
S2140048A0103C067201B8076A00BB00C1100F002159
S2140048B000C4B4500840141120391272417B007CA9
S2140048C0B82400C200000101281400A006987E0645
S2140048D000C2040F0021241240DA0672617B007CBD
S2140048E002988A06B11001D8047200A000C0287091
S2140048F008400411108800C1001800401810442019
S21400490004111088A820041110884CBA757A181063
S2140049103DB11088F4B8427844207278D820737875
S214004920E82073784FB200C4FFFF8080413A4FAA58
S21400493001BC01644113076300C06C70084003B9F2
S21400494018100110011001B9181001100110011003
S214004950011098200411076101B80160003A047143
S214004960044904D9047241520760003A04710849A8
S21400497008D9047231520460003B0E720063006472
S214004980314241424FAAB2704FAA44B801685378E8
S214004990F8B853784020527800913DA9009100C0A5
S2140049A01470084018100091582018100091BC2070
S2140049B0181000A04024066400C0FFFF0000013C61
S2140049C01DB002200158402806751EAC01EC00A060
S2140049D0009000C6BC0F0021008801B0076800C325
S2140049E0680F00213414036C41500F3041500813F7
S2140049F00F3003640F340111C04806984C0806981F
S214004A008A0603DD0C7214BA102328130298EA08EB
S214004A1009DD06720298EA08411303DF067202985F
S214004A20160C00DD06720698B40C53B080BB006B03
S214004A3030380A7109DD06710298D80C00A000C053
S214004A40680F0021041003600F3000A01088B11119
S214004A50076980D90A7100C18000084008110091DA
S214004A6000A0B111076940D906720298D20800C1A9
S214004A70700F0021141200BC01DC20710698D608C5
S214004A804034087101B806980609F0DA0C720CDB9F
S214004A90087102B80698060948BC00C380000840A2
S214004AA0FFB801200421141551450871014558131B
S214004AB0082400C138300840141100C500600840C2
S214004AC054153035016D5141014118130142281328
S214004AD0481300B82A7000C46000084000C06C0F7D
S214004AE0002144140410014400A000C06C0F0021F3
S214004AF000B906987E06181006988A0600A000C11F
S214004B00700F0021141203682150F0300152281152
S214004B1000A000C020300E40041104101050F472A3
S214004B2000A000C028400E400413315107610C312C
S214004B3007691153381000A00698D80A00C0F80F6D
S214004B40002104112EA9217A227A00C0940F002198
S214004B501DB118100698EA090111FF300769FF31E8
S214004B6051B30DBC415C413B115900290475084BFB
S214004B7051ABA4BB00C040300E40041103310149C4
S214004B802872B112076207623020041121510F31DA
S214004B9018726E7B6F7BF02004114CBA7C7A18106A
S214004BA014200411607A1810B11002D81071707BAE
S214004BB030B8627860780DB001D8FC7102980A0BA4
S214004BC00698D80A00C0FC0F002104112EA9F82070
S214004BD0041106982209217A237A0698EA0900C069
S214004BE0840F00211DB1181000A0511400C0B80F8A
S214004BF000210410012C0A7500B826A80698B407F0
S214004C0000C0800F00211DB1181028B000C1F0FFB1
S214004C10FFFF11380EB9114028A880B800C14430F3
S214004C20084008116FB8076826A8217A050C2110DD
S214004C302020267800C063EF000026A8050C20EC94
S214004C40247A20EC217A184826A828B00AB90151FF
S214004C500F31115028A8050C207A20EC0F0C98B8BC
S214004C6046784178B11020D8467100C04C300840D4
S214004C707DB918100D0E0D0E00C0703008400411DE
S214004C8030311A7100C07830084025782478960CA8
S214004C9000C07030084004113031EA7200C04C3059
S214004CA0084000C106000000181000B91810069849
S214004CB0120900C27C0F002124100151FF3111504F
S214004CC0081200A00698D80A00B826A800C0880FC8
S214004CD000211DB1181000A030B840780DB101D9E0
S214004CE0FC72427800C074300E4004114CBA407A10
S214004CF01810EC2004115C7A1810A4BB707B4E7B55
S214004D004F7B00C20430084000A008B86E780EB88A
S214004D104EB110D910723EA8140C00C00F0000004F
S214004D203EA8147044A8140C00C00100000000C186
S214004D30B0300E40081100C077801F003DB201421F
S214004D403DAA00C1E80F0021141054A8140C00C09E
S214004D5077E01F0001423DAA51B801687D7808B887
S214004D607E7806987E060698E40606988A0651140B
S214004D700698B407F4B845780A0C00C0900F0021D6
S214004D801DB1181000A051B801685D7800B844A89D
S214004D903EA800C1B0300E40081110B807683DB1FB
S214004DA001393DA908B86F7800A001F8541000DC5E
S214004DB0127101140698B40718B8707800B84178D4
S214004DC000F80298C60B00C57C0F0021541551143C
S214004DD0FF3507644113FF3407633112FF33076260
S214004DE0FF323110212B0158012A0698120901586A
S214004DF05128047501584128187551B00CD8067111
S214004E00215806703110115901290675FF0FB87028
S214004E1018B8727800F800C3780F0021341300C465
S214004E20E0100840441201B80768013A2C710824C3
S214004E302814084B811040D80A7200C45810084045
S214004E40237C00C4700F00214414F0345E7200C44A
S214004E5064000840257C547004DBDA720DDDD471E2
S214004E60A0244412FF32C222CA76811040D814729F
S214004E7000C1401008401410F821141101581128E0
S214004E802A7100C178100840081107600F3091128F
S214004E903032214000C200600840241210DA04714B
S214004EA040480811076207622811308800B8069843
S214004EB06208009300C0780F002100B9181000A007
S214004EC0EBBA00C0780F00210411113A10D9067110
S214004ED018B97479281000A006980C0E115106987F
S214004EE0220901B80298620864BC066C415C512C29
S214004EF00698B40750880698A0030095B110076876
S214004F0020D80C7108B8657818B8717800F808B819
S214004F106C7820B85A7859785B7800C1EC0F00217D
S214004F20141054A84EB010D806710298800D4DB1DA
S214004F3000C09FFFFFFF113840B102D914726048CD
S214004F4000C1040000401112104A04BB41540C700A
S214004F50204802B903BA02BB02BC4DA840A9F8B863
S214004F607078190C3EB141413EA9F4B97379737853
S214004F70717800C1E40F002100C400410840287089
S214004F8000C20000010044AA230C00C200000B006F
S214004F9044AA00C1E40F002100C22000004000C463
S214004FA01841084004BB00C0C83F00001411113867
S214004FB021400814050C1140081404240F0C2FABD4
S214004FC0050CB11008D810711CB879787B7820B819
S214004FD079787B78607CF424411351140698B407E2
S214004FE0727B53B80168050C687840EC00C08C0FE3
S214004FF000211DB1181000F800C0686008400411B8
S2140050000761076180D9047240EC00A0015053A8E4
S2140050100698F80D4EB010D80A7200C4F840084042
S214005020087000C41041084041130C23527C407B9A
S21400503001502FA8050CFC23341200C1FF3FC0E02E
S214005040113A28130A0C00C00000010008140632AA
S2140050502813050C0150081408B86D7800A00878CD
S214005060097804112141181000A000B900C09C1056
S214005070084018101C200AB9181000A0115910D9A1
S21400508006710760076008D90471076004D90471C7
S214005090036002D90471016001D90471006000A0A8
S2140050A010880411023006710761076100C0FFFF17
S2140050B000001138009100A00028012803280018DD
S2140050C0002A012A0A18292A0118052A022900009E
S2140050D0F01921B4478FA4BFA14F63FDEED6141D6F
S2140050E0636032E0375EA488534E6DFB6435BFF7CD
S2140050F053A1811F582CD0A54540FC34F327429875
S2140051009F3EE22E0ECFFFBF1E45CA8C68234A4F35
S21400511016531EC44CBAAD9D324B6808CF7BC04CAC
S2140051200C0053696C69636F6E204C6162730000FB
S2140051300500021500292A0002000A1802000000D5
S2140051400500021200012A00030000000000000013
S2140051500500021000002A000200001801000000EE
S2140051601300020D0016531EC44CBAAD9D324B6898
S21400517008CF7BC04C0000000800000000000000C4
S214005180000000001300020B009F3EE22E0ECFFF31
S214005190BF1E45CA8C68234A4F0000000C02000060
S2140051A00000000013000C090053A1811F582CD0EA
S2140051B0A54540FC34F32742980000000801000093
S2140051C0000000001300080700636032E0375EA4AA
S2140051D088534E6DFB6435BFF70000001000F019D1
S2140051E021B4478FA4BFA14F63FDEED6141D000067
S2140051F020000400181500200500200300052A00E2
S2140052000200011800000108FFFF00000052000025
S21400521002000108FFFF0000F85100000900000826
S214005220FFFF0001F05100000A000708FFFF00031F
S2140052300200000000000108FFFF0000DC51000033
S21400524002000108FFFF0000C451000001800208B0
S214005250FFFF0007BC51000002000108FFFF00002E
S214005260A451000002800608FFFF00079C510000C2
S21400527002000108FFFF00008451000003800108BF
S214005280FFFF00007851000002000108FFFF000049
S2140052906051000004800108FFFF00005C51000020
S2140052A000000108FFFF000058510000020001083E
S2140052B0FFFF00005051000004000108FFFF00003F
S2140052C04851000002000108FFFF000040510000A6
S2140052D005000108FFFF00003C5100000000010827
S2140052E0FFFF00003851000002000108FFFF000029
S2140052F03051000007000108FFFF000020510000A9
S2140053000300070009000000002801280328FFFF0B
S2140053100018002A012A0000F01921B4478FA4BF04
S214005320A14F63FDEED6141DD1A0835000AAD387EB
S214005330174859A75DE904E6915276BB260000801F
S21400534000100000A50000009A9396D7BD6AD9B554
S2140053501646D281FEF046DC636032E0375EA488F3
S214005360534E6DFB6435BFF753A1811F582CD0A553
S2140053704540FC34F32742989F3EE22E0ECFFFBFF7
S2140053801E45CA8C68234A4F16531EC44CBAAD9DA0
S214005390324B6808CF7BC04C02000000050002229A
S2140053A000012A00030000000000000005000220A3
S2140053B000002A0002000018001501008C150020CD
S2140053C0001401008D1500200213020000020020C8
S2140053D00A1200000000000013000A1A0016531EEE
S2140053E0C44CBAAD9D324B6808CF7BC04C00000061
S2140053F0001101008E150020001001008F150020FE
S214005400020F0200020200200A0E00000000000048
S21400541013000A15009F3EE22E0ECFFFBF1E45CAA0
S2140054208C68234A4F000000000D010090150020F4
S214005430000C010091150020020B0200040200205F
S2140054400A0A00000000000013000A100053A181A1
S2140054501F582CD0A54540FC34F327429800000086
S2140054600009010092150020000801009315002095
S21400547002070200060200200A06000000000000E4
S21400548013000A0B00636032E0375EA488534E6D4B
S214005490FB6435BFF70000000005010094150020EE
S2140054A00004010095150020000301009615002059
S2140054B002020200080200200A01000000000000AC
S2140054C013000A0500915276BB26000080001000EB
S2140054D000A5000000000000020002000A020020F2
S2140054E01300020300D1A0835000AAD3871748599F
S2140054F0A75DE904E60000001000F01921B4478F0C
S214005500A4BFA14F63FDEED6141D000000000108E5
S214005510FFFF0000F854000002000108FFFF000033
S214005520E054000001800108FFFF0001D85400008D
S21400553002000108FFFF0000C054000002800308BC
S214005540FFFF0007B854000003800108FFFF0001BA
S214005550B054000003000000FFFF0001A854000044
S21400556003000000FFFF0001A0540000030000003D
S214005570FFFF00019854000002000108FFFF000032
S2140055808054000004800308FFFF000778540000E2
S21400559003800108FFFF00017054000003000000B4
S2140055A0FFFF00016854000003000000FFFF000139
S2140055B06054000002000108FFFF0000485400008D
S2140055C005800308FFFF0007405400000380010821
S2140055D0FFFF00013854000003000000FFFF000139
S2140055E03054000003000000FFFF000128540000B4
S2140055F002000108FFFF00001054000006800308A8
S214005600FFFF00070854000003800108FFFF0001A9
S2140056100054000003000000FFFF0001F8530000E4
S21400562003000000FFFF0001F05300000200010825
S214005630FFFF0000D853000007800308FFFF0007A5
S214005640D053000003800108FFFF0001C85300008C
S21400565003000000FFFF0001C0530000030000002D
S214005660FFFF0001B853000000000108FFFF000024
S214005670B453000002000108FFFF0000AC53000016
S21400568005000108FFFF0000A45300000200010807
S214005690FFFF00009C53000006000108FFFF00000B
S2140056A098530000030005000600070008000900E4
S2140056B00B000C000D000E0010001100120013006D
S2140056C015001600170018001A001B001C001D000D
S2140056D004520000150000000B000000B850000047
S2140056E005000000D050000003000000005300003A
S2140056F03C0D0200000000002C0E0200000000001E
S214005700FFFFFFFF0C55000022000000070000000E
S21400571008530000080000001853000016000000A0
S214005720A45600002D0E0200000000002E0E0200FF
S21400573000000000FFFFFFFF010000000000000067
S2140057400000000000000000000000000000000054
S214005750020000000000000000000000030000003F
S2140057600000000000000000000000000300000031
S2140057700100000000000000020000000100000020
S214005780020000000300000013B779FAC925DDB750
S214005790ADF3CFE0F1B614B8000100000000000041
S2140057A000000000080000000000040200000000E6
S2140057B000000000000000000000000000000000E4
S2140057C0000000000100020015005400A90053016B
S2140057D0A7024F059F0A000013001D0012001000CC
S2140057E0150000005B800000B7800000C38000004A
S2140057F0000103FF04FF020000000000000000009C
S2140058003C0094003C009600F4010000FA00000002
S21400581096000000640000004B000000320000000C
S2140058201E00000014000000000000000000000041
S2140058300000000000280000000000000200000039
S214005840000000000028000000000000100000001B
S2140058506C888391AAF5A53860370BDB5A6083BE47
S2140058603F49F6D4A3C55F3874C9B3E3D2103F509E
S2140058704AFF607BEB40B7995899B8A6CD3C1ABD55
S214005880E69D350E480103CCDBFDF4AC1191F4EF38
S214005890B9A5F9E9A7832C5E2CBE97F2D203B020F7
S2140058A08BD28915D08E1C742430ED8FC24563765A
S2140058B05C15525ABF9A32636DEB2A65499C80DCB0
S2140058C000000000000000000100000000000000D2
S2140058D001000000000000000000000001000000C1
S2140058E000000000010000000200000002000000AE
S2140058F0030000000000000002000000000000009E
S2140059000000000000000000000000000000000092
S214005910020000000200000001000000000000007D
S214005920020000000000000000000000010000006F
S214005930000000000100000000000000050000005C
S214005940010000000000000005000000020000004A
S214005950020000000300000000000000020000003B
S2140059600000000000000000000000000000000032
S214005970000000000200000005000000010000001A
S214005980000000000500000001000000000000000C
S21400599004000000010000000800000001000000F4
S2140059A010000000010000000001000001000000DF
S2140059B0000800001D000000000200001D0000009E
S2140059C0000400001D000000000001001D00000093
S2140059D00000000000000000C800FCFE1F811D0B38
S2140059E06ABDFBFFB0807F054A32FFFF7480160356
S2140059F0EA4B00005180B50127B200003F80490104
S214005A0084C500003280D100F0C3000028807400F6
S214005A1034B4000028004B00EAB500008C00FCFE01
S214005A20FFFF0000000000001F8158114C42FAFFE3
S214005A30A180CA050197FFFF5D806A024CA40000A2
S214005A4041805701A7CC00003480E000BECA0000A9
S214005A502A808C00CABC000029005200B5B900009C
S214005A60C800FCFE1F01C80B7D30FBFFAB001C0509
S214005A70035BFFFF7300FD02DC5500005300D501F9
S214005A80BEAF00003F001901E4C800003300AC00C0
S214005A9090C700002C006C00B1BC0000270043003B
S214005AA046AF00009600FCFEFFFF0000000000006E
S214005AB01F016D0FA182FAFF7E00C103791F00004F
S214005AC05500E401F4B1000041003701C7C90000E9
S214005AD03300C000CAC700002B006E00F7B90000F4
S214005AE0260038008AA8000083FFBFFFE2FFF1FF10
S214005AF0F9FFFEFF000000000700000002000000A3
S214005B000400000000000000040000000000000088
S214005B1005000000000000000000000049420100EF
S214005B20ED430100434301005F4301006D43010064
S214005B307B430100994301000000000000000000C4
S214005B4073430100254401002D44010000000000BD
S214005B50354401003B4401004144010000000000C0
S214005B6047440100000000000000000000000000A4
S214005B70894A01005744010000000000F14401007A
S214005B807D4501007F4501008545010091450100E6
S214005B9046004000290002000008000046480503B1
S214005BA059450000054500000000000006450000BD
S214005BB00000000000000F40190000000200000076
S214005BC0BC0C00200000084000000021B964010061
S214005BD0E3640100DB640100D36401000765010093
S214005BE0BD640100C5640100ED64010003040408FF
S214005BF00800000000000102020303030300000087
S214005C0000000000000000000000270080841E0046
S214005C10809C2B8F085C0000010000000000000044
S214005C200000000000000000000000E1FFFFFFFF92
S214005C30FFFFFFFFFFFFFFFF000000000000000067
S214005C400000000001000000FFFFFFFF4B60D227AE
S214005C503E3CCE3BF6B053CCB0061D65BC8698766F
S214005C6055BDEBB3E7933AAAD835C65A96C298D82C
S214005C704539A1F4A033EB2D817D0377F240A46370
S214005C80E5E6BCF847422CE1F2D1176BF551BF3779
S214005C906840B6CBCE5E316B5733CE2B169E0F7C4C
S214005CA04AEBE78E9B7F1AFEE242E34F512563FCE8
S214005CB0C2CAB9F3849E17A7ADFAE6BCFFFFFFFF82
S214005CC0FFFFFFFF00000000FFFFFFFFAE03000026
S214005CD0000000003333330000000000333333008D
S214005CE0000000003333330000000000333333007D
S214005CF00000000033333300F00F0101D05C0000D9
S214005D00F40F010100000000F80F010100C00300BD
S214005D10FC0F01010BC0030004000100018101001B
S214005D20080001000001000018000100000000004B
S214005D301C00010001000000280001000000000017
S214005D402C000100000000003000010000000000F0
S214005D50340001000000000040000100A007000021
S214005D604800010000000000540001000000000090
S214005D705800010000000000A000010001480000DB
S214005D80A4000100FF4C0000A8000100014900002B
S214005D90AC000100FF4D00000020010008070000D5
S214005DA010200100FFFFFF00182001000060DA004D
S214005DB0083001003FAC000030300100AA2A100075
S214005DC034300100010000004030010000000000F7
S214005DD0A04001007A27000FF440010020100000C8
S214005DE0344101008008000038410100E6870000C9
S214005DF0404101004800880044410100C0E65311BC
S214005E00146001001000000018600100000000840B
S214005E101C6001001FC0010020600100C8200000B7
S214005E20246001000000000028600100000000035C
S214005E302C6001000000000030600100C804FF0074
S214005E4034600100A2080000386001000A0000016A
S214005E503C6001009200040040600100D6BE898EBE
S214005E604460010000000000486001008C00D40A75
S214005E704C6001000000000050600100D1032A00C1
S214005E80546001000000000058600100000000009F
S214005E905C600100040A13226060010032414A4F30
S214005EA0646001000000000014700100F870020039
S214005EB018700100000300001C7001006000D08113
S214005EC02870010000008001487001003C3D000081
S214005ED04C700100BC1900007070010005810000C4
S214005EE07470010013010000787001000023550053
S214005EF0FFFFFFFFF00F0101D05C0000F40F01016F
S214005F0000000000FC0F01010BC003000830010078
S214005F103FAC0000F440010020100000FFFFFFFF30
S214005F20F00F0101F05C0000F40F01010008000012
S214005F30FC0F010108C003000830010037AC000068
S214005F40FFFFFFFFF00F0101E85C0000FC0F0101FE
S214005F5009C003000830010037AC0000F44001001F
S214005F6020000000FFFFFFFFF00F0101D85C0000DB
S214005F70F440010020000000FFFFFFFFF00F0101CA
S214005F80E05C0000FC0F010109C0030008300100BE
S214005F9037AC0000FFFFFFFF00000000010000001C
S214005FA008070F000A00C80020000000A00000003C
S214005FB00000000000000000A00055010A200706AF
S214005FC0020A0407000000000100000005000000AF
S214005FD000000000000000000000000000000000BC
S214005FE0080002000400000018090000010001007B
S214005FF0636032E0375EA488534E6DFB6435BFF7AE
S21400600053A1811F582CD0A54540FC34F327429855
S214006010B814B6F1E0CFF3ADB7DD25C9FA79B713FA
S214006020DFF8E4235378038090780880704710B533
S214006030DFF8D4331C7804431C70012804BF597061
S2140060409A7010BD38B504460D462278611C284665
S21400605000F008FA2078286131BD2DE9FF41174687
S2140060601C4600F010FAFF1EDFF8A083DFF8A053EE
S21400607038D07F1E53D0FF1F00F00981FC3F00F090
S214006080A5807F1E00F0FE807F1E00F0D780F83FC0
S21400609049D0BF1E57D0FF1E6ED07F1E00F0EA808C
S2140060A0FB3F14D040F2FF403F1A00F02C817F1EC9
S2140060B000F006817F1E00F00B817F1E00F0148129
S2140060C07F1E00F01781FF1E00F02C8135E120684E
S2140060D0A8800023A088E8800022CE4800F04DF972
S2140060E0082028E10C22002101A800F0F2FA01A8FD
S2140060F000F0FAFA0220A88000230420E88000229C
S21400610000202881294640F6181068810298E86029
S21400611001202882C04800F01EF912200BE12068FA
S214006120A880BE4804E100F048F9070023D02068A4
S214006130C07D10281CD06068A880002397F83E0019
S21400614000F020F914E000F038F9070013D007F14A
S2140061502006306980280ED16068A8800023B07FB2
S21400616000F010F93068C0B200F0D2FB00F074FC0A
S214006170384600F0E5FDE0E02068C07F00F026FF2E
S2140061800600F8D0A048007801281EBF206890F8C6
S2140061903D10FF290AD1206800F009F900F015F932
S2140061A018BF002000F0F8F89D485FE000F0FFF808
S2140061B000F00BF918BF002000F0EEF8206890F809
S2140061C03D00A873974800F0C6F835E0964800787A
S2140061D00028D0D16078FF2811D1A0782871062237
S2140061E0E11C681D00F03EF9607AE8720023A07A90
S2140061F0287300228D4800F0C0F80D209BE0207820
S2140062002871062260786871E11CA81D00F02AF942
S214006210607A287304F10C03A07A6873E07AA87396
S2140062200B30010241EA102040F4403040F0A0005C
S21400623000F091F82946AA7B0F207CE000F087F852
S21400624000287AD090F83E00287100236088A5F8D0
S21400625005000022A088A5F807002946E088A5F8D2
S2140062600900207AE8726089A881714800F073F806
S2140062700E2060E000F06BF800285ED000F061F8B9
S2140062806C4855E06C4800F071F8042053E000F0CC
S2140062905EF8060051D0207800F03AFB00281CBFBC
S2140062A0C07D102849D096F83E00287100236078FB
S2140062B068710022A078A8712946604828602DE001
S2140062C000F045F8002838D000F03BF85C482FE096
S2140062D000F078F8287100235A4828600022012030
S2140062E000902946052026E000F06CF800F037F80C
S2140062F0554804E000F066F800F031F8534800F026
S2140063003CF8092017E000F05DF82871002360686B
S214006310A5F8050000224E48286029460120009076
S214006320072008E000F04EF8287160686871494858
S21400633000F01CF8062000F040FF002004B0BDE886
S214006340F08190F83E002871607868717047217877
S214006350802000F0DFBD2860012000907047287183
S21400636000236068C5F805000022704728600023F7
S2140063700120009000222946704728602946012007
S21400638000907047A871C5F8008001200090002298
S2140063902946072000F011BFE872002396F83E0059
S2140063A028730022206890F83C006873704700F15C
S2140063B011010622281D00F055B82068C17F8020F4
S2140063C000F0A8BD207800F026BE2068C07DA87228
S2140063D02946206890F82E000128704703220021E5
S2140063E0094800F076B938B5044640F22D1528461F
S2140063F0A047194908602846A0471849086028465B
S214006400A0471749086031BD04040020A003080116
S214006410D4030020A0040E00A00E0100A002010577
S214006420A00A0800A00B080570150020A0090302AA
S214006430A00A0802A0020804A0000301A0030803A3
S214006440A0020F03A0010F01A0050F00A0050F0278
S214006450A0030F04A0020F09C8030020CC030020ED
S214006460D003002010B5044600F0BCFE204610BD48
S214006470002104E0827A8918427A0068891A002886
S214006480F8D10846704770B540F20160121A82B023
S2140064901C46694E694D1CD0521E20D0521E2ED06E
S2140064A0521E4ED0521E40D0521E5DD0521E6FD08D
S2140064B0521E75D0F93A7CD0521E00F08580521ECE
S2140064C000F08880521E00F09B80521E00F0A280D2
S2140064D0B0E000F0F1F800F0DEF85948A1E000F076
S2140064E0EBF8287104F108036068C5F80500A06998
S2140064F000F0C0F8534908432860294686E000F0BB
S214006500DBF8287104F1080300F0C6F82079E8717A
S214006510A0692872287A2A7A401D010241EA1020D2
S214006520494900F0A1F8092082E000F0C5F800F023
S214006530C6F8A872A87AC01D010241EA1020434995
S2140065404FE000F0B9F82871231D00F0A5F8606947
S214006550E871E879EA79001D010241EA10203C4919
S21400656000F082F8082063E000F0A6F800F093F848
S214006570A088A5F80700A068FFF77AFF00F07AF871
S2140065803449084328602946022000900A202FE05C
S21400659000F092F828716068A5F805002E6041E0CA
S2140065A000F08AF828712E6040F20310A5F8050066
S2140065B038E000F081F800F082F800F063F840F46C
S2140065C0202040F0A0000DE000F076F800F068F81B
S2140065D021481AE000F070F800F071F800F052F868
S2140065E01E490843AA7A28602946022000900B20FC
S2140065F0A36800F0E2FD04F1080000F093FF19E044
S21400660000F05AF800F04CF8154828600120009079
S2140066100A200DE000F050F828716068A5F8050023
S21400662010482860012000900023002229460720F9
S21400663000F0C3FD002076BDA0030906D4030020A9
S214006640A0030900A0000901A0000902A000090497
S214006650A0000903A0000905A0060A01A0000A027E
S214006660A0060A03A0030A0408432860294601205E
S214006670009070476872687A6A7A801D010241EA63
S21400668010207047A872A87AC01D010201F47F414D
S21400669041EA1020704728716088A5F80500704709
S2140066A0287100236088A5F8050000222079E8718B
S2140066B02946E08828817047207800F0ACBC287115
S2140066C06088A5F805002079E871E0882881A06830
S2140066D0CEE610B5044610460A460146204601F0AE
S2140066E03DF9204610BD002A10B540F628010A687C
S2140066F0A2F50063B3F5605F09D21368214CA3428C
S21400670005D19268426001230968896901E0002387
S21400671000218160036010BD40F628000068A0F5E7
S2140067200061B1F5605F3CBFC069004709E040F614
S21400673028000068A0F50061B1F5605F3CBF006A04
S21400674000474FF4817070470F480121816040F286
S21400675002224FF000510A804FF20F024A80016871
S21400676021F4E06141F480610160BFF34F8F074878
S214006770074A016801F4E06111430160BFF34F8FDF
S21400678000BFFDE707B0CD5E00500E400CED00E008
S2140067900400FA0540F628021268A2F50063B3F575
S2140067A0605F3CBF926A104740F20220704738B5DF
S2140067B040F628042468A4F50065B5F5605F02D3AA
S2140067C040F2022032BDE46AA04732BD40F62801FE
S2140067D00968A1F50062B2F5605F3CBF496A0847E8
S2140067E00020704770B505460E46022001F01CF9E1
S2140067F0040026D0502101F043F9E675062229460A
S21400680004F1110000F0EEFC04F13C004FF0FF3103
S2140068100170FF21417000206149401C0A68C0B227
S21400682003E0D37F9842F8D09268002AF9D1E07747
S21400683040F6FF7020840868A0600C60204600F0D8
S214006840B1F8204670BD00B10184704710B5040051
S2140068503AD094F904000128A4BF401E207194F990
S2140068600400012809D1207B800706D5207C010082
S2140068701EBF0128204601F05DFC94F904000128A3
S21400688022DA204601F031FC04F1240000F04AFE32
S2140068904349086858B1844203D1A068086006E0FE
S2140068A00846816819B1A142FAD1A1688160002228
S2140068B00FF21901204601F091FF2046BDE8104076
S2140068C00022012101F084BF10BD000010B5012A8E
S2140068D00C4602D0022A07D004E0002202212046FD
S2140068E001F076FF002010BD204601F0A6FF2146ED
S2140068F0022001F0AAF8012010BD2949096800E02D
S214006900896800291CBF0A8C8242F9D10846704764
S2140069102349096800E0896800291CBFCA7F8242B3
S214006920F9D10846704780B5FFF7F2FF18B1C17D70
S214006930102908BF002002BD70B504461848066836
S2140069400D4600E0B66856B1F07DA842FAD10622A0
S214006950214606F1110001F0D3FF0028F2D130469F
S21400696070BD38B504460E48056800E0AD685DB1F8
S214006970287C0428FAD13CB10322214605F11400F4
S21400698001F0BEFF0028F1D1284632BD10B90448F8
S21400699000687047806870470149002008607047AB
S2140069A02005002010B10179491C0171704702468C
S2140069B000235021022001F005B8022001F03FB864
S2140069C080B51B490020086001F0E5FF01F0EAFFF2
S2140069D0FFF7E2FF01F06CF800F040FC01F0EFFF7B
S2140069E002F08BF903F04CF803F0C2F9BDE8014061
S2140069F001F079BB38B504460D460023012200217C
S214006A00002000F0DFFF2046FFF7D1FF284602F007
S214006A1065F9002032BD1CB50446062205496846C5
S214006A2000F0F0FB20466946062200F0DBFB13BDB3
S214006A308C0500202008002010B5044603E001F075
S214006A402BFF01F04EFB01F0D6FA00282046F6D1C7
S214006A50BDE8104001F020BF002818BF02F045BE78
S214006A604FF4C070704780B5FFF752FF20B1008C1E
S214006A70BDE8024001F0B8BD4FF4C07002BD01F0A1
S214006A80A3BD80B50146012001F0DDFD002002BD5A
S214006A90002104E0827A8918427A0068891A002860
S214006AA0F8D10846704780B500F0E8F8012002BD2E
S214006AB0DFF8B80490F90000012103F0A7BA2DE929
S214006AC0F04786B080460E4692461D468DF80480F6
S214006AD00296ADF80CA004950E9CDFF89404DFF83F
S214006AE094948DF81440076806E001AADFF888142D
S214006AF0384603F0E9FA3F68A7B197F83C0000F083
S214006B000A000A28F7D1D7F804C0BCF1000FECD071
S214006B1000942B46524631464046E047D9F80000DE
S214006B200028E8D006B0BDE8F087416A00291CBFFF
S214006B30243000F0F7BC704738B50446E06998B3D7
S214006B4000F010F980B33C220921002000F0E1FBA0
S214006B50009048B30020DFF8245401E00A74401C7B
S214006B600099009A497A927A521A90420BD2009B68
S214006B70194408B95E22F1E7521E904201440CBF48
S214006B8021222A78EAE76946204600F00AF90098AA
S214006B9010B1684600F0C6FC2878401C2870C0B2C9
S214006BA03A28A4BF3020287031BDDFF8D40300781F
S214006BB04FF48071401CC0B2FF2804BF401CC0B216
S214006BC0DFF8AC2303E092F83E30834203D012682D
S214006BD0002AF8D17047491EECD1FF20704738B51F
S214006BE0FFF7E3FFFF2801D1002032BD442003F069
S214006BF09AFA040009D0442100F042FF04F13E0551
S214006C00FFF7D3FF287001206870204632BD80B59C
S214006C100021DFF8700303F0EAF9DFF8501308707C
S214006C2000F01CF9FFF7DBFFC0B1011D00220A606F
S214006C304A600623DFF850238A60DFF85023CA60D4
S214006C4000F13C0213701023CB621F2393700023C5
S214006C500B620121D170BDE8024000E001BDDFF803
S214006C6010130A680260086010F83C1F41F001012A
S214006C7001708078DFF808130870704710B5DFF8E9
S214006C80F00204682DE0204600F084F994F83C00F9
S214006C90C00744BF204600F0DCF994F83C0000F042
S214006CA0FE00810784F83C001AD540070BD5216901
S214006CB008001CBF20468847606A20B1E1680800CB
S214006CC01CBF2046884794F83C00000708D5A068FB
S214006CD0010005D0804718B10146204600F0D9F9DA
S214006CE02468002CCFD1002010BD38B50446251DE1
S214006CF00020E861A86184F83C0068602860A8600D
S214006D00686A28B104F1280000F00CFC00206862D4
S214006D10286A28B104F1240000F004FC0020286250
S214006D20934809E08169A14204BF00218161C169DD
S214006D30A14204BF0021C16100680028F2D131BD24
S214006D4010B50446FFF7D1FF894800E00846016801
S214006D5019B1A142FAD1216801602046BDE8104071
S214006D6003F0FDB908B90120704700F13C010A782C
S214006D7002F00603062B11D150F80C3F73B1C97808
S214006D8001B901218069002201E00068521C002838
S214006D90FBD1D2B28A428041C00F704702F0020097
S214006DA070472DE9F04704460D46E669FEB196F8B1
S214006DB03C10301D01F0060106290FD1816869B12B
S214006DC02868FFF765FEA16B4018A06306F1240053
S214006DD0296800F076FC00F095F80FE000680100E6
S214006DE005D000F033F902E0304600F0E5FA284618
S214006DF000F054FC060003D100F030F800202BE031
S214006E00707AB17ADFF86C9100F076F809E0A06B42
S214006E105044A063A7EB0A07707A50447072D044BF
S214006E20BFB2002FE0D0FD2FACBF4FF0FC0ABA4631
S214006E3042465FFA8AF1204600F03DF9D9F8000094
S214006E400028E4D03146284600F08BFC0020C9F824
S214006E50000000F003F80120BDE8F0874C4800F081
S214006E60F5B82DE9F8435FEA00090D4606D1284635
S214006E7000F058FB00202860BDE8F28309F1040604
S214006E8099F83C0000F00600062810D1B06870B1F2
S214006E902868FFF7FDFD316B4018306309F12400C8
S214006EA0296800F00EFC00F02DF80020E4E73068BA
S214006EB0010005D000F0CAF802E0304600F07CFA87
S214006EC0284600F0EBFB060002D1FFF7C7FFECE711
S214006ED0707AB17A00F010F807E04246E1B2484610
S214006EE000F0E9F83F1BA044BFB2002FE5D0FD2F0D
S214006EF0ACBFFC243C46F0E70F1A3044BFB200F1AA
S214006F0010087047002028600121184890F90000FA
S214006F1003F07CB8164A12683AB1136B834204BF7A
S214006F20136A8B42F7D1104670470020704710490D
S214006F30096800291CBF91F83E208242F8D1084615
S214006F40704710B5044694F83C00626920EA0101D7
S214006F50100002D02046904701E084F83C1094F8D8
S214006F603C0040F0010084F83C0010BD781500207D
S214006F70A8050020AC050020020001000D0200203C
S214006F8079150020A76A00002B6B0000396B000003
S214006F90BF6A000038B5044604F13C056878C007AF
S214006FA013D52878400610D52046FFF7DBFE60B1E3
S214006FB0287800F0BF0028704021687800F0FE00B6
S214006FC068702046BDE83440BBE731BD70B5064664
S214006FD031468020FFF79EFF04001BD1FFF7FFFD20
S214006FE0040001D1002070BD04F10C0500202860CB
S214006FF06860A860022084F83C001F20FFF797FF17
S21400700028616E61802068620020A8612046FFF734
S21400701026FE204670BDFF2800D1704780B5014689
S2140070208020FFF777FF10B190F83E0002BDFF20EA
S21400703002BDFF2800D1704780B5FFF778FF10B17A
S214007040006AC0B202BDFF2002BD03285F49086087
S214007050704700F11C025169802900D1704710B5B5
S21400706082B011684FF0FF3309B191F93E303C30E1
S214007070574984780C715269C1F805204B72002379
S21400708000788872002253480860012000900B2088
S2140070900EE010B54E4C82B0A180002390F83E0062
S2140070A0A07100224C482060214601200090072055
S2140070B000F083F813BD80B503460846444993F8AC
S2140070C03E3048710B71801C030243EA1020434B8C
S2140070D01843086013460120009006204A7900F005
S2140070E06CF801BD10B584B08278C078374C24683F
S2140070F0ADF80810000640EA024040F4087001901F
S214007100002301200090002201A90620A0471FBDF1
S214007110F1B582B00C46012000F091FC0B2838BF78
S2140071204FF4C1712AD32E48006800210CE00832C3
S214007130566846B1167806F0F806BE4204BFD67802
S214007140AE42F4D11146806888B181B94268029B8C
S2140071500093002A9DF800309DF80350F3D09678EF
S2140071609DF80270BE42EED103F0F807E0E719B1D1
S214007170496820468847F7BD40F2831102A8FFF70A
S214007180B1FFF7BDC4E770B5154E044630680D462E
S21400719000E0806818B14168A942FAD10BE00C20E3
S2140071A002F0D0FF10B94FF4C17070BD0470456096
S2140071B0316881603060002070BD10B582B0049CDC
S2140071C00094024C2468A04713BD0000B8040020B9
S2140071D0D4030020A0070B02A0030B00A0000B01A5
S2140071E0BC04002062B38B0708D0521E11F8013B86
S2140071F000F8013B00F024808B07F6D1830740F0AF
S214007200208000BF103A07D330B4B1E83810103AE7
S214007210A0E83810F9D230BC530724BFB1E80810F4
S214007220A0E8081044BF51F8043B40F8043BD207DE
S21400723024BF31F8022B20F8022B44BF0B780370D2
S2140072407047083A07D3B1E80810083A40F8043BFC
S21400725040F804CBF7D25307E4E7FEE780B50120F9
S21400726000F0FDFBDFF8E416801F086001BD2DE985
S214007270F04704468846914602F073FF8246DFF8E0
S214007280CC06DFF8CC560068DFF8C866012C26D19D
S2140072903168814228DA012000F0C6FB07465046D6
S2140072A002F063FF7FB31021384600F0E9FBB868B0
S2140072B040F00800B86087F8098009EB0800B8724B
S2140072C0002038607C60B86840084000B860002045
S2140072D0012CF8600DD13068401C306013E0002CA3
S2140072E0D9D129688142D6DB504602F03EFF002005
S2140072F00AE01CB92868401C286004E0DFF858063D
S2140073000168491C01603846BDE8F087002200216C
S214007310ADE78B18462BBCBFC9B2FFF7A8BF00204D
S214007320704738B514461D460022C9B2FFF79FFFC6
S214007330009040B12A46214600F0CDF9A8423CBF55
S214007340684600F0EFF8009832BDF8B50446002015
S2140073500D460090002620E0607A7872A07AB87217
S214007360A068B968400860F34101B960A068B968D0
S214007370800860F38201B960607AA17A0A1A204414
S21400738000F11001787A384400F047F9009800B907
S214007390009706B1376024683E465CB100220021A3
S2140073A02846FFF764FF0700D6D1684600F0BAF813
S2140073B00020F2BD0098F2BD38B5040021D002F0DE
S2140073C0D0FE0546A068616820F008000129A0608C
S2140073D008BFDFF8801505D000290CBFDFF8701550
S2140073E0DFF874150A68521E0A60C00721464CBFB3
S2140073F00320012000F029FB2846BDE8324002F0B9
S214007400B4BE31BD10B508E0427A837AC9B29C1A80
S2140074108C4205DAC91A006851180028F4D110BD4C
S21400742010440844103010BD827AC2F145039942D8
S214007430A8BFC2F145018A188272C8B2704738B533
S21400744004461546A07AC0F145029542A8BFC0F191
S2140074504505EDB220182A4600F0DFF8A07A281875
S214007460A072284632BD2DE9F0425FEA000918BF37
S21400747000290BD00C46607AA17ADBB20F1A9F4225
S21400748006DA591A24684318002CF4D1002021E0AB
S214007490A67A2118301A1944C51A1031EDB24E4694
S2140074A009EB020705E0607AA27A2118151A103156
S2140074B0EDB2BE420CD2701987423CBFBD1BEDB286
S2140074C02A463046FFF78EFE24687619002CEAD14D
S2140074D0A6EB0900BDE8F082F8B50E460446154650
S2140074E0002104E0827A8918427A0068891A002806
S2140074F0F8D1A94205D24FF0FF30F2BD24683E44D1
S214007500ED1B74B16DB1607AA17A0F1AAF4288BFD5
S2140075102F4620443A463146103001F0F1F9002853
S214007520ECD0F2BD38B5044603E00568FFF744FF2B
S214007530256020680028F8D131BD00B9704710B525
S214007540016821B900220260084610BD0260036887
S2140075501A68002AF6D09468C4F34004002CF5D0CC
S21400756000241C60EFE738B50446607A884202D3F0
S214007570401A607213E0A27AC2F14503C3188B4228
S2140075800FDB121A0D1A2318581903F110011030C8
S21400759002F0EEFD00206072A07A2818A07201208A
S2140075A032BD002032BD38B504460D46FFF7DBFF7E
S2140075B008B1204632BD6068FFF7A8FE28B1046017
S2140075C045218172C5F14501417232BDF8B50446C8
S2140075D00D46607AA17A0A1A081A561B8542B6B278
S2140075E004DA6068FFF792FE070001D10020F2BDC2
S2140075F0607A2044284400F11001787A384400F07C
S2140076000BF8B87A3018B872A07A801BA07220687F
S214007610386027600120F2BD32461030FFF7E2BD29
S21400762070B50C46002818BF002C07D0617AA27AE5
S214007630857AC5F14505561AB54201DA002070BDB7
S214007640521A6118D2B21031FFF7F9FE2046FFF742
S214007650B3FE012070BDF8B504460F46266800202C
S214007660354605E0B07A717A381A0F183046366813
S214007670F9B269B166B1B07A717AFFB2401A874240
S214007680F0DA39463046FFF7A1FF0028EAD1F2BD0E
S21400769008B10021016026602846F2BD016821B1CC
S2140076A00A6802600020086001E0002202600846C6
S2140076B07047016819B10A68026008467CE60160F6
S2140076C07047026812B901607047024610680028C9
S2140076D0FBD1116070472DE9F843040089469046B7
S2140076E01CBFB9F1000F5FEA080001D1002020E0BE
S2140076F0274600E0074638680028FBD13D0046468E
S21400770005D1617A60680022FFF7B1FD05466DB1CC
S214007710F2B249462846FFF792FE361A8144BD4229
S2140077201CBF3D602F46F0B20028EAD1A8EB060049
S214007730C0B2BDE8F28338B505680C4615B90460DA
S21400774031BD054628680028FBD1206818B12046C0
S21400775000F054F803E02846FFF762FF00B92C60FB
S21400776031BD026802B10A60016070470A0001D1AB
S21400777070471A461368002BFBD10368136001603C
S214007780704738B504460D4604E06D1A016821605E
S214007790FFF712FEE8B250B1206840B1427A817A13
S2140077A0891A89B2EDB28D42EFDAA918417231BD5D
S2140077B070B504460D46206810B970BD00203060D4
S2140077C0E8B2D0B12068002817D0002601E00646AF
S2140077D0084601680029FAD1417A827AEDB2531A36
S2140077E09D4202DA511B817270BDAA1A8D18FFF7EE
S2140077F0E3FD002EE2D10020206070BD70B5044687
S21400780043E0A17A607AC1F145021518ADB2002DA9
S2140078103AD002000DD00A1A204400F1100104F1FB
S214007820100002F0A5FCA07A617A401AA07200202F
S2140078306072206840B38168C1F3400121BB417A81
S214007840827AA37A0844521A00F11001607A92B242
S2140078502E4695422044C8BF16461844FFF7DCFE65
S214007860A07A3018A072AD1B2068417A7118417258
S214007870ADB22068817A427A891A03D10168216004
S214007880FFF79AFD002DD4D12468002CB9D170BD25
S2140078902DE9FB4781B00025019800950028904609
S2140078A046D00646A946AA46002422E0B9F1000FB3
S2140078B00DD101989DF8081040680022FFF7D7FC0C
S2140078C05FEA00092ED049466846FFF7FAFE707A4E
S2140078D03044001900F11001FAB24846FFF7AFFD38
S2140078E0BA445FFA8AFA3C19C245E4B204BFA94614
S2140078F0AA46707AB17A0A1A94420EDA121B134616
S2140079004245C8BF4346A8EB0A07BB42CEDA42450B
S214007910AEBF4746081A071BC8E73668002EC3D115
S214007920009D04E0009810B16846FFF7FBFD28466E
S21400793004B0BDE8F087074805490068096840EAD2
S21400794001200549096840EA014070471000002000
S214007950F8040020F4040020FC04002062F30F2248
S21400796062F31F42401810F0030308D0C91A1FD351
S214007970DB0748BF00F8012D28BF20F8022D1300B2
S21400798030B414461546103928BF20E93C00FAD812
S214007990490728BF20E90C0048BF40F8042D89009D
S2140079A028BF20F8022D48BF00F8012D30BC7047D4
S2140079B0C91818BF00F8012DCB0728BF00F8012D05
S2140079C07047FEE770B51446C91C4FF6FC721140AE
S2140079D0C91C02EA0105284901EB001600202749C8
S2140079E035807480F06004FB05F009688847706095
S2140079F015FB04F1318189B2706800F041F800206F
S214007A0007E0716800FB05F21144F2680A60F16055
S214007A10401CA042F5DB748070BD184A11605060AF
S214007A200101154802F0E0BB134901EB0011C868DC
S214007A3020B10268CA604A88521E4A8070470E49C2
S214007A4001EB00104088C0B270470B4A02EB0010F2
S214007A50C2680A60C1604188491C418070470001C5
S214007A6005490A5A2AB10A18085A128992FBF0F0F8
S214007A7070470020704700000C040020EC04002033
S214007A800022FFF76FBFFEE70188491C8AB202B9E1
S214007A90012101800088704710B50446012000F0DF
S214007AA01AFBDFF84C0804600020BDE8104012E323
S214007AB0DFF83C0800210160C1610162C162816299
S214007AC04FF6FF710187002181608181016181820B
S214007AD07047DFF81C18C2784A6042F213038288A7
S214007AE09A4200D0704700B583B082788DF80220A5
S214007AF08088ADF8040001F13800FFF7C5FFADF847
S214007B0000006A460621DFF8EC0700F0AEFE07BD6F
S214007B1070B5054686B0DFF8D867A878DFF8D44792
S214007B207060B5F8030010383AD04FF47E71401AF2
S214007B3036D040F2FB71401A32D040F2FE31401A85
S214007B4015D0001F27D0001F2BD04FF47F71401A8E
S214007B504FD040F6FD31401A70D00C3820D00A388D
S214007B6034D0C01F55D01438012852D96BE00A20F3
S214007B7002F0D9FA002813D0B5F807104180024663
S214007B80A9790170697A0171A98901816989C18021
S214007B904FF4837116E0B5F80900B060E888B0814C
S214007BA075E00622A91D06F13000FFF71BFB062034
S214007BB002F0B9FA06006AD00622A91DFFF712FBEA
S214007BC032460821204600F003FE60E008208DF8CB
S214007BD00E000822A91D0DF10F00FFF703FB06F1AA
S214007BE03800FFF751FFADF80C0003AA40F6070176
S214007BF04AE068798DF80900E888FEF77EFE00B155
S214007C00C07F8DF8080002AA287A8DF80A000B219A
S214007C103AE06879010014BF40F40070002000903C
S214007C2042F21F01B5F8030088420CBFE888002026
S214007C30ADF804006A4640F2023125E0287A306149
S214007C40E888B08223E068798DF8020040F66D413E
S214007C50B5F80300ADF80400B5F80300401A09D0E3
S214007C6041F29831401A05D0801F012884BF2A3877
S214007C70042804D806F13800FFF706FF00E0308F2E
S214007C80ADF800006A460621204600F0EEFD06B07C
S214007C9070BD2DE9F04E044682B0A07801284FF062
S214007CA0FF0A00F08C8002282ED0032876D0052804
S214007CB000F0CC80062800F0D780072800F0FB8074
S214007CC00C2800F0DF80122800F0E680132840F031
S214007CD005810C2002F027FA060000F0FF80E0780D
S214007CE0B07086F801A0062220797072611DF01C23
S214007CF0FFF778FA4FF0FF3030700020F072304611
S214007D00BDE8F64E01F0CBB8E6784FF0000B11E078
S214007D1000F0E6F85FFA80F9EDB2B542F8DB0BEB5F
S214007D20090020440BF1010B90F904003870384626
S214007D3001F0B5F8B3454FDA2B2002F0F4F907004E
S214007D404AD004EB0B0087F802A006220079787070
S214007D5000250BEB0600204400797872700002FBC9
S214007D600B002044011DF81CFFF73CFA0BEBC60085
S214007D7020440079F87206EBC60001E000F0B0F887
S214007D805FFA80F9EDB25D45F8DB04EB0900FA7A9C
S214007D90011D07F10C00FFF725FABDE7A088FEF7E6
S214007DA0ACFD020018D0E078002815D102F148009A
S214007DB0E1880180618941802189818089E0E079BC
S214007DC0A17951B9010018BF012104F10800FEF79E
S214007DD0B3FD5FEA000A15D180E0014604F1080011
S214007DE0FEF700FD5FEA000A78D00AF11E060220C0
S214007DF030740622DFF800150AF11800FFF702FAC1
S214007E00002030700AF11006E07878B9A188504654
S214007E10FEF719FDE08930870021608A7087208A86
S214007E20B0875046BDE8FC4E01F07DBC00203070A7
S214007E30E078010014BF40F400710021504601F0C4
S214007E4072FC5046BDE8F64EFEF700BDB4F80300DF
S214007E50FEF753FD010041D0B4F80D10621D02B0CC
S214007E60BDE8F04E02F077BEB4F80B000090B4F810
S214007E700930B4F80720B4F80510B4F8030000F091
S214007E80EFFB2BE0A088FEF738FD010026D0A17995
S214007E90BDE8FC4E00F093BFE078E379B4F8052027
S214007EA0010014BF40F400710021207902B0BDE843
S214007EB0F04E01F0E0B8B4F80300FEF71EFD020035
S214007EC01EBFB4F80500B2F84E10814206D0A2F8E4
S214007ED04E001046BDE8F64E00F046BFBDE8F38EF5
S214007EE005EBC60020446D1C00794844704738B541
S214007EF005462878032846D0052831D0082815D00E
S214007F000E2806D00F2808D030280AD03E2865D084
S214007F1031BD2846BDE83240FAE52846BDE8324085
S214007F20D7E500F060F804005CD00EE000F05BF8E7
S214007F30040057D0697994F83000002914BF40F047
S214007F40010000F0FE0084F83000A878010014BF9D
S214007F5040F4007100212046BDE8344001F052BCD8
S214007F6000F041F804003DD00020207440F6FF7079
S214007F7020846879010014BF40F400710021204677
S214007F8001F0BCFB25E01021681DFEF7D5FC0400BF
S214007F9028D0A87890B9B5F803102046FEF753FC11
S214007FA0E87A28B194F8300040F0010084F83000F8
S214007FB02046BDE83440002101F0B5BB0020207407
S214007FC0A878010014BF40F400710021204601F09B
S214007FD0AAFB2046BDE83240FEF738BC2846BDE87E
S214007FE0324056E631BDB5F80300FEF786BC0146C2
S214007FF0C248FFF766BBBE48C169002906BF806A53
S214008000002801207047BA49CA690020002A1CBF10
S21400801001F11C00FFF791BA704710B504F004FF99
S214008020040009D0607A20441030FFF760FF204635
S214008030BDE81040FFF7C0B9FFF7E5FF18B1BDE88F
S214008040104000F09BBD10BD80B5002141F2090034
S21400805004F0C4FE00B981E283E280B510B10228C4
S21400806018D001BD042142F2240004F0B7FE20B966
S214008070BDE8024001200FE501BDFB21A0F803107A
S2140080804FF6FF71A0F8051004F067FFBDE8024048
S214008090022020E004F0C8FE0028EDD0417A01441A
S2140080A00A7C0E2AE8D1897C914A01295160E3DBDB
S2140080B0FFF782F9DCE710B1022801D07047C3E76A
S2140080C0EAE410B1022805D070470022032189484F
S2140080D000F07EBBA1E7864A8949126851F8221053
S2140080E008470220F7E70020F5E7F8B5804D04467C
S2140080F0A88A00280CBF05F1200605F1240603E037
S2140081000768FFF759F93760306820B1C168A142A7
S214008110F6D00646F8E794F82D00A98A19B1296921
S2140081204018286102E0A9684018A860002084F87A
S2140081302D00F1BD10B50446207C010018BF0128B3
S21400814002D140F2811010BD032802D100F078F968
S2140081500CE0032140F2064004F040FE00B940E285
S21400816000F07FF91321417104F0F7FE012020741E
S214008170002010BD02B5018C40F6FF72914203D17B
S2140081806846FFF7CFF901BD0099012208E08B6829
S214008190C86023F0060343EA42028A6000220968A8
S2140081A00029F4D15248818A0029009914BF24304E
S2140081B02030FFF786FA04F083FE01BD38B504468A
S2140081C0062142F2050004F009FE050001D1002058
S2140081D032BD06222146E81CFFF704F8284604F0C4
S2140081E0BCFEBDE832407EE02DE9F0410E46174663
S2140081F09846444984B01CC90546684619211CC0E7
S21400820042F2360004F0EAFD040008BF00202AD03F
S214008210E5703DF81800A080A671300AE07167721C
S21400822000202072380AA0720020E0720D98207399
S2140082300A9860730E9860757F20A0750120E0751F
S2140082400020A0760F98E0760B98A0730C9921B1C9
S214008250062204F10F00FEF7C5FF204604F07DFE5F
S2140082602948FFF711FC04B0BDE8F08104F0B6FD24
S214008270BDE8024004F071BE70B504460D46072105
S21400828042F2350004F0AAFD060001D1002070BDC0
S21400829000F036F9304604F060FEBDE8704022E09B
S2140082A0F8B500F042F842F2370004F097FD0700F8
S2140082B001D10020F2BD00F03EF838460FE0A0F8ED
S2140082C00550A0F80760A0F809700699A0F80B10F2
S2140082D00021A0F80D104FF6FF71A0F80F1004F063
S2140082E03CFEBDE8F2400848FFF7CEBB00000000A9
S2140082F0F00700208C050020200800200C08002035
S214008300E4570000D857000026080020F8B500F013
S2140083100CF842F2380004F061FD070001D100209D
S214008320F2BD00F008F83846D9E70D460446291D88
S2140083301646C9B2704703203871FC700020787169
S214008340BD712A463146F81DFEF74CBFF8B500F061
S21400835021F842F2390004F041FD50B101210171CB
S214008360C570310AC1714471390A4172867107724B
S214008370B5E7F2BDF8B500F00DF842F20B0004F0D8
S2140083802DFD30B1C4708580C68007720699417293
S214008390A5E7F2BD04460D4616461F460721704760
S2140083A038B504460D46022142F20C0004F016FDD4
S2140083B030B1C470057104F0D0FDBDE8324092E7DC
S2140083C032BD2DE9F843814609F1100603203070CE
S2140083D00D4601201446B0770A9A099998464846F1
S2140083E000F0FCF9192142F20D0004F0F7FC07003A
S2140083F008BF4FF4C17021D0C820A7F80300A7F823
S214008400050006220020F87109F11101F079387292
S21400841007F10900FEF7E6FEB07B012818BF002032
S214008420F8733D827C82A7F814800898F8820020B2
S21400843038837C83384604F090FD0020BDE8F28344
S21400844080B5002142F20E0010E7F8B500F014F9EE
S21400845042F2130004F0C2FC10B100F002F82EE75E
S214008460F2BD218CA0F8031070472DE9F04100F012
S21400847068F898461C2142F2190004F0AFFC070089
S21400848008BF4FF4C17013D0208CA7F80300082251
S2140084902946781DFEF7A6FEA7F80D601022414675
S2140084A007F10F00FEF79EFE384604F056FD00204A
S2140084B0BDE8F08170B50D0004460AD1022142F2F3
S2140084C01B0004F08BFC060012D0208CA6F80300DC
S2140084D00EE0122142F21A0004F080FC060007D0DB
S2140084E0208CA6F8030010222946701DFEF77AFE9F
S2140084F001E000F005F83046BDE8704004F02DBD00
S214008500F47006222946301DFEF76CBE70B500F0EA
S21400851018F8032142F2330004F060FC00B92FE0A3
S21400852031E0F8B500F00DF81F46042142F23400A1
S21400853004F054FC00B940E0C470057146718771C0
S2140085403EE004460D461646704780B5002142F2CE
S2140085501F0004F043FC00B900E002E04FF4C170D5
S21400856002BD04F0FAFC002002BD70B5FFF7E9FF7B
S214008570032142F2310004F031FC00B900E002E0D1
S2140085804FF4C17070BDC4700571467104F0E5FC0F
S214008590002070BDF8B5FFF7D4FF1F46062142F253
S2140085A0320004F01BFC00B907E0FFF75AFF4571E4
S2140085B08671C7710699017202E04FF4C170F2BD70
S2140085C004F0CBFC0020F2BD80B5002142F218007A
S2140085D004F004FC20B104F0C0FCBDE8024082E6D2
S2140085E002BD4FF4C17010BD10B50446022141F221
S2140085F0054004F0F3FB00B9F3E7A0F8034004F0ED
S214008600ACFC002010BD38B504460D4606214FF6DA
S214008610054004F0E3FB00B900E00CE04FF4C17045
S21400862032BD38B504460D4606214FF6064004F026
S214008630D5FB00B9F2E7A0F80340C0F8055004F0F7
S2140086408CFC002032BD38B504460D4605214FF699
S214008650074004F0C3FB00B9E0E7C4704560EEE7EE
S214008660F8B500F009F842F2200004F0B7FB10B1AC
S214008670A0F8034023E6F2BD04460D4616461F4604
S2140086800E2170479C49086070479C490A680AB9E1
S21400869000207047D2680021101A00D400D10121B2
S2140086A00846704710B5954A12684FF0FF3109E04A
S2140086B0D36814695268E3181B1A23F000438B42F0
S2140086C098BF1946002AF3D1084610BD10B50446D7
S2140086D0606920B1A168002958BF01F040FD20461E
S2140086E0BDE8104001F03BBD84490020086070479B
S2140086F02DE9F84F814C25688046894692469B4670
S214008700002604E06F682846FFF7E0FF3D46BDB14F
S2140087102868404502BFA86820F0004048450CD1B4
S2140087205FEA0B0003D068695146D84728B96868E5
S214008730002E14BF70602060E4E72E466D68E6E702
S214008740BDE8F18F00230022D2E7F8B505001CBF74
S214008750286800280E4617461C4608D127B1002E6A
S2140087605CBF384601F0FBFC4FF4C670F2BD182023
S21400877001F0D9FC78B1002141618660476105604F
S214008780002206995D4B01615B4909686118C1606A
S2140087901C6825460AE027B1002E5CBF384601F06B
S2140087A0DEFC4FF4C170F2BD2A466D683DB1EE683E
S2140087B0761AB6F1004FF7D2EE688E42F4D012B9B0
S2140087C04460186002E05168416050600020F2BDCD
S2140087D080B500230093FFF7B8FF02BD70B50446CE
S2140087E00D4616460C2001F09EFC10B94FF4C170E1
S2140087F070BD45608660216801602060002070BD05
S2140088002DE9F0410546002728680E4690460028C8
S21400881001E0074620000ED042680168B24204BF5D
S214008820826842450C46F4D1002F0CBF296039609F
S21400883001F095FCEEE7BDE8F08138B504462F4917
S2140088402068096807E00A68A24203D18A6802F035
S21400885000428A6049680029F5D120B1056801F018
S2140088607EFC2846F9E7206031BD2DE9F041040082
S2140088700D4690460DD0276800E037464FB13E685B
S214008880B8687F6843462A462146B8470100F4D0B8
S21400889000E00020BDE8F0812DE9F041164C174DB0
S2140088A020601AE070682860B06840001CBF30681E
S2140088B000280FD007686FB1B26850000AD0D7F80A
S2140088C00080B868736931687F68B84710B95FEA96
S2140088D00807F1D13046FFF7F9FE26683046FFF765
S2140088E0D4FE18B12E68002EDCD1F6E73046BDE87F
S2140088F0F041D7E600000000E4040020E804002071
S2140089000300002013F0030F09D0521E22BF13F8F5
S214008910010B11F801CBB0EB0C00F3D07047121F1F
S21400892022BF53F8040B51F804CB6045F7D0121D54
S2140089300AD200BA9CFA8CFCB0EB0C0038BF6FF081
S214008940000088BF01207047521E22BF13F8010B9B
S21400895011F801CBB0EB0C00F6D0521C08BF104645
S2140089607047FEE730B5C2080D4B9C5C19B100F0AD
S21400897008F8204303E000F004F824EA00009854C6
S21400898030BD850800EB5575ED080121A0EBC5004C
S21400899001FA00F07047024800210170704700009D
S2140089A0771500207047FEE7002104E0827A8918D8
S2140089B0427A0068891A0028F8D10846704780B5C0
S2140089C000220FF205116B48FFF708FF6A494020A6
S2140089D0488001BD76B504460D461046FFF7E4FF15
S2140089E0064601980421FEF7DEFD28B901A8FEF729
S2140089F099FD4FF4C17076BD0190417A084410305D
S214008A004580068020460199FFF7B4FB002076BD1E
S214008A102DE9F041804658480D4601784C1C164614
S214008A2004701F46102204210020FEF772FC10B9C5
S214008A304FF4C17016E0417A014401F1100205219D
S214008A4051800C2111801221117154710821D1809E
S214008A501581568197810699D18101464046FFF7D8
S214008A6089FB0020BDE8F08170B500F00FF800B972
S214008A701EE000F013F813221DE070B500F006F8B3
S214008A8000B915E000F00AF8012214E004460D468D
S214008A9016460A2204210020FEF73BBC417A014418
S214008AA0103105224A804D7106220A800E817047D9
S214008AB04FF4C17070BD0A710222CA80014620467A
S214008AC0FFF758FB002070BD80B5062A01BF2A4874
S214008AD001891A8891420AD1002101819A7802B14F
S214008AE00122018AC068FFF7BFFF012002BD0020F7
S214008AF002BDF8B50D4604462879122802D0132880
S214008B002CD02FE094F82E0002282BD0298940F68E
S214008B107B408A1F82423EBF6A89931F834213D2DC
S214008B208A4211D3AB89B3F5FA7F0DDAE889A0F152
S214008B300A0640F67747BE4206D200902046FFF768
S214008B4084FC0D49088128B969792046BDE8F840BB
S214008B50012289E7CC6068790882F1BD94F82E007E
S214008B60012805D169792046BDE8F840002284E74F
S214008B70F1BD00008C0500201009002031B5417AB7
S214008B80084400F110052888C0F30B00FDF7B5FE79
S214008B90040003D16846FEF7C5FC31BD0098C460EA
S214008BA0288800F44051C0F30B00B1F5805F2880A0
S214008BB004D10098806820F0020007E004F1240049
S214008BC0FEF7B0FC0098806840F0020000998860CC
S214008BD000980099407A001D487204F1240000991C
S214008BE0FEF76FFD606A0146002201E00968521C2C
S214008BF00029FBD1D2B2022AA8BFFEF7FFFD606AA9
S214008C00FFF7D2FE04282AD3606A417A014401F1B4
S214008C101005FFF7C9FE2988091D81421FD1688803
S214008C2004280DD017D3062805D014D2294620468E
S214008C30FFF75FFF0FE0616A204602F036FA07E0B2
S214008C40606A417A091D4172A06B616A04F0F9FA04
S214008C500020606231BD04F12400FEF763FC31BDE4
S214008C600A431040884201D1012070470020704717
S214008C70012802BF487900F0C000402801D1012039
S214008C80704700207047F8B5DFF8B86C0C46717D69
S214008C908842054601D2202B00DBA2E100210020FD
S214008CA0FEF73FFB070002D14FF4C170F2BD7068BB
S214008CB000EB451544B905F11800FEF733FCE868EB
S214008CC0AF6140F0100007E005F11C00FEF72AFC3B
S214008CD0E868EF6140F02000E860C8E110B5DFF812
S214008CE0644C60754101002301220720FEF76AFEEE
S214008CF00720FEF799FE606010BDDFF8480C0021E3
S214008D00016014E0426802EB4112002313605360D6
S214008D10491CA02313814FF4A07353810723937437
S214008D20002313751382D360D3749361D361427D9D
S214008D309142E7DB642101810022C82141810021A4
S214008D4081816421C1811021018241820021017547
S214008D50C161816100F8241F0F214170DFF8840C87
S214008D600FF68541FFF73ABD10B504460C2001F01A
S214008D70DAF918B304F11F010A780270497C01F091
S214008D800B01012909D0032902D00B2902D003E0E8
S214008D90022102E0032100E00021017204F14801F3
S214008DA00A8842804A88C2808A8882800246C988A9
S214008DB0418140F20911BDE81040CCE010BD38B545
S214008DC004460D46022001F0AEF9E0B1E17F0170E5
S214008DD0012D10D0022D0CD0032D08D0072D04D065
S214008DE00B2D0CBF0821002106E0042104E00C2115
S214008DF002E0022100E0012141700246BDE8384051
S214008E0040F20721A7E031BD70B50546DFF8344BC8
S214008E100846E169D9B18D72206A00B18572A069F1
S214008E20DFF8C05BE26920F00200A06140F207169E
S214008E3031462846FFF7CCFC0020226AE06192B15A
S214008E4031462846FFF7C4FC002020620BE0FDF701
S214008E5088FD40B1C16880F83C5041F00101C16016
S214008E60002100F060FC0020FDF77BFD20B1BDE88E
S214008E707040113004F02EBB70BD30B5921E00233A
S214008E8000E01B199A4208DBCC186478844201D1B2
S214008E90C81830BDCC5C2500F3D1002030BD38B5F5
S214008EA00446DFF8A05A60780428A8692BD040084A
S214008EB04000A86104F10C01E27A0120FFF7DDFF13
S214008EC0002100B181782868012802D0022807D046
S214008ED009E0C80707D42046BDE8324001F03FB994
S214008EE011F0030FF7D0607AE11CFFF7C1FE90B1D6
S214008EF0E01C04F0EFFA0028EDD0A869EC6140F021
S214008F000200A86131BDC10701D48107E3D58007FF
S214008F1001D52C6231BD607A010003D10622E11C26
S214008F20002009E0012802BF207A00F0C000C02817
S214008F3005D10622E11C012004F04FFC00E0FF20D2
S214008F40A0722246A969012060F30101A96140F2DE
S214008F500711BDE83840DFF88C0AFFF739BCF8B5D2
S214008F600D461646AE421F463BD3A91F40F67B422F
S214008F70914236D2B6F5486F33DCB7F5FA7F30DA71
S214008F80069CA4F10A0340F677418B4229D27A1C4C
S214008F9006FB02F1B1EB840F23DAFF2807D1DFF8D6
S214008FA0A409058146818781C4810020F2BDFDF7B2
S214008FB0AFFC00281EBF00F117010A78102A10D057
S214008FC0C97D009401293B463246294606D1FFF763
S214008FD03CFA0028E9D140F28110F2BDFFF718FDF7
S214008FE0F2BD4FF4C070F2BD30B5039C202523437C
S214008FF007D0DFF8743A53F82430022B14BF032B43
S214009000A025A84228BFA9420AD344F201039942E8
S214009010B8BF984204DA814202D3082A00DA0AB9B5
S214009020002030BD012030BDF8B50C46DFF814191D
S2140090301E464B7D984215460DD2496801EB4017F7
S21400904032467868C0B2009029463868C3B22046D7
S214009050FFF7CAFF00B9C4E706F00700B8743C8102
S2140090607D8106983875F86840F00100F86000F0D9
S214009070A6F90020F2BD70B50D46DFF8C8181E46EA
S2140090804B7D04469C4210461CD245B9FDF735FC84
S214009090C0B180F83D400021BDE8704043E3486819
S2140090A000EB44100021016041600C2001F03BF809
S2140090B0020007D01470556016814FF48471BDE825
S2140090C0704048E770BD10B50C46FDF721FC00B9AE
S2140090D011E0008C2146BDE81040FFF794BA10B5A9
S2140090E00C46FDF715FC00B905E0008C2146BDE8EE
S2140090F01040FFF796BA4FF4C07010BD10B50C467E
S214009100F0210C4282B002D1FDF702FC10B94FF4F8
S214009110C07016BD002104F00302630744BF42F08E
S21400912004020221230744BF42F0040241F0010179
S214009130009113460021FFF72DFA16BD010001D05D
S214009140042802DB4FF4C070704702460020FFF789
S2140091500CBA10B543F6FD73041F9C423CBF0C1FAF
S2140091609C4201D2884200D2C5E7DFF8D837188281
S21400917059821A75986940F00C00986100F01FF942
S214009180002010BD2DE9F04D0D46DFF8B8B70BF105
S21400919004019A464B7C984294B016461ED21C9CFC
S2140091A0022C1BDA012C00D1C6B9A8460968B8F112
S2140091B0050FB8BF042E01EB40170FDA022E05D1BB
S2140091C0FDF7FBFB10B940F2092074E00096BA7C6C
S2140091D0798938892B46FFF707FF10B94FF4C0701E
S2140091E069E03868804504BF7868864205D1398AC8
S2140091F08A4504BFF97C8C425CD0B8F1040F18BFD6
S21400920056EA05003ED0012D02D0022D02D003E022
S214009210012002E0022000E00020796809B940F051
S214009220040001A9009102AB0DF105020AA900F0A5
S21400923097FB9DF80500002840D003460AAA0021A7
S2140092400020FEF76EF8050038D007F11800FEF78C
S21400925069F9BD61F86840F01000F8609DF80400F8
S21400926080B1034602AA00210020FEF75AF8050046
S21400927008D007F11C00FEF755F9FD61F86840F0CC
S2140092802000F860A7F810A0C7F800807E60FC7485
S214009290012C1CBF9BF82400012803D1F86840F07D
S2140092A00400F860F86840F00300F86000F05BF82F
S2140092B000F085F8002014B0BDE8F08DF86840F0A6
S2140092C00200F86000203860786000F078F84FF40C
S2140092D0C170F0E7DFF86C06016849B900E0491C88
S2140092E0427D914206DA42684B01D258002AF6D0F7
S2140092F0012070470020704770B50546022D0E46C7
S21400930002DB4FF4C07070BDFFF7E4FF10B140F20F
S214009310811070BDDFF82C0600F11804227B954200
S2140093201FD0012D257312D10621263000F01DFD19
S21400933010B10021217370BD3000206840F040005D
S21400934008BF0F262060667300F039F809E04FF476
S2140093508571DFF89006FFF7F5F9206820F08000A9
S2140093602060002070BDDFF8DC0510B500F11804A1
S21400937082B02178090621D4217BF9B10621263056
S21400938000F0F3FCFFF7A6FFC0B1002000904FF4FA
S2140093907A72607BDFF8D416A1FB0001002304F08C
S2140093A0BBFA034600224FF48571DFF83806FFF754
S2140093B0CCF918B9206840F08000206013BD70B565
S2140093C0DFF88045E08A002888B02BD1002500E031
S2140093D06D1C617DE8B2884280F090806068EDB2D6
S2140093E000EB4516F068C1060CD5B06900F0CEF863
S2140093F0FEF756FFE082F06820F01000F06006F1FD
S21400940018000DE081060ED5F06900F0BFF8FEF7F3
S2140094107DFFE082F06820F02000F06006F11C007E
S214009420FEF780F8B0E000220921FFF719FC10B320
S214009430F07C317D01281BBF94F824000128012010
S2140094400020059100210491B17C0391009006A9AB
S214009450029100210191DFF81006716850F8210092
S21400946072893189C3B22846FEF7BEFEE082F068F4
S2140094704008400027E0F06800220C21FFF7F0FBD0
S21400948088B1F07C012804F1260104D16946062043
S21400949004F0EDFA69462846FEF7EEFEE082F06834
S2140094A020F004000FE0F06808220221FFF7D8FB46
S2140094B058B10023002200212846FEF747FFE0822D
S2140094C0F06840F00800F0605EE0F06800220A21D4
S2140094D0FFF7C6FB002808D0F06820F00A00F0600E
S2140094E07068002804BF306800283FF471AF338AE4
S2140094F0002201212846FEF729FF44E0A569002244
S214009500142100F04BF888B194F82400628A218A6E
S21400951001280CBF0123002300200090207DFEF7C9
S21400952029FFE082A06920F004001AE00022502102
S21400953000F034F840B104F12600FEF73FFEE0826A
S214009540A06920F040000CE01022082100F026F868
S21400955048B100210020FEF723FFE082A06940F01A
S2140095601000A06110E00022182100F017F8002873
S2140095701FBF25F01800A0612068002804D0002135
S2140095800120FEF70DFFE08208B070BD417A421858
S214009590807A411A1032C9B2284670472846FFF72B
S2140095A05FBB80B5032802DB4FF4C07002BDDFF856
S2140095B094130A6802B122E0DFF8B42452F82000BF
S2140095C091F824200860012A886940F00C00886120
S2140095D004D140F040008861FFF7C5FEFFF7EFFEBC
S2140095E0002002BD80B5D7480168491E022906D86A
S2140095F000210160816941F008018161EEE740F2D7
S214009600811002BD2DE9FE4F0C9FDFF8388381469E
S21400961000200D4692469B463860002608F104045A
S21400962007E0216801EB40114968022908BF761C53
S214009630401C617C8842F4DBF0B240B1FDF7BDF916
S214009640F6B2711C884202DA40F209200FE0207D53
S214009650800602D540F2811009E005B101252946B1
S2140096604846FDF7BFF8060003D14FF4C1703860D6
S2140096702AE00622494606F11100FDF7B3FDF5750E
S21400968098F8240001280CBF08F12601DFF8E4133F
S214009690062206F11800FDF7A5FD98F8240001281B
S2140096A018BF0020B077CDF808B0CDF804A06089C8
S2140096B000902389E288A1883046FEF782FE386053
S2140096C020B13046FDF7C2F800200CE0606940F09B
S2140096D020006061304601F092FCFFF744FE304601
S2140096E0FDF760F93046BDE8FE8F10B50446FEF77C
S2140096F021FD2046FDF7AAF8002010BD30B504462F
S21400970083B0207C04280DD0019140F203250094FC
S2140097106A462946B348FFF7A8F86A46294620460F
S214009720FFF7A3F837BDF8B504460D0004F12E0682
S214009730844F10D000F056F8082000F0F4FC002803
S2140097404FD04560046002462046BDE8F84040F22F
S2140097500121FFF73DB81B203084F07BFF2802D1A3
S214009760307801283DD1207BC00712D4E07D04F17B
S2140097701101FFF77DFA60B196F90E0010F1010FA6
S21400978007D10420207404F11100BDE8F24003F074
S214009790A1BE00F027F8204600F037FB30780228FC
S2140097A004BF204601F02BFC02202074042000F0A9
S2140097B0BAFC020005D0146040F206218948FFF783
S2140097C007F8042000F0AFFC30B10460024640F217
S2140097D002212046FEF7FCFF2046BDE8F240FFF7D8
S2140097E0C3BAF1BD3078012804D1B86920F0200052
S2140097F0B86170477868F17B00EB4110002101608A
S2140098004160704770B504460D460C2000F08BFC96
S21400981006001DD004F130003460017811F001011B
S21400982031711CBF017801F0020171712946007B7D
S214009830B071B560204600F0BCF932464FF40171B5
S2140098402046FEF7C5FF2046BDE87040FFF78CBAFD
S21400985070BD2DE9F8410F46032F83B00546164626
S21400986032DB0A9C8C4228BF0C4603A9022004F077
S2140098701FF900F069F8804604F0E0F920B300F024
S21400988069F8414604F092FCBDF80020214691425A
S21400989088BF1146ADF800100199A9B9BDF80010AF
S2140098A091B1891C8F420FDBBDF80010491C29704E
S2140098B06E700146BDF80020A81CFDF793FCBDF8AD
S2140098C00000801CC0B200E0002004B0BDE8F081BB
S2140098D0F0B50E46032E83B0044631DB664800889A
S2140098E0ADF802000DF10201022004F0E1F800F0EC
S2140098F02BF8054604F0A2F910B94FF0FF30FEBD74
S21400990000F028F8294604F051FC0146BDF8002076
S2140099100927B01E904204DA082E11DBADF80000CD
S2140099200827BDF8000058B1401C20706770A01CC6
S214009930BDF80020FDF756FCBDF80000801CFEBDFB
S2140099400020FEBD5405002002464FF6FF710120A0
S21400995004F020BD0020ADF8000001AB6A46704759
S214009960F8B50C4602212170A070012161700091AB
S21400997015461E4642F607230A221C21E01CFFF766
S21400998068FFC71C0420FFB20090C7F11F0142F613
S21400999004231222C9B2E019FFF75BFFC719FFB212
S2140099A0C7F11F01E01904F05DFB344991F824105B
S2140099B0C719FFB2002049B9C7F11F01C9B2E019A3
S2140099C0FFF786FF0128A4BFC719FFB22F7020B982
S2140099D01F213046FFF77CFF00E000200699087044
S2140099E0F1BD00008C05002010B5062A234C0AD0D5
S2140099F0B2F5857F11D040F20B10824208BF03F00B
S214009A0029FD002010BDE08A19888842F9D100207F
S214009A10E082FFF7D4FC012010BDA06920F0800092
S214009A20A061FFF7A0FC94F824000128F3D10020E1
S214009A3010E0616842018B585BB1114401F10C02E1
S214009A40136843F00403136051F80C2F42F002022F
S214009A500A60401C617D8842EBDB206818B1A06973
S214009A6040F04800A061D4E76C5700000000307555
S214009A707C57000020080020E66600005405002001
S214009A8080B504F020FD04F02EFDA549A54803F09E
S214009A90FFFF01F012F800220321002000F028F852
S214009AA0A14900200871BDE8014003F048BD00F060
S214009AB0C6BF01009C4818BF0121017170479A4932
S214009AC00A793AB9097A890704D490F93C0010F16A
S214009AD0010F01D001207047002070479248007A9D
S214009AE000F0020070479048007A00F008007047C7
S214009AF010B5044608460528A8BF0320E10704D58C
S214009B00032802D14FF4C07010BD0428864B0CBF4A
S214009B100121014619609C6004F0040304F0010171
S214009B2000F0E4FE002010BD00F005BF00F064BFAA
S214009B3000F01CBF02B5FCF7EBFE40B16B4645F2E9
S214009B401902002101F0A7FA08B1002002BD13E0B7
S214009B5002B5FCF7DDFE78B1009911F1010F02D0D5
S214009B60724A914208D26B4645F21802002101F073
S214009B7092FA08B1002002BD4FF4C07002BD80B555
S214009B8010F1010F02D06949884203D200F0C3FEEB
S214009B90002002BDF0E702B5FCF7BAFE40B16B4606
S214009BA045F21D02002101F076FA08B1002002BD40
S214009BB0E2E738B50D4604462B4645F21B02002167
S214009BC001F069FA28B925B129462046BDE8344097
S214009BD055E031BD30B587B0FCF79AFE040008BFEB
S214009BE04FF4C07037D004F12E052878012826D10E
S214009BF095F90E0010F1010F21D0A978C9071ED4DF
S214009C00102303AA032103F013FEC0B195F90E003A
S214009C100A236A46022103F00BFE18B90A21684699
S214009C2000F0E2FA9DF800009DF8011040EA0122DB
S214009C3003AB0DF102012046FEF717FC0BE00023F4
S214009C4045F217020021204601F025FA002814BF2D
S214009C50002040F2811007B030BD10B50446022047
S214009C6000F061FA50B1E17F0170024694F83C10B2
S214009C70417040F60201BDE810400CE010BD38B55A
S214009C8000F01DF830B100F015F8BDE8384040F699
S214009C90010100E031BD2648FEF79ABD38B500F058
S214009CA00EF830B100F006F8BDE8384040F6050181
S214009CB0F1E731BDE17F017045600246704704461A
S214009CC00D46082000F02FBA32B5044645F21805B6
S214009CD082B16946042004F01FFC0098134A01462E
S214009CE0B1FBF2F102FB110000906B462A46002100
S214009CF0204602E06B462A46002101F0CCF90820F7
S214009D0000F011FA48B1E17F017002460099416007
S214009D1040F604010648FEF75BFD31BD000000007A
S214009D20EFBEADDEBEBAFECA8005002040420F0080
S214009D308C05002010B50446012000F0F4F938B177
S214009D40E17F01700246BDE8104040F60301A2E73D
S214009D5010BD38B5FFF7B3FF30B1FFF7ABFFBDE876
S214009D60384040F6080196E731BD00F080BEFEE7B9
S214009D708049F72008807047A0F11701E92902D32F
S214009D804FF4C07070477B4908800020704738B594
S214009D9004460D4603F000FF25B12046BDE83240DC
S214009DA003F0E3BE42F6052004F05CFB05462046C1
S214009DB003F0DBFE280005D02946BDE8344000202D
S214009DC005F05CB931BD38B50C46002003F0D5FE71
S214009DD0C043044202D04FF4C07032BD012003F0ED
S214009DE0CCFEA0420FD042F6052004F03BFB054611
S214009DF003F0D2FE204603F0CAFE280003D0294610
S214009E00002005F03BF9002032BD38B505464C2051
S214009E1000F098F9040001D1002032BD2846FCF776
S214009E20C1FDAC63256000202076002104F13000DF
S214009E30017081611720A08022460FF2E5012846B6
S214009E40FEF7CCFC4C4800684168002204F10C0088
S214009E50FEF7C4FC02202075204632BD38B504004B
S214009E601CBFA56B002D21D00020A0632A460FF250
S214009E70B1012046FEF7C4FC05F10C00FEF7DDFC40
S214009E8005F10800FEF7D9FCE86A08B100F067F9AA
S214009E90A86C18B105F14800FDF744FB284600F011
S214009EA05EF92046BDE83240FCF7D0BC31BD38B57F
S214009EB004460D46042000F036F960B12168C97FDB
S214009EC001704580024604F10C00BDE8384040F2BF
S214009ED00161FEF77DBC31BD80B5002200924FF4D3
S214009EE070230068FEF731FC01BD0068FEF72ABC4F
S214009EF010B50446207D012810D00120207500F002
S214009F0012F958B12168C97F0170024604F10C00AD
S214009F10BDE810404FF4C161FEF75ABC10BD00000A
S214009F2010B50446521E08461FD040F20121521AB0
S214009F300AD0521E19D040F20641521A012A9CBF7E
S214009F402046FFF7D5FF12E003F0A2F830B109482B
S214009F5001881829A4BF204603F0A0F8204603F085
S214009F60C0FE204605F037F801E0FFF777FF002037
S214009F7010BD0000FC0100208C05002080B5FCF719
S214009F80C7FC00B1806B02BD80B5002100B101683E
S214009F900846FCF7FBFC010003D0886B0028F7D0CE
S214009FA002BD002002BDFEE7890001EB401000F173
S214009FB00850026070470122F6E73E480021C0E9DB
S214009FC000113D48282100F00FB93A494A68D043AD
S214009FD090FAA0F0B0FA80F0052802DB4FF0FF30D0
S214009FE07047012383401A434A6040B2704770B5F9
S214009FF004460D46FFF7E9FF06462F482A46214647
S21400A00000EBC600FEF7EAFB304670BD052800D31D
S21400A010704710B500F013F852E8003F0B4342E8D3
S21400A0200034002CF8D1C1B22248FFF7C4FF234801
S21400A0300068010002D0BDE81040004710BD1E4B6E
S21400A04003EBC002121D704770B582B01C4C194D50
S21400A05000E02070286820B326780121B14008422D
S21400A06019D0002231462846FFF79EFF124800EB23
S21400A070C600011D002351E8002F41E8003CBCF15A
S21400A080000FF8D11100009205D06A460D49FEF780
S21400A090ECFB012076BD6868864234BF701C002049
S21400A0A0D7E776BD0348006800B101207047034932
S21400A0B008607047600600206C06002068060020D6
S21400A0C07C1500207856341200B9704710B5046C21
S21400A0D0230003D013460A460021A04710BD0022E5
S21400A0E04FF00111F0E700224FF48031ECE70A460A
S21400A0F00849E9E768B1016419B10749074A084BFE
S21400A10001E000220023016143610021C2608160FA
S21400A1104160704703000100E7A00000DFA00000D8
S21400A120EFA00000704738B5C01C8408A00004F0FB
S21400A130D5FF050001D1002032BDA100FDF7A0FC2F
S21400A140284632BD38B50446FFF7EDFF05001CBFB4
S21400A1502146FDF795FC284632BD4843F2E705F058
S21400A16015B8EFF3108072B6704700B962B6704744
S21400A17081423ABF53189842FDF734B880189907C1
S21400A18007D0521E24BF13F8011D00F8011DF6D893
S21400A190704781071CD1103A07D330B433E9321028
S21400A1A0103A20E93210F9D230BC1032121F24BF08
S21400A1B053F8041D40F8041DF8D838BF121D521E6F
S21400A1C024BF13F8011D00F8011DF8D8704700BF22
S21400A1D0083A07D333E90210083A40F804CD40F8AD
S21400A1E0041DF7D20832EAE7002205F013B8FEE7AE
S21400A1F010B582B000240094FEF7A7FA16BD10B57D
S21400A200002204E0835C445C84544354521C491E80
S21400A2108A42F7D310BD30B5002304E0C45CCD5CA1
S21400A2206C40C4545B1C9342F8DB30BD80B51046CE
S21400A23003F01DFC002002BD30B50D4689B0044673
S21400A2401146102204A8FCF7CDFF102104A8FFF742
S21400A250D6FF102221466846FCF7C4FF1021684648
S21400A260FFF7CDFF04F04BF9802204A905F011F8A2
S21400A27004F045F92B466A46012105F01DF8044610
S21400A28000F0A9F8204609B030BD2DE9F04104469B
S21400A290884694F82E000228069817461E460CBFDD
S21400A2A00125002518B11022394602F00BFA606B22
S21400A2B0001D0021425C7B5C5A407254491C1029E8
S21400A2C0F8DB00F024F8A0B9002D14BF3046B01D0E
S21400A2D0062204F11801FFF79EFF002D14BFB01DE3
S21400A2E03046062204F11101FFF795FF00F00FF843
S21400A2F028B12046BDE8F041082100F055BE2046B2
S21400A300BDE8F041002245F2100100F0B3BE42461F
S21400A3103146304690E7F0B589B004460D466846AB
S21400A32001F0C1F90322E91C6846FCF75BFF2246F0
S21400A33004A96846FFF780FF002608B14FF4C676EA
S21400A340032204A92846FCF74DFF304609B0F0BDAD
S21400A35070B596B0044616461D46202205A8FCF7A2
S21400A36041FF202105A8FFF74AFF202231460DA80D
S21400A370FCF738FF20210DA8FFF741FF5CB1606BAA
S21400A380D0F8680103281CBF0128022803D11A98B8
S21400A39040F0800000E000208DF8540000F025F921
S21400A3A000F018F9DFF8446C00F00AF980201B9DD5
S21400A3B000F013F9060003D054B100F007F907E0E7
S21400A3C000F009F824B1002245F2110100F05BF913
S21400A3D0304616B070BD1021284610E7F0B59FB085
S21400A3E004460D4616461F4617A8DFF8041C102222
S21400A3F0FCF708FF202229460FA8FCF7F3FE2021D1
S21400A4000FA8FFF7FCFEDFF8E45B802317AA00F036
S21400A41036F9802000901BAB4FF480720FA900F035
S21400A4203AF900208DF80400742162208DF80500AA
S21400A43010220DF1050041706C2181706521C170FC
S21400A4400DF109003146FCF7CDFE10210DF1090093
S21400A450FFF7D5FE102239460DF11900FCF7C2FEB3
S21400A46010210DF11900FFF7CAFE259901B101214F
S21400A4708DF82910062224990DF12A00FCF7B2FE69
S21400A48006210DF12A00FFF7BAFE279901B1012136
S21400A4900DF129060622F1710DF131002699FCF71F
S21400A4A0A1FE06210DF13100FFF7A9FE0120B073D1
S21400A4B080230020F0731BAA00F0E1F88020299E7C
S21400A4C000F0E4F858B910213046FFF798FE012056
S21400A4D08DF804008020289E00F0D8F810B100F017
S21400A4E075F80FE094F84200C0F110013046FDF711
S21400A4F0C7FA10213046FFF782FE002245F212010D
S21400A50000F0C1F81FB0F0BD70B50D4696B0044619
S21400A51011461E46102205A8FCF764FE102105A869
S21400A520FFF76DFE1022314601F0E1FA102109A86E
S21400A530FFF765FE1A9910220DA8FCF753FE1021AE
S21400A5400DA8FFF75CFE1B981F998DF8440011AE0E
S21400A5501C9870701D98B07001B10121F170062230
S21400A5601E9912A8FCF73EFE062112A8FFF747FE2A
S21400A570219901B10121B17206222099DFF86C6A97
S21400A5800DF14F00FCF72EFE06210DF14F00FFF7F0
S21400A59036FE00F02AF800F01DF800F011F88020D2
S21400A5A0229D00F01AF810B100F010F806E0FFF750
S21400A5B012FF002245F2130100F065F816B070BDD8
S21400A5C0802301AA0221304604F00CBF0821204651
S21400A5D000F0EABC102101A811E600902B464FF4CB
S21400A5E0027205A9304604F023BF1022294601A8AE
S21400A5F0FCF7F8BD70B59EB0044615461E462022F0
S21400A60001F075FA202109A8FFF7F9FD2022294656
S21400A61011A8FCF7E7FD202111A8FFF7F0FD22990D
S21400A620102219A8FCF7DEFD102119A8FFF7E7FD98
S21400A6301022314601A8FCF7D5FDFFF7CBFFDFF867
S21400A640AC59802301AA00F01AF88020009005ABD0
S21400A6504FF4207209A900F01EF810B1FFF7B6FFFC
S21400A6600BE008A923980A6802600421FFF7C7FDDB
S21400A670002245F2140100F006F81EB070BD02215B
S21400A680284604F0AFBE204600F0F4BC00903346E7
S21400A6904FF4D47201A9284604F0CABEF0B597B0AC
S21400A6A004460D4616461F4605A804F0E7FE20227F
S21400A6B029460EA8FCF796FD20210EA8FFF79FFD61
S21400A6C020220EA905A806F093F9202231460EA8EE
S21400A6D0FCF788FD20210EA8FFF791FD20220EA989
S21400A6E008A806F085F901210BA806F01EF902A8B5
S21400A6F006F059F8002102A806F017F9002001908C
S21400A70000903B4605AA02A9DFF8E00B07F04BF9DC
S21400A71010B1FFF75BFF14E01C9D2022294602A81B
S21400A72006F09CF920212846FFF769FD02A806F0EE
S21400A73041F805A804F0B9FE002245F21501FFF71E
S21400A740A2FF17B0F0BD2DE9F04304461D468BB0BE
S21400A7500F469046284606F026F8DFF8949B09F147
S21400A760240000264179022910D1202209F16C012B
S21400A7703846FCF737FD202209F18C014046FCF7ED
S21400A78031FD09F1AC000EC80EC53DE00078C007EB
S21400A79012D52022DFF85C1B3846FCF723FD20226A
S21400A7A0DFF8541B4046FCF71DFD2022DFF84C1B4B
S21400A7B0284606F01DF927E001A804F05FFE4FF4D6
S21400A7C0F270009601AADFF8383B2946484407F0A5
S21400A7D0E3F8060003D0ECB1FFF7F8FE1AE02022FB
S21400A7E0394601A806F03AF92022414604A806F0A8
S21400A7F035F920213846FFF702FD20214046FFF7B5
S21400A800FEFC01A804F051FE24B1002245F2160118
S21400A810FFF739FF30460BB0BDE8F08310B50446AD
S21400A8200A4608210020FCF774FD48B1417A01442D
S21400A83004F0FF0351F8102F120A43EA02220A60BE
S21400A84010BD80B5012A0AD1DFF8A40A90F92810B5
S21400A8504A1C022980F8282001DA00F03FFD00207B
S21400A86002BD416B49B990F82E00012802D10FF6BF
S21400A870B1007047DFF88C0A70470868704710B55B
S21400A8800446606B30B94FF4B870FFF75BFC60634A
S21400A89040B910BD943005F08DFF606B4FF4B87171
S21400A8A0FFF7A2FC606B4FF0FF31C0F86C1194F814
S21400A8B02E1001290CBF0FF66901DFF8481A016057
S21400A8C0012010BD70B504460D46FFF7CAFF0646C8
S21400A8D02A4645F201012046B047606B00B105608C
S21400A8E032464FF4A0412046A84770BD10B5072A4F
S21400A8F0B8BF072202DB112AA8BF1022DFF8F049F2
S21400A9002060080018BF012020742272180018BFAB
S21400A9100120607410BDDFF8D819C8607047DFF8F2
S21400A920D009002180F8291080F84A1080F86B10B2
S21400A930AC3005F03FBF10B500F075F800D178E0F8
S21400A940102901D009B177E011B9FFF7E8FF0BE055
S21400A950012184F829101022014604F12A00FCF790
S21400A96041FC012084F84A00002010BD7CB5DFF8C9
S21400A97080690C4696F82910154611B140F28110F0
S21400A98076BD88B3002086F86B0086F8290006F1AD
S21400A9902A01102003F06BF806F1AC0306F18C02D6
S21400A9A006F16C010020FFF7CEFE68B906F13A000A
S21400A9B0019006F12A030020009006F16C0206F1D1
S21400A9C06C01FFF7C5FC20B1FFF7A9FF40F293101A
S21400A9D076BD022086F82900012086F84A0020204D
S21400A9E0287006F12A0004E0FFF799FF002028707F
S21400A9F09EA02060002076BD10B500F014F800D0B0
S21400AA0017E0202901D009B116E009B9002006E0B8
S21400AA100146202204F14B00FCF7E4FB012084F8F9
S21400AA206B00002010BDDFF8C84894F82920022AE1
S21400AA30704740F2811010BD4FF4C07010BDDFF8B3
S21400AA40B01818B102280BD006D30DE0486A40F0C3
S21400AA500100486200207047486A40F00200F8E7AC
S21400AA60486A40F00400F4E74FF4C070704710B531
S21400AA700629044600D0DFE70322E11C01F022FE8F
S21400AA80E078010004BF2179002902D1617900290C
S21400AA90F2D0FF2804BF2079FF2804BF6079FF2882
S21400AAA0EAD0607900F07F0040F0400021466071F7
S21400AAB0BDE81040DFF8F00C2DE438B5DFF830487C
S21400AAC003202060002104F1280084F84A10417019
S21400AAD084F86B1000224FF0FF31E16000212182E4
S21400AAE0072121720021616203210170DFF8BC0C8E
S21400AAF0DFF8BC1CFDF772FE02F06BFD102104F1BE
S21400AB00120002F0EDFE48B9102204F11201FFF720
S21400AB108DFB102104F1120002F0DEFE04F1B805F0
S21400AB20284604F047FC03F0ECFC0146284604F0F7
S21400AB3076FC4FF4F2700444204604F0AFFC032188
S21400AB40204606F0B1FF03F0DCFC01462046BDE8D7
S21400AB50344006F0C1BF70B588B004460E461546B0
S21400AB60FFF77FFEDFF89C17884222D194F93C005D
S21400AB7010F1010F0FD1300A8DF801008DF800603A
S21400AB80082229460DF10200FCF72CFB0A22694632
S21400AB90042002F022FE10F1010F1ED0102303AA9B
S21400ABA0052102F045FEC0B103A92046FDF782FC50
S21400ABB01BE0002E01BF606B0168DFF8F82B9142A6
S21400ABC00BD100216A5C12B9491C0829FADB082956
S21400ABD003D14FF49C71014404E040F2062101F0D9
S21400ABE001F900212046FDF765FC08B070BD38B5B8
S21400ABF00446FEF764FF0500DFF8F406016818BF98
S21400AC00012503291EBF017C002945F0040594F8A0
S21400AC103010890701D569070DD590F824108907EB
S21400AC2005D490F82910012918BF45F00805407C86
S21400AC3040B1280706D42046BDE8344040F2033130
S21400AC40FFF71DB802210B20FFF7E8FD68B1417A37
S21400AC50014402464D742046E16841F00401E1607B
S21400AC600621BDE83840FDF7B5BE31BD0000000046
S21400AC7070B504460D4611210420FFF7CFFD0600EF
S21400AC8000D00BE070BD70B504460D4611210320C0
S21400AC90FFF7C4FD060000D000E070BD707A3044B7
S21400ACA0102229461130FCF79DFA32462046BDE8B0
S21400ACB070400621FDF78EBEF8B50446FEF7FFFE8F
S21400ACC0050004F1300610D096F90C0010F1010FC3
S21400ACD00DD104F1440002F0B3FC716810F1010FCD
S21400ACE0C1F86C0106D1002504E04FF0FF30716812
S21400ACF0C1F86C01FEF7F2FE30B12DB9207B0007DB
S21400AD0044D440F2053145E007210120FFF786FDD7
S21400AD10070008BF4FF4C1713CD0787ADFF8D02521
S21400AD20137838441030D0F80110090A43EA01219C
S21400AD30C0F8011092F82910012908D0022905D17F
S21400AD4092F86B3003B10123837001E0002181701B
S21400AD50290018BF0121C17092F82410890703D476
S21400AD6092F82910012903D1C17801F0F70102E019
S21400AD70C17841F00801C17040F20331537C6BB1D9
S21400AD80C3781B070AD4207B000703D50521FFF7ED
S21400AD901EFC01E001F026F80020F2BD137C13B97A
S21400ADA0237BDB0606D51268032A03D0C27842F05E
S21400ADB00402C2703278920702D5C2785207E9D5EB
S21400ADC010210171002D14BF0321002141718171F2
S21400ADD0072201467068801DFCF704FA3A4600F028
S21400ADE00AF90120F2BD2DE9F843804608F1340542
S21400ADF02868861DF07800F00D044046FEF75FFEDA
S21400AE0004F0FE07A0B1E00712D595F9080010F18E
S21400AE10010F03D02968C1F86C010AE008F144006C
S21400AE2002F00EFC296810F1010FC1F86C0100D188
S21400AE303C46DFF8BC7497F82400800705D497F8E2
S21400AE402900012801D0200702D404F0F70401E00D
S21400AE5044F00804387C08B144F0040497F829004C
S21400AE60002808F1170902BF3868032804F0FB041D
S21400AE7099F8190080070AD5600708D440F2033114
S21400AE8000F05CFF0321404600F08EF859E00721F1
S21400AE900220FFF7C3FC0028009055D0417A3A788C
S21400AEA0084400F11001D1F80100000A42EA00202F
S21400AEB0C1F8010097F82900012808D0022805D11A
S21400AEC097F86B2002B101228A7001E0002088709A
S21400AED0CC7010200871E00707D5707900F00300E9
S21400AEE04871B07900F0030001E0002048718871D5
S21400AEF02A68887982F859012A68487982F85801C0
S21400AF00072228680D30FCF76DF9E0071BD5286886
S21400AF1000F0C3FB17D499F8001001B10121406975
S21400AF20062308F1110200F059FF60B140F201510A
S21400AF3000F004FF0821404600F036F86846FCF7AB
S21400AF40F1FA002000E00098BDE8F28338B5044628
S21400AF50002208210020FCF7DCF9050018D00C20A0
S21400AF608DF80000012269462846FCF7B4FB606BAA
S21400AF7000F1540120222846FCF7ADFB606B00F17F
S21400AF80740120222846FCF7A6FB2A4600F033F878
S21400AF9031BD70B504460D4611210D20FFF73EFC6D
S21400AFA0060000D07AE670BD38B504460D4694F823
S21400AFB02E0001280CBF0FF26911DFF8FC1701F014
S21400AFC0F7FA02210520FFF729FC68B1417A01440F
S21400AFD002464D7400F00FF8ADB245F440712046BD
S21400AFE0BDE83440FEF74BBE31BD0000F00900203E
S21400AFF050580000524606212046FDF7EBBC70B5BF
S21400B000054605F134060020306005F11604607828
S21400B010010004D1062205F1110100200AE00128F2
S21400B02002BF207800F0C000C02806D1062205F135
S21400B0301101012002F0D1FB307296F9080010F1E0
S21400B040010F15D002F01EFC08210823705605F1EA
S21400B050400202F0EDFBF07B012803D1A07E40F019
S21400B060020004E0022803D1A07E40F00A00A07689
S21400B070002070BD70B504000D46164608D0FFF7D8
S21400B080F0FB0346324629462046BDE87040184786
S21400B09040F2811070BD80B511461A46FFF7EAFFF0
S21400B0A0401E8041C00F40B202BD02B54A7A11442C
S21400B0B051F8142F02F0FF02012A0DDB0A6802F095
S21400B0C0FF020F2A08DA0B68009A03F0FF0101F569
S21400B0D0A041491CFFF7CEFF6846FCF723FA01BDE6
S21400B0E0B1F5A04F09D190F82E1001294FF4A041D8
S21400B0F008BF00F015B800F0DBBF00F08CBF38B515
S21400B10045F21A0504462946FDF71CFB294620464B
S21400B11001B0BDE830404FF470230022FFF768B856
S21400B1202DE9F84300F079FB0FF2A526DFF8EC7B5B
S21400B130DFF8EC8B45F21A0900F09A80401E00F00A
S21400B14082800B3804D00B382CD0801F57D0BFE03D
S21400B150DFF8D00B0178490712D490F9041011F1EA
S21400B1607E0FA4BF491E017190F90400002805D582
S21400B170092100F036FD40F2093030E000F0AEF86C
S21400B180687A2844407D400703D5E06840F0100008
S21400B190E060E06840F00800E060E07FBDE8F24371
S21400B1A0FEF718BD2046FFF76AFB0028207B0BD170
S21400B1B0000702D500F014FD03E04FF4C17100F063
S21400B1C011FE4FF4C1700AE000070AD5FEF78BFCAB
S21400B1D038B194F93C102046FEF7BBFD0020BDE8D0
S21400B1E0F2832046FFF768FD0028F7D001F002FC46
S21400B1F041F020010160314601F0DAF9EEE7FEF792
S21400B20072FC00281CBF606B002806D0217B090753
S21400B21003D590F86011890602D540F28110DEE76A
S21400B220297819B9052100F0DCFCD7E74FF4B07196
S21400B2300844016841F0200101602046FFF73CFD0C
S21400B2400028CBD0D7E7224641462046FDF7C6FA6F
S21400B250224641463846FDF7C1FA2046FBF7A2FBD8
S21400B2604FF47023002249462046FEF7C1FFB5E79B
S21400B27049462046FDF766FAE06820F01800E060D0
S21400B280606B00281CBFD0F86C0110F1010F06D0CF
S21400B29094F93C1081421CBF40B202F03AFA2246B2
S21400B2A041462046FDF7ACFA224641463846FDF7B1
S21400B2B0A7FA2046FBF7CAFA606B00288ED09430B7
S21400B2C005F078FA606BFEF74AFF0020606385E7BA
S21400B2D02A462046BDE8F84300F09DBE4FF4A02362
S21400B2E000220121DFF8C404FEF782BF1C0B0020F9
S21400B2F03809002080580000A05800006058000060
S21400B3002DA20000B1C0000010B501F09AF902D0DD
S21400B310183A04D01BE000F07BFE002010BD086841
S21400B32010F1010F03D1012100F05BFCF5E701F0FD
S21400B33078F902D501F08CF902E004224FF49C73F0
S21400B34001F040FC0FF2110101F032F9E5E70A4680
S21400B3500146204668E300001CB500F0CBFB03D096
S21400B3601038012827D931E001F0E7FA15D501F0A9
S21400B370A6F9606B00F1A001019100F1D003D0F8AE
S21400B380341190F86421D14001F0010141F08001B0
S21400B390009101F0E7FA002016BD00200871012197
S21400B3A0606B009100F1A0034FF49C7100F1D00295
S21400B3B000F006FBEFE7606B00F1A0012046FFF708
S21400B3C062FC0FF2654101F0F3F8E4E72AE30000BF
S21400B3D02DE9F84F00F08EFB07D0C01E0DD01338B5
S21400B3E000F04981401E05D04BE100F011FE002020
S21400B3F0BDE8F28F40F28110FAE7507A104400F16F
S21400B400140704F13008F878D8F80490C00708D478
S21400B410FEF764FB28B1052100F0E3FB4FF4C07093
S21400B420E6E7DFF8785C3879297A884238BF062163
S21400B430F2D30722394609F10D00FBF7D3FE09F1D6
S21400B440040A02208AF8090004F10C0B9BF80B0092
S21400B450012818BF00208AF801009BF81200012876
S21400B46018BF00208AF8000038791028A8BF1020DE
S21400B47088F812004FF4AC7009EB0006F878C007A5
S21400B4800DD59AF80500C00709D578799AF80710FF
S21400B490084070709AF80810B879084001E000205B
S21400B4A070703070706910F1010F19D0D8F8040070
S21400B4B000F0F3F814D49BF80B1001B10121406999
S21400B4C0062304F1110200F089FC48B140F2015154
S21400B4D000F088FC9BF8000000079FD508219BE73A
S21400B4E095F811C0FA7814214FF49C70BCF1000F47
S21400B4F0484402F0080306D0002B69D09AF80530BD
S21400B5001B0702D464E0002B42D09AF805301B07D4
S21400B5103ED5B26842F00402B260727802F0FE02D3
S21400B5207270327802F0FE02327095F82930BA78DE
S21400B530022B12D0AAB9FA78520703D49AF805203B
S21400B540520717D5D7F80120DFF8543BD2B2052AA8
S21400B550A8BF032200F09AF80DE022B995F86B1008
S21400B56019B9022158E7012100E0002185F84A10A8
S21400B570042100E00021316131B398F8121010293F
S21400B58028DB98F8001041F0080188F800101BE04E
S21400B59095F82930012B04D1BB7813B10421316111
S21400B5A01BE0520703D49AF8052052070AD5D7F8AD
S21400B5B00120DFF8F03AD2B2052AA8BF032200F035
S21400B5C065F800E000213161297C19B1316909B9BB
S21400B5D0032121E73169042905D1102205F12A014A
S21400B5E0FBF700FE01E000F05EF8B068316921B9B3
S21400B5F020F00200B060002011E040F00200B060D1
S21400B60040070BD598F81200102807DB98F80000C2
S21400B61040F0080088F80000022000E0012088F8CA
S21400B6201300307A400704D5D8F8040000F099FFDC
S21400B630DDE63069DFF8701A0428F9D8DFE800F094
S21400B64016040A041600D2E600F0B2FF2046FEF703
S21400B65071FBCCE600F0ACFFE96811F1010F0CBFFE
S21400B660012200222046FEF72FFBC0E6DFF83C1A38
S21400B67000F09EFFBBE62046FFF768FC0FF23501A0
S21400B680F6E72046BDE8F84F00F0C5BC11FB02F116
S21400B69019442A6851F8221070474FF4AC710844D8
S21400B6A001788907704700210022002300278EC0FA
S21400B6B070470000F0B500F097FA83B00FF2A515BA
S21400B6C0DFF8D86908D0121F52D0093A08D0121FE6
S21400B6D053D0121F0DD05FE000F09AFC0020FEBD94
S21400B6E0417A084400F046FF00F04CFF00F051FF9E
S21400B6F0F4E7676BDFF8B019D7F868010528EDD8CE
S21400B700DFE800F016040A041B16E7E700F050FF17
S21400B7102046FEF70FFBE1E700F04AFFF16811F163
S21400B720010F0CBF012200222046FEF7CDFAD5E716
S21400B7300FF2950100F03CFFD0E796F86B0070B171
S21400B7404FF4A4703844019006F14B03002000909B
S21400B75007F1140207F1140101F008F9BEE7102200
S21400B76007F1D001FEF762FD00F028F82946E1E770
S21400B77000F06FF800F05CFFB0E7676B4FF4A47062
S21400B780102206F15B013844FDF7BAF818B104211F
S21400B79000F027FAA2E7E2E70246204603B0BDE83B
S21400B7A0F04000F038BC00004A09002034090020B0
S21400B7B043A80000DDCB0000B1C00000606B00F1C4
S21400B7C0D0012046FFF754BA38B500F026F802D06C
S21400B7D0001F07D01BE000F01BFC606B90F86001B8
S21400B7E0C00712D5606B90F86011C90706D4697A55
S21400B7F0294410221531B030FBF7F4FC606B00F0E2
S21400B8005EFFFFF7DBFF00F0D1FE002032BD2A46C8
S21400B8102046BDE8384000F0FEBB154604464FF40F
S21400B820A042881A7047000010B500F0DDF902D07B
S21400B830121F04D00AE000F0EBFB002010BD00F061
S21400B84008F8FFF7BBFF00F0B1FEF6E70246204619
S21400B850EAE0417A084400F11501606B1022B0302E
S21400B860FBF7C0BC70B500F0BFF986B004F1170551
S21400B87008D0521F0BD00B3A41D0521E4DD0521E4C
S21400B88073D082E000F0C4FB002006B070BD01F06B
S21400B89047F8C030FBF7A6FC4FF49A72606B024480
S21400B8A04FF4B27192F82C305B0701441DD54B68FB
S21400B8B0042B4CD0002B18BF052B0ED14FF4A471CF
S21400B8C0014401910021009100F1C00300F15402EF
S21400B8D000F1140101F04AF8D6E74FF4A4730344CC
S21400B8E00193126800F057F8EDE700200870002179
S21400B8F0606B009100F1C00200F05DF8C4E700F054
S21400B90063F818B1042100F06CF9BDE700F04AF8BE
S21400B9100FF2E12100F04CFEB6E700F055F80028E3
S21400B920F0D14FF4B0703044816803291CBF012960
S21400B93002290CD10179491C0171606B90F86411E1
S21400B940142904D000F0E4FFDFF86017E2E700F007
S21400B950FBFF2978039104F111010291E979019125
S21400B96004F1180100F0CEFF8EE7606B4FF4B07163
S21400B97008448068042802D9401F03D084E70FF2E9
S21400B980B101C7E70FF25501C4E70246204606B0EC
S21400B990BDE870403FE30978CA4002F0010141F07B
S21400B9A08001704796F86001800703D5687E40F0F6
S21400B9B00200687670474FF4A47143184FF49C71E8
S21400B9C001442046FEF761BC666B4FF4A47010225B
S21400B9D006F1B0013044FCF793BF00001CB500F040
S21400B9E089F804D014380FD0401F10D01AE000F0A9
S21400B9F00FFB01F005F800F1140200F15401204697
S21400BA00FEF7F8FD002016BD01F005F8FAE71078FD
S21400BA1018B90C2100F0E5F8F4E70FF2150100F074
S21400BA20C7FDEFE7204602B0BDE81040F3E2000095
S21400BA3070B500F05FF88EB002D013383DD048E005
S21400BA4009A81021656BFEF7CFFBD5F86801AE1D7F
S21400BA50042809D1DFF8441691F86B2022B1102291
S21400BA604B3100F044F80AE003281CBF01280228E6
S21400BA7005D14FF49A70284409A902680A604FF469
S21400BA808871D6F8010029440891C0B2E17D07917B
S21400BA9005F1C00304F11101069105F1D002A17F62
S21400BAA00591039004F1180100F017F829182046B4
S21400BAB0FEF72AFD00200EB070BD606B4FF4887153
S21400BAC001442046FFF765FA0FF2350100F070FDDD
S21400BAD0F0E7204600F09FFAEDE70491B078029078
S21400BAE0F078019009A800904FF48070704709A87C
S21400BAF0FBF778BB04464FF4A043C81A7047000013
S21400BB00F0B500F071F88DB004F1170504D00E3AC8
S21400BB1007D0521F48D05EE000F07AFA00200DB041
S21400BB20F0BD00F061FF4FF4907301F04AF809A8E9
S21400BB301021666BFEF758FBD6F86801042806F15C
S21400BB400D0709D1DFF8541591F84A2022B11022CA
S21400BB502A31FFF7CCFF0AE003281CBF0128022881
S21400BB6005D14FF49A70304409A902680A604FF470
S21400BB70A471D7F8010031440891C0B2E979079161
S21400BB8006F1D00304F11801069106F1C00201F097
S21400BB9012F80491B8780290F878FFF7A2FF3118EF
S21400BBA02046FEF7B1FCB9E7666B4FF4A470311877
S21400BBB04FF4907010223044FCF7A2FE18B10B210F
S21400BBC000F00FF8AAE7FFF7EDFE20460FF225017A
S21400BBD0FEF778FEA2E70246204600F01CFA9EE733
S21400BBE008212046FFF7E0B9044610464FF4A0436C
S21400BBF0CA1A70472DE9F04717464FF4A042804610
S21400BC00881A86B008F1300540F2015A3DD01B383C
S21400BC1040F07F802878DFF8E86CC0072FD56F6883
S21400BC204FF4AC703C182078002804BF60780028D9
S21400BC3007D00FF2953100F078F8002006B0BDE886
S21400BC40F087217A490707F10D0012D5797AC907DE
S21400BC500FD5C078C0070CD56069082308F14002EC
S21400BC6000F0ADF918B100F068F85046E6E701F0CC
S21400BC7043F800F059F84046FDF7EFFFDDE700F027
S21400BC8053F8394600F05AF8D7E76F684FF4AC70AF
S21400BC903C18207A40072AD50A2102A8BE1DFEF7C6
S21400BCA0A3FAF078C00707F10D0914D599F8030038
S21400BCB0C00710D54FF49C703A18606900F038F849
S21400BCC010B901F023F830B100F037F808214046EB
S21400BCD0FFF76AF9C9E76868BDF808204FF49C7159
S21400BCE043180DF10A014046FCF7BFFBA5E707F134
S21400BCF0C00007F1D80101F01EF801F012F800218B
S21400BD000022CDE9001268684FF49C71431869461A
S21400BD10E9E73A46404600F07EF98FE78C050020BA
S21400BD2097B000005C09002031464046FEF7CABDC9
S21400BD301023052140B201F03ABD51464046FDF7BA
S21400BD409EBF38B504460025002045F20703C91AF1
S21400BD5008D0491E18D0491E1BD0491E1DD0491EAA
S21400BD6033D007E01023521C0321606BD0F86C011F
S21400BD7000F034F850B340F20155294600F032F88E
S21400BD80FFF72EFF284632BD01250A23521C02214A
S21400BD90EBE71023521C0621E7E75178022539B954
S21400BDA01118897811B9401C0628F9DB062805D039
S21400BDB0517801B101210623921CD6E7E17D01B13D
S21400BDC00121062304F11102CFE70425606B90F8E9
S21400BDD05811A94380F85811002032BD40B201F036
S21400BDE0E6BC49462046FDF74ABF00002DE9F84F5D
S21400BDF004464FF4AC7194F82E20606B012A01447F
S21400BE001DD10A780125002A18D14E784FF4B27158
S21400BE10471806F002083878032840F2015900F265
S21400BE209680DFE800F0024E6580F00747D51121C6
S21400BE300620FEF7F3FC5FEA000A02D1B0E0002518
S21400BE40E3E700F0AFF810220BF1010100F03AFC36
S21400BE5004F13400807BC0F110015844401CFBF70D
S21400BE600FFEB86810230BF10102FFF762FFE0B97E
S21400BE70FFF7C0F80B210720FEF7D0FC5FEA000AA8
S21400BE80DCD000F08FF8B86840F43F40ABF8010013
S21400BE9008220BF1030100F015FCB8680A230BF129
S21400BEA001020421FFF79AFF38B1FFF79AFF2046F8
S21400BEB0BDE8F44F0821FFF777B8FFF79BF800F0CE
S21400BEC077F8B8F1000F11D011210820FEF7A6FC74
S21400BED05FEA000A64D09AF80900DFF8BC1C5044F8
S21400BEE010221130FBF77EF9FFF784F800F060F8B7
S21400BEF0B8F1000F15D008210920FEF78FFC5FEA85
S21400BF0000084DD098F809004044103000214170D8
S21400BF100622DFF8881C801CFBF764F94246FFF710
S21400BF206AF800F045F870070FD511210A20FEF7D1
S21400BF3075FC060034D0707A3044AB2210211130E4
S21400BF40FBF70CFD3246FFF756F800F031F83DB926
S21400BF50606B90F85801002804BF387804281FD179
S21400BF60B86800F029F810B1FFF73BFF0DE0606BF2
S21400BF70D0F86C0104F1340108724FF0FF30616BA9
S21400BF80C1F86C012046FDF768FE2046002DBDE88E
S21400BF90F44F14BFDFF868190FF21511FEF792BCC4
S21400BFA0BDE8F18F9AF80900504400F1100B704775
S21400BFB03878401C38707047082304F14002082186
S21400BFC040B201F0F4BB000010B500F0FBFE07D055
S21400BFD044F2F973D21A13D0D21F042A0AD914E0F5
S21400BFE000F0D9FE04D100F0E3FE2046FFF7FEFE87
S21400BFF0002010BD00F0D5FE0028F6D000F0E8BE08
S21400C00000F006F800F0CCFDEFE7024620460BE510
S21400C0102046FFF774B838B5044640F20320091AE4
S21400C02008D044F60360091A22D0113932D0C91E4E
S21400C03014D009E094F82E00012808D100224FF40D
S21400C040A0412046FFF76CF84FF4C27032BD0022C4
S21400C0504FF4A041204600F02BF8F5E7DFF86C1C03
S21400C06000F0A6FA40F28511FFF7BCFE002032BDB4
S21400C070507A104400F1140594F82E0001280CBFE5
S21400C080DFF87C180FF2290100F092FA687840F485
S21400C0904071E9E740F2811032BD00003809002007
S21400C0A024590000C058000009B3000059B300002E
S21400C0B02DE9F84F14464FF4A0420546DFF8106C01
S21400C0C0DFF810AC881A05F1300706F1280805F1EC
S21400C0D00C0945F21A0B00F0C081401E00F0AB813F
S21400C0E0401E0AD0153802D0801F4FD0E7E1284600
S21400C0F0FEF77DFD0020BDE8F28F96F8240040078D
S21400C10013D498F9000010F17E0FA4BF401E88F8E3
S21400C110000098F90000002805D5092100F0D4F9A0
S21400C12040F20930E7E7FFF7D9F82846FEF7A7FB05
S21400C13028B9082100F0C8F94FF4C070DBE778682A
S21400C1404FF4B0710144801D0A6842F010020A6084
S21400C1500722617A21441431FBF744F879680120FC
S21400C16088714FF47023002259462846FEF740F89F
S21400C17097F90C0010F1010F13D03878C00710D5CE
S21400C180D9F8000040F00400C9F80000786828B12B
S21400C190D0F86001C10601D580061CD540F281109A
S21400C1A0A9E7FDF7A0FC60B197F90C1011F1010F9B
S21400C1B003D199F800004007E8D42846FDF7C9FDEA
S21400C1C098E797F90C0010F1010FDFD03878C00718
S21400C1D0DCD40521AEE7FDF786FC48B199F80000EF
S21400C1E0400705D4207818B9052100F06DF981E7DD
S21400C1F0D9F8000020F00400C9F800004FF4B07031
S21400C2007C68204404F1040A016841F020010160C2
S21400C2109AF80600327A904238BF06218AD399F8F7
S21400C2200B10012918BF00218AF8001099F8121087
S21400C230012918BF002110288AF80110A8BF102075
S21400C240B8742846FEF7CFFD5FEA000B08BF4FF430
S21400C250C670A5D0FDF742FC80B19AF80500C0076D
S21400C26005D57868D0F86C0110F1010F06D10521CC
S21400C27000F02AF95846FBF79FF85DE74FF4AC70DC
S21400C28004EB0009717C142000299AF8051006D0EA
S21400C290090703D59AF80C10090702D47AE00907B3
S21400C2A03CD59AF80C10090738D5D9F8081041F093
S21400C2B00401C9F8081099F8011001F0FE0189F888
S21400C2C0011099F8001001F0FE0189F8001098F8A6
S21400C2D00110022914D09AF80410B9B99AF805107A
S21400C2E0490703D49AF80C10490749D5D4F8071023
S21400C2F03368DFF8E429C9B20529A8BF03213AE06C
S21400C3009AF8040020B996F86B0018B90221AFE736
S21400C310012000E0002086F84A0006E098F80110A8
S21400C320012917D19AF80410A1B10420C9F8100009
S21400C3305A4606212846FCF74DFBD9F810104FF454
S21400C3409C700429204427D1102206F12A01FAF70E
S21400C35049FF26E09AF80510490703D49AF80C100E
S21400C36049070DD5D4F807103368DFF87029C9B22D
S21400C3700529A8BF03215843104450F8210000E0C7
S21400C3800020C9F81000307C0028D1D0D9F8100061
S21400C3900028CDD103216BE70021002200230024D2
S21400C3A01EC0D9F810000028D9F8080005D120F0E2
S21400C3B00200C9F8080000200FE040F00200C9F8AB
S21400C3C00800400708D5B87C102805DB387840F010
S21400C3D008003870022000E00120F87499F8080080
S21400C3E0400705D50FF2E9012846FEF76BFA81E60D
S21400C3F0D9F810000FF2C1110428F8D8DFE800F0D1
S21400C40018041111180075E62846FEF75BFAF16865
S21400C41011F1010F0CBF012200222846FDF754FC43
S21400C42068E62846FEF74EFA2846FDF783FC61E6E6
S21400C4300FF29921D8E72A4651462846FCF7CEF94E
S21400C4402A465146DFF89808FCF7C8F92846FAF756
S21400C450A9FA2846FEF753FE4CE659462846FCF74E
S21400C46071F9D9F8000020F00400C9F800007868D7
S21400C47000281CBFD0F86C0110F1010F06D097F908
S21400C4800C1081421CBF40B201F043F92A465146C7
S21400C4902846FCF7B5F92A465146DFF84408FCF76B
S21400C4A0AFF9786838B1943004F084F97868FDF70D
S21400C4B056FE002078602846FAF7C8F91AE62246A3
S21400C4C02846BDE8F84FA6E52846FEF76DBD0000F5
S21400C4D038B5FFF70FFB06D00D3808D0083813D054
S21400C4E0401E0ED03CE0FFF793FD002032BD507A90
S21400C4F0104400F03FF800F045F8606B00F031F8AB
S21400C500F3E700F046F8F0E72046FEF71FFD606B05
S21400C5100FF2A501D0F868010528E6D8DFE800F09C
S21400C520180412121D18E0E700F042F8DFF8A00722
S21400C530C16811F1010F0CBF012200222046FDF751
S21400C540C3FBD2E700F034F82046FDF7F3FBCCE758
S21400C5500FF20D1100F02CF8C7E70FF2FD11F9E706
S21400C560F0E000F1940300F1740200F1540120465B
S21400C570FEF7E9B800F11405606B2022691C143040
S21400C580FAF730BE606B202205F121013430FAF74D
S21400C59029BE606B00F1E001009100F1940300F108
S21400C5A0340200F114012046FEF778B8DFF834179D
S21400C5B02046FEF787B9000010B500F042F804D018
S21400C5C0121F1ED0143A04D027E0FFF721FD0020EA
S21400C5D010BD086810F1010F03D10121FFF701FB20
S21400C5E0F5E700F01EF802D500F032F802E004226B
S21400C5F04FF49C7300F0E6FA0FF2D101FFF7D8FF74
S21400C600E5E7487A084400F11501606B1022A03077
S21400C610FAF7E8FD00F00CF8D9E70A46014620468E
S21400C620DEE1606B4FF4B072024413785B0770472C
S21400C630606B4FF4B0710844016841F0010101607D
S21400C64070470446084611464FF4A043C21A704786
S21400C650002010710422606B4FF49A73704700003C
S21400C6601CB5FFF747FA02D0113820D026E0606BE1
S21400C67000F1C00100F025F800F059F9032A1CBFAC
S21400C680012A022A0AD000F1B0010191002100918E
S21400C69000F1C00300F066F9002016BD00F1B002FC
S21400C6A001920978D0F83421FFF776F9EFE700F029
S21400C6B04DF80FF2A501FFF77BFFEDE78EE100F1E5
S21400C6C0D00110220020FDF7B1BD000038B5FFF7FD
S21400C6D0A4F80BD0001F10D00C3832D100F036F87A
S21400C6E00FF27501FFF764FF002032BDFFF790FCE4
S21400C6F0606B90F86001C007F6D5606B90F860112B
S21400C700C90706D4697A294410221531A030FAF7F1
S21400C71069FD606B4FF4B07108440178490748BF63
S21400C720DFF8C415DED4002101710121606B009191
S21400C73000F1B0034FF49C7100F1C002FFF740F91E
S21400C740D2E72A462046BDE8384064E4606B00F134
S21400C750B0012046FEF797BAF0B5FFF745FA87B066
S21400C76004F11705DFF8686509D0521F0CD00B3AA4
S21400C7704CD0521E5DD0521E00F09E80B8E0FFF7EF
S21400C78047FC002007B0F0BD00F0CAF8D030FAF73A
S21400C79029FD00F0D2F82FD58968042911D196F822
S21400C7A06B2072B14FF4A4710144019106F14B0362
S21400C7B00021009100F1140200F1140100F0D6F8F7
S21400C7C0DFE7042903D100F1C001FFF77AFF00F08C
S21400C7D0AEF8002A1CBF052A042A5AD04FF4A472C9
S21400C7E00244019200F1D003D0F83421FFF7D3F8C9
S21400C7F0009100F15402DFE7002008710021606B11
S21400C800009100F1D002FFF7D6F8BAE7676B4FF455
S21400C810A470102207F1A0013844FCF771F828BB79
S21400C82097F86001FFF7C0F80FF2B131FFF7C0FECE
S21400C830A7E74FF4B071676B39444FF4A47089686A
S21400C840042938440BD1102206F15B01FCF758F896
S21400C85060B9102207F1C001FDF7E8FC19E00146B7
S21400C860102207F1A000FCF74BF818B10421FFF7DF
S21400C870B8F986E707F1C001FEF7A3FF606B90F8F2
S21400C8806411491C80F86411606B90F864111429D7
S21400C8900DD100F059F8E979039104F118010291DD
S21400C8A02978019104F1110100F02CF869E700F0F5
S21400C8B02FF8DFF83814B9E7676B4FF4B0703844D8
S21400C8C0806800281CBF0528042803D107F1C00192
S21400C8D0FEF777FF606BD0F86801042802D9401F86
S21400C8E003D04EE70FF24911A0E70FF289019DE74A
S21400C8F00246204607B0BDE8F040FFF78CBB0000BC
S21400C90021B10000009100F1E0012046FDF766BD70
S21400C9104FF4B07108440168490849000160704747
S21400C920417A084400F11501606B10227047606B75
S21400C9304FF4B27101444A687047606B4FF4B071AF
S21400C94001440A7852077047606B4FF480710144C7
S21400C950059100F1C0034FF49C710144049100F16D
S21400C960D002704700F1140200F154012046FDF792
S21400C970EFBC00001CB5FFF737F906D00E3A1FD003
S21400C980921F0FD0521F10D026E0FFF741FB00F099
S21400C99037F800F1540200F114012046FDF72AFE94
S21400C9A0002016BD00F037F8FAE7007818B90C2119
S21400C9B0FFF717F9F4E70FF27901FFF7F9FDEFE754
S21400C9C000F012F84FF4887300F0FBF800F012F84D
S21400C9D041F008010160E3E74FEA0002204602B09A
S21400C9E0BDE81040FFF717BB417A084400F1150177
S21400C9F0606B7047606B4FF4B07108440168704715
S21400CA00606B4FF498710144019100F1D00300F17E
S21400CA10C00100917047606BB549D0F83001B44A48
S21400CA20B0FBF1F102FB11012046FDF737B900001B
S21400CA302DE9F04117464FF4A0420446881A8EB0FE
S21400CA4004F11705DFF8888204D00E3809D0401F9D
S21400CA5048D09CE0FFF7DCFA606B90F860010007B6
S21400CA603CD5606B90F86011090707D4797A394491
S21400CA704FF488731022153100F0A4F800F090F8F7
S21400CA80102109A8676BFDF7AFFBD7F86801BE1D3C
S21400CA90042808D198F84A1029B1102208F12A0172
S21400CAA0FFF725F805E003281CBF0128022800F040
S21400CAB08CF84FF4A47100F078F8E979079107F143
S21400CAC0C00304F11801069107F1D00200F073F8D4
S21400CAD0FFF703F839182046FDF716FD00200EB0C4
S21400CAE0BDE8F081606B4FF4B0714718397911B129
S21400CAF0012941D0F2E74FF4A47101444FF4887342
S21400CB0010221844FBF7FCFE18B10B21FFF769F85A
S21400CB10E4E73878FEF748FF10213879401C387172
S21400CB2009A8676BFDF760FBD7F86801042807F1D2
S21400CB300D0608D198F86B1029B1102208F14B01A8
S21400CB40FEF7D5FF05E003281CBF0128022800F0E9
S21400CB503CF84FF4907100F028F82978079107F117
S21400CB60D00304F11101069107F1C002E97905919D
S21400CB70039004F11801ABE74FF49071014420468E
S21400CB80FEF707FA0FF25501FFF712FDA6E73A4641
S21400CB902046FFF740FAA2E74A09002020080020B6
S21400CBA0616B002081F864017047D6F801003944B3
S21400CBB00891C0B2704729780591039004F11101DD
S21400CBC0704710221844FAF70DBB05D14FF49A703F
S21400CBD0384409A902680A60704700002DE9F04150
S21400CBE090464FF4A0420446881A04F1300540F2FD
S21400CBF0015637D01B3863D128783E4FC0072CD556
S21400CC0069684FF4AC7008440278002A04BF427882
S21400CC10002A06D00FF23911FFF7CAFC0020BDE843
S21400CC20F081037A5B0701F10D020FD5497AC90737
S21400CC300CD5D178C90709D54069FFF7BDF918B1F9
S21400CC403146FFF7CFF8E9E700F056F83946FFF728
S21400CC50AFFC2046FDF701F8E0E73946FFF7A8FCF1
S21400CC604146EEE769684FF4AC700844027A520712
S21400CC7019D501F109021378DB07CFD5D279D2078F
S21400CC80CCD54FF49C7240690A44FFF751F818B9A6
S21400CC9000F03CF80028C1D03146FFF7A3F8FEF7B5
S21400CCA09FFF3046BBE701F1C000D83100F043F8E3
S21400CCB000F037F8686800F1C001FEF782FDADE7C6
S21400CCC042462046BDE8F041FFF7A5B9E1B00000B6
S21400CCD03809002097B0000024590000C058000012
S21400CCE08C05002065B8000061C60000CDC60000B7
S21400CCF040420F00B1C000006868D0F86C01696857
S21400CD0028734FF0FF30C1F86C01704768684FF425
S21400CD109C714218D0F86C011023032140B200F039
S21400CD2046BDA87C6A68C0F1100110444FF49C729E
S21400CD301044FAF7A5BED0E90023C1E900236868CD
S21400CD404FF49C7142181146D030FDF775BA0000BA
S21400CD5010B500F037F807D044F2F973D21A12D0A3
S21400CD60D21F042A0AD913E000F015F804D100F007
S21400CD701FF82046FFF73AF8002010BD00F011F823
S21400CD800028F6D024E0FFF743F9FFF709FFF0E7A5
S21400CD900246204624E6636B0188B3F85C21914284
S21400CDA07047427A104400F114022046FEF7C9BFCD
S21400CDB00021A3F85C110822C11C4FF4A47018448B
S21400CDC0FAF710BA0446104640F60703CA1A704728
S21400CDD04FF4C67010BDFEE71938704738B50446E4
S21400CDE00D46002209210020FAF793FA58B181680F
S21400CDF041F006018160417A6A18D21C82720844AA
S21400CE0020F8104F857032BD10B5104CA08A20B1A6
S21400CE1004F12400FAF791FB28B904F12000BDE8DC
S21400CE201040FAF78ABB10BD80B50948FAF736FC01
S21400CE3008B10021016002BD10B504462146044831
S21400CE40FAF73FFC0020206010BD0000F00700202D
S21400CE501808002080B5494800682430FAF76DFBB2
S21400CE6058B18168C1F3800119B9BDE80240FBF7EB
S21400CE70BEB8BDE80240FFF7DFBF01BD80B5B2F126
S21400CE80011F03D1FFF7E6FF012002BD002002BD0F
S21400CE9010B5F9F7A4FE394C39492060FDF72AF998
S21400CEA02168062081F83C000420216881F83E00B5
S21400CEB00020216808622068F9F7D1FE206810BDBE
S21400CEC0F8B52E4C3FE0817A427A006871188E1AC7
S21400CED00028F8D1009880680099C0F3400720F039
S21400CEE00200886004210098FAF75DFB00904CF67B
S21400CEF0FF728068009920F0020040EA47008860D0
S21400CF000098417A084430F8101FC1F30D010180E3
S21400CF101140009A9268520802F0010282F0010263
S21400CF2041EA023101800099C9680288098C46806E
S21400CF3061F30B02028069462846F9F792FF10B1AA
S21400CF406846FAF7EFFAFFF75FFF009020B1206817
S21400CF50C56900980026BBE7F1BD00B9704780B5EB
S21400CF60FFF73AFF0090694604480068C069F9F781
S21400CF7078FF10B16846FAF7D5FA01BDB404002070
S21400CF807DCE0000002104E0827A8918427A00688B
S21400CF90891A0028F8D108467047417A08441030AC
S21400CFA0704710B50446A1F11800FFF7EBFFA18803
S21400CFB0081A01D5002010BD80B210BD70B50C4611
S21400CFC015461E46FFF7EDFFB04201D2002070BDA9
S21400CFD0F2B22946A4F11800FAF77DFB012070BDD5
S21400CFE038B504460A4608210020FAF792F90500EB
S21400CFF001D1002032BDFFF7D0FF00F027F8284609
S21400D00032BD80B5FFF7ECFF10B1BDE80240C4E7C3
S21400D01002BD70B5154604460A4682B01E46082173
S21400D0200020FAF776F9009078B1F2B22946FAF7BE
S21400D03052FBB04204D26846FAF774FA002076BD76
S21400D0400098FFF7AAFF00F001F876BD04F0FF0293
S21400D0500168090A42EA01210160704700B9704779
S21400D06080B5183800906846FAF75CFA01BD0A46A3
S21400D07000680421FBF7AEBC00291CBF1839FFF777
S21400D080F6BF4FF4C1707047DFF8A813086070470A
S21400D090DFF8A003006800B10120704738B50446E9
S21400D0A00D4603210220FFF7ACFF08B1A0F801509F
S21400D0B0ABE0F8B504460D4616461F46052101208E
S21400D0C0FFF79FFF38B1457046800771014620463E
S21400D0D0BDE8F440D0E7F1BD38B504460D4603215F
S21400D0E00320FFF78EFF00B18DE031BD70B500F074
S21400D0F01EF888BF16460A46334601210B20FFF766
S21400D10088FF00B91AE00CE070B500F010F888BF90
S21400D11016460A46334601210D20FFF77AFF00B96E
S21400D1200CE02E8001462046BDE87040A4E7044689
S21400D1301D46A088401E86B2964270474FF4C170C6
S21400D14070BD10B50446A088401E83B2934288BFC7
S21400D15013460A4601210F20FFF75BFF00B109E0E6
S21400D16010BD10B5044601211320FFF74AFF00B199
S21400D17000E010BD01462046BDE810407CE7F8B54B
S21400D18004460D46A0881646471F1846FFF7FAFEC7
S21400D190BFB2874205DA0099897AC91B4018009900
S21400D1A0887205210098FAF7FEF9010005D1684655
S21400D1B0FAF7B8F94FF4C170F2BD487A084450F84F
S21400D1C0102F120A120242F017020260A0F8015055
S21400D1D0A0F803602046FFF74AFFF2BD10B50446EC
S21400D1E001211920FFF70DFF00B1C3E710BD38B5C8
S21400D1F000F020F888BF1846034603211B20FFF7DF
S21400D20008FF00B906E0A0F8015001462046BDE838
S21400D210344031E74FF4C17032BD38B500F00AF83B
S21400D22088BF1846034603211D20FFF7F2FE00B90B
S21400D230F0E7E8E704460D46A088C11E88B298428B
S21400D24070472DE9F2415FEA000883B050D008002D
S21400D25051D0497A084400F11005286800F0FF060E
S21400D2600398FFF78FFE87B2002F41D071480268FF
S21400D270100005D0039940469047002840F0D4801F
S21400D2800398417A084400F110040398FFF77AFEE9
S21400D290216801F0FF01401E022980B249D004290E
S21400D2A040D006293BD008293ED00A2941D00C2977
S21400D2B038D00E292BD0102936D0122925D0162981
S21400D2C01ED018291AD01E2904D052291DD0D229C2
S21400D2D018D000E078B3F0070AD4522E1CBFD22E26
S21400D2E01E2E05D00423002231464046FFF7E1FEFD
S21400D2F003A8FAF717F94FF4C07096E0012816E075
S21400D30004280DE00E28E6DB15E0022808E00428D5
S21400D310E1DB00EBD0714908B0EB410007E00628DE
S21400D320D9D308E0042802E0062804D01428D2D175
S21400D33001E00228CFD1781F314602291AD00429ED
S21400D3402FD0062932D0082922D00A293AD00C2913
S21400D3503DD00E2940D0102911D0122942D01629CE
S21400D3604CD018294FD01E2952D0522940D0D2294D
S21400D37057D051E000F062F801F03DF951E0102876
S21400D3800CBF1023022300F05DF801F050F948E0CE
S21400D39010280CBF1023022300F054F801F0D8F92F
S21400D3A03FE000F049F801F069FA3AE0F81F80B271
S21400D3B00190E81D0090B5F8053000F03DF801F04A
S21400D3C0D3FA2EE000F03AF801F095FB29E000F0E1
S21400D3D033F801F095FB24E07A1E691C404601F004
S21400D3E093FB1EE0039A00F029F801F0F7FB1BE020
S21400D3F0039A00F023F801F021FC15E0039940465B
S21400D40001F047FC10E06978404601F0DEFC08E0D9
S21400D410404601F0EDFC04E0062300224046FFF7FC
S21400D42048FE03A8FAF77EF8002004B0BDE8F081B5
S21400D4300000000024050020B5F80320B5F8011010
S21400D44040467047681D0090B5F80320B5F80110F7
S21400D4504046704770B586B0FF242E4D02E06878CF
S21400D460401C687068780E2825DA00F0E6F86E78BA
S21400D4700121B1400842F2D0102302AA062170B260
S21400D48000F0D6F91028EAD106216846FCF7ACFE73
S21400D4900322691D0DF10300F9F7A4FE694602A8F0
S21400D4A0FCF739FF38B96E780322A91C6846FBF7EB
S21400D4B027FA40B9344600202870691D2046FBF73D
S21400D4C0A3FC06B070BD701C687000F01CF8002845
S21400D4D0F1D1F6E738B50F4D0446287808B100209C
S21400D4E032BD68700322E11C681DF9F77BFE03223B
S21400D4F02146A81CF9F776FE00F005F808B90120C9
S21400D5002870287832BD002240F20B110248FBF743
S21400D5105FB90000240900208C050020002804D4F0
S21400D520DFF8A8130A79904201DB002070470968EB
S21400D530012202FA00F0084018BF0120704730B5FB
S21400D54083B00024DFF884530EE02868E040C0076C
S21400D55009D508236A46082160B200F069F910B9B7
S21400D56060B200F0D6F8641C28798442EDD337BD4B
S21400D570DFF8581309680020002903E0CA0748BFEF
S21400D580401C4908FAD1704770B5040008BF012452
S21400D59002D00F2CA8BF0E242546680000F048F8DD
S21400D5A0CA4E087031798C4207D203E068B200F0A8
S21400D5B0B0F86D1C30798542F8DB34713246BDE830
S21400D5C0704001E0C14A50710C2143F6FF7000F034
S21400D5D0A5BF30B583B06A4601A943F6FF7000F0D8
S21400D5E0A2FFBA4C20B900990C2200F048F906E0D8
S21400D5F0002020600E20207100206071A0606A4626
S21400D60001A9382000F08FFFB14D28B900992022DB
S21400D6102846F9F7E7FD05E04FF0FF3220212846BF
S21400D62001F0F4FD2079400000F002F8087037BDE4
S21400D630032190FBF1F0A7497047A44800687047A3
S21400D6402DE9F04383B08046FFF792FF9F4DA04E32
S21400D6502979884229DB687901281DD100244FF0FA
S21400D660FF37A14613E0286820FA09F0C0070CD55A
S21400D67008236A4608214FFA89F000F0D9F820B14D
S21400D6800198B8423CBF07464C4609F10109287983
S21400D6908145E8D360B206E0022836D1491E7056AE
S21400D6A010F1010FFAD000F034F80027012000FA3C
S21400D6B007F42868204225D1204328602A46A86817
S21400D6C0401CA860C8F8000000F06CF840B128685C
S21400D6D0A0432860A868401EA860C8F8000014E0B0
S21400D6E0287903E0311811F8011C3154401EC0B2ED
S21400D6F00028F7D1377032462021382000F00EFF80
S21400D70078B204E07F1C0E2FD0DB4FF0FF30BDE870
S21400D710FE8370B510F1010F06466D4C6B4D0DD1B2
S21400D7204FF40041084600F005FF002028604FF047
S21400D730FF322021204601F069FD29E0FFF7EEFECA
S21400D74010B94FF4C97070BD300240F400404FF479
S21400D7507F4180B200F0EEFE28682A790121B140B0
S21400D760884328600021002005E0030002D06318EB
S21400D7705B786354491C531E994204DA6356B342DD
S21400D780F3D10120F3E7A1184FF0FF3001F8010CA8
S21400D7902A4600F007F822462021382000F0BEFE78
S21400D7A0002070BD0C2143F6FF7000F0B7BEF8B540
S21400D7B004460D4616461F46FFF7B0FE10B940F267
S21400D7C01220F2BD3246394645EA0420BDE8F8404C
S21400D7D040F4004080B200F0A1BE2DE9FC410446B2
S21400D7E00D4690460027394E30680121B940084260
S21400D7F017D044EA072040F400406A4601A980B2E8
S21400D80000F091FE002804BF9DF80400404508D1B2
S21400D810009830B142462946FBF772F808B978B24C
S21400D82004E07F1C0E2FDFDB4FF0FF30BDE8F681F3
S21400D830F0B583B006460F4614461D46FFF76EFE4B
S21400D84080B147EA062040F4004001AA694680B24B
S21400D85000F069FE30B99DF8000000281CBF019852
S21400D860002801D10020FEBD9DF800108D4288BF23
S21400D8700D4600F002F82846FEBD01462A46204620
S21400D880F9F7B0BC38B50021114A104B00E0491C2E
S21400D8901D79CCB2AC4203D2C9B254568442F6D1FA
S21400D8A00C4C2478CBB2A3420FD304E0531813F8E1
S21400D8B0013C5354491EC9B20029F7D110702021EB
S21400D8C0BDE83840382000F029BE31BD28050020CC
S21400D8D034050020761500200246372000F01EBED4
S21400D8E030B583B004460D4601AA6946372000F0DD
S21400D8F01AFE30B99DF8000000281CBF01980028C9
S21400D90001D100203EBD9DF800108D4288BF0D4617
S21400D910FFF7B3FF28463EBD1B4213D1094236D15E
S21400D9202AB18446B0FBF2F002FB10C2704704F046
S21400D930EFBCFCD30022002370470B00020000213E
S21400D94000207047904271EB030CF6D370B5B1FA25
S21400D95081F4B3FA83F52C1BA340C4F1200532FAF8
S21400D96005F63343A2405FF00046E64002E05B085F
S21400D9705FEA3202841A71EB030524BF204629466B
S21400D9807641F4D302000B003000002170BD012A5E
S21400D990CFD970B5140C20D0B1FA81F4B2FA82F562
S21400D9A0C4F120046419B4F12006D6D3B2405FF067
S21400D9B00044F440002502E052085FEA3303C61A2A
S21400D9C071EB020E24BF3046714664416D41F3D3BD
S21400D9D002000B002000290070BD0C46B1FBF2F1DE
S21400D9E002FB11452D0445EA1045B5FBF2F402FB97
S21400D9F0145580B240EA0545B5FBF2F002FB105222
S21400DA0040EA044070BDFEE73EB50446274D00F0F0
S21400DA1076FD8022294601F03CFC00F070FD05F101
S21400DA20100100910294019405F1100300221021C8
S21400DA3001F066FC0028EAD137BD30B589B004464F
S21400DA400D466846FFF7E0FF2A4669462046F9F786
S21400DA50C9FB6846FFF7D8FF04A8FFF7D5FF69465D
S21400DA603CC912483CC03CC93CC009B030BD70B58A
S21400DA7004000D4605E0F1B22846FFF7DEFF354408
S21400DA80A41B04D0112C2CBF10262646F3E770BD2D
S21400DA9010B5064C1021204604F063FE04F1100079
S21400DAA0BDE81040102104F05CBE00000005002018
S21400DAB070B50E4623490C68022810D1307871786C
S21400DAC040EA0120002500E06D1CA1688D421BDAAB
S21400DAD0E16831F815108142F6D1A8B270BD102861
S21400DAE012D1002500E06D1C206985420CDA6069C1
S21400DAF01022314600EB0510FAF702FF0028F2D19B
S21400DB0045F4004080B270BD4FF6FF7070BD03460E
S21400DB1008460C4909681A040AD50A69C3F30E03B5
S21400DB2093420EDA4969102201EB0311F9F75ABB4A
S21400DB308A68934205DAC96831F813300370190A07
S21400DB40417070472C090020DFF8FC1809680A6845
S21400DB500C23584310440C380088020401D50020DA
S21400DB607047C96831F810007047DFF8DC180860A5
S21400DB70408EDFF8D8180880704720B9DFF8C8084C
S21400DB800068008E7047DFF8C40800887047DFF82A
S21400DB90BC18088000207047DFF8B40801884FF6EC
S21400DBA0FE721140018070472DE9F041DFF8A05861
S21400DBB0DFF8A0882878C00748BFD8F800003BD414
S21400DBC0DFF88468DFF884783068021D04214FF09F
S21400DBD0FF3004F0A3FE002403E0022104F09EFEC2
S21400DBE0641C31684A68944207DA09683B880C224C
S21400DBF062430A4491881942EFD1002706E0C968BB
S21400DC0001EB4702022104F089FE7F1C31688A6816
S21400DC109742F4DB002705E04969CA19102104F091
S21400DC207DFE7F1C31680A699742F5DB298841F042
S21400DC3001012980C8F80000BDE8F08110B504464F
S21400DC4000F00DF848B100F0F6FBDFF8001830F8E9
S21400DC50080C0988084018BF0120C0B210BD01009A
S21400DC6007D0DFF8E41709684968814201DB012024
S21400DC70704700207047F8B5DFF8CC670446306878
S21400DC8000680C2500F018F8F879012802D1B86869
S21400DC900078F2BD641EA0B268B130680068A4B215
S21400DCA000F00AF82046FFF74FFF42F603018842CD
S21400DCB0F0D1B8688078F2BD05FB04F10844A0F105
S21400DCC00C077047DFF88017096809680C22504374
S21400DCD0084410F8050C072801D1012070470020E1
S21400DCE0704710B5044600F098F80DD0102304F1E4
S21400DCF038020B21FFF79CFD00F089F8BDE81040C4
S21400DD0004230C21FFF794BD10BD10B50446641C17
S21400DD10A0B2FFF793FFC0B1A0B2FFF715FF42F61F
S21400DD20021188420AD1DFF8200700680068A4B212
S21400DD300C216143084410F8020C10BDA0B2FFF796
S21400DD4003FF42F603018842E1D14FF0FF3010BDD9
S21400DD5038B1002905D44A1001EB92729210102AAD
S21400DD6001DB002070471044A1EB820190F83800D8
S21400DD704900C84000F00300704770B504000D4627
S21400DD8044D0002D42D4DFF8C00600688069854282
S21400DD903CDA681005EB907081100846102835DADA
S21400DDA02318A5EB8101490093F8383003268E40EE
S21400DDB0B3432618204486F8383002F0030606FAE5
S21400DDC001F1194380F838106AB142F6052000F0D8
S21400DDD049FBFFF79AFF80B2A84204D1FFF7E4FEA2
S21400DDE06063012500E0002500F017F80ED0102330
S21400DDF004F138020B21FFF7DAFC3DB100F007F81A
S21400DE00BDE8704004230C21FFF7D1BC70BD20682C
S21400DE1090F93C0004F134027047206890F93C0009
S21400DE2010F1010F704770B50D4604462E46761C5D
S21400DE30B0B2FFF703FFD8B1B0B2FFF785FE42F6E7
S21400DE40021188420DD1DFF8000600680068B6B2FD
S21400DE500C217143084410F8050C072808D103204C
S21400DE6070BDB0B2FFF770FE42F603018842DED105
S21400DE702846FFF74AFF10F1010F01D1002070BDC0
S21400DE8001462046BDE8704062E70000DFF8B8159E
S21400DE90096809680C22504308440C38C1790429E3
S21400DEA00DD8DFE801F00305060A0A00806802E0E4
S21400DEB007E08068406800887047022070470020AE
S21400DEC0704780684088704770B504460E46154611
S21400DED03046FFF7B3FE08B9012070BD00F0A3F985
S21400DEE0714308440C38E90724D54188CA0701D491
S21400DEF0022070BDCA0607D5226812F8303FDB073D
S21400DF0041D500F05EF84BD38A0605D500F05DF8E3
S21400DF102FD100F056F843D349060BD500F04BF846
S21400DF2031D592F90C1011F1010F33D0917C827922
S21400DF30914235D3A90702D58178890704D56907A8
S21400DF4004D58178490701D4032070BD06210D420F
S21400DF5028D04188CA0507D5226812F8303FDB076B
S21400DF6011D500F02EF81BD38A0507D500F02DF842
S21400DF7001D0052070BD00F024F811D3490511D555
S21400DF8000F019F801D40F2070BD92F90C1011F1B1
S21400DF90010F01D1082070BD917C8279914201D297
S21400DFA00C2070BD290504D54088000501D4062044
S21400DFB070BD002070BD216801F130021178C907DC
S21400DFC07047927C83799A427047226812F8303FF5
S21400DFD003F00303032B70472DE9FC470D46044668
S21400DFE02F88A8888DF802001646A888000A8DF8A3
S21400DFF0030098460DF102010220FFF759FD814605
S21400E00000E0574669883846884228D24A4600F0DB
S21400E010C1F9074618B369884A4600F0D4F9824623
S21400E0203846FFF70BFE0028EBD001AB6A463946B0
S21400E030204600F0BBF8019911B1378001980FE037
S21400E040BDF80010AA899142DBD10A46A968FAF702
S21400E05057FC0028D5D13780A8F800A000E00A2099
S21400E060BDE8F6872DE9F04F0546022985B0B8BF12
S21400E0700020C0F2948001200024ADF800008F1E1E
S21400E0800326A146DFF8D083DFF8BCA31FE098E89C
S21400E0900F000DF1040C8CE80F00BDF80000ADF881
S21400E0A004000DF10203DEF80400ADF806006A462F
S21400E0B0DEF8200000EB490000F074F828B9BDF83F
S21400E0C00000FFF7BBFD00B1A41C09F10109DAF856
S21400E0D000E0DEF824008145D9DBA742BCBF27F06C
S21400E0E00104022664B1601C28706E702246DAF8BD
S21400E0F00000016AA81CF9F775F82819851C3F1B53
S21400E100012000264FF00708ADF80000B146DFF802
S21400E1104CB31FE09BE80F000DF1040C8CE80F00D9
S21400E120BDF80000ADF804000DF10203DEF80400AF
S21400E130ADF806006A46DEF8280000EB091000F08D
S21400E14031F828B9BDF80000FFF778FD00B11036A9
S21400E15009F10109DAF800E0DEF82C008145D9DB88
S21400E160032FACBFB81E0020B04206DAC11000EB89
S21400E1701170001106014FF006080EB920460CE09B
S21400E180701C287085F801803246DAF80000816A33
S21400E190A81CF9F727F8A019801C04B1801C05B04C
S21400E1A0BDE8F08F039001A9002015E72DE9F041A6
S21400E1B01D4604461646002788462F60002C3780EA
S21400E1C0404612D1FFF74BFD98B100F02CF801FB4A
S21400E1D008F108440C38C17904291CD8DFE801F09E
S21400E1E0030C0F131A0080680BE0FFF727FD0028CA
S21400E1F0EBD10120286013E0806847680BE0806858
S21400E2004068871C07E0817A954F2046FFF7A0FDFF
S21400E210388000E08BA71FB14046FFF737FE3080FE
S21400E2203846BDE8F0818848006800680C217047D1
S21400E2302DE9F84304000D4682B01646284617D14D
S21400E240FFF70DFDC0B1DFF80082D8F800000068C7
S21400E2500C2169430844A0F10C07F87920B1042882
S21400E2600ED0072810D013E000F091F803208CE0C1
S21400E270FFF7E4FC0028E6D100F089F8012084E0EE
S21400E28000F085F8062080E000F081F880207CE031
S21400E2902846FFF7FBFDB04203DA00F078F80720C7
S21400E2A073E0F979029A022904BFB86840886AB117
S21400E2B01346002207E093F80AE0724493F809E058
S21400E2C01B68A2EB0E02002BF5D192B2931998426E
S21400E2D003DA00F05CF80D2057E001294FF0000942
S21400E2E004D00AD303292AD01ED306E0B8684068B3
S21400E2F0029900233044F9F7B6F8002C38D0F879A4
S21400E300032838D17D7A00F042F8B97A2046FFF724
S21400E3101FFD0346D8F80000C06930F8151001222A
S21400E320204600F054F92FE0B96849689019088033
S21400E3300023B868406802993044801CDBE70298E6
S21400E340417A827A0844521A10307AB1032A0DD2E2
S21400E3500178022A24BF407841EA0021387A00EA90
S21400E3600102B97A2046FFF708FDC6E74FF00D090F
S21400E37000F00DF808E002980090334694F830203C
S21400E3802946204600F000F94846BDE8FE8302A86C
S21400E390F9F7C8B830B52C4B1B685C688C4202DABB
S21400E3A0214600E0401C8CB285B2AC4209D31C6802
S21400E3B080B20C2545432C4434F80C4C9442F1D1E1
S21400E3C030BD002030BD70B51F4B1B68401C0C26AE
S21400E3D000E0401C84B28C4216D25D68A54280B232
S21400E3E012DB1D6874432C4434F80C4C2AB1022A04
S21400E3F001D002D3EDE7022C03D0002C18BF012C6D
S21400E400E7D1401E80B270BD4FF6FF7070BD10B5EC
S21400E4100C460028204607D1FFF721FC40B100F04B
S21400E4200AF830F80C0C10BDFFF708FC0028F6D1EF
S21400E4304FF6FF7010BD0448006800680C21614369
S21400E44008447047000000002C09002064150020D6
S21400E45066150020300900203058000040580000A3
S21400E4606815002080B58DF800006946000A8DF812
S21400E47001000220FFF71CFB02464FF6FF71012049
S21400E480FFF788FF02BDF8B5044642F60520FFF701
S21400E490E9FFFFF73AFC054629462046FFF758FCF9
S21400E4A0024604F138000021002300260027CAC0D7
S21400E4B029462046BDE8F8405FE4FEE7124A1170A0
S21400E4C012490870704738B50F4C207850B9104D77
S21400E4D0284604F03BFA0D480178284604F039FA3D
S21400E4E00120207031BD10B50A4C204600F0ACFE6D
S21400E4F0064801782046BDE8104000F0BDBE05483D
S21400E50070470248007870477D1500207E15002071
S21400E510D00700209C060020FFF7A9BA13460A463B
S21400E520002104F016BB80B513460A46694604F07F
S21400E53026FC02BD04F0CDBA020003D0814292410F
S21400E540D20F00E0012210467047F8B500F028F818
S21400E55000B938E000F02BF840F203711DE038B542
S21400E56004460D460820FBF7DEFD60B12168C97F32
S21400E57001704560024604F10C00BDE8384040F2E8
S21400E5800571FAF725B931BDF8B500F009F800B9FC
S21400E59019E000F00CF840F20171FAF719F9F1BD34
S21400E5A004460D4616461F460C20FBF7BCBD2168E8
S21400E5B0C97F017045800671C78002460699816052
S21400E5C004F10C00704706A8F8F7ACFFF1BDF8B5EB
S21400E5D004460D4616461F460820FBF7A4FD48B124
S21400E5E000F081FA04F10C00BDE8F84040F2047136
S21400E5F0FAF7EEB8F1BD70B5DFF8746A0D463188EB
S21400E6000446FEF769FD3088A84238BF0546182D37
S21400E610B8BF1725A580FEF73BFD38B9182D05DBDA
S21400E620A1882046BDE87040FBF741BC70BD2DE9CF
S21400E630F04F80468946934685B01F465946484661
S21400E640FFF77AFF08B101237CE00E993846FFF702
S21400E6502FFA0228ADF802000ED802211120FEF78C
S21400E660BFFC01904FF0FF36B8F80400801E039000
S21400E6704C4603A8078802E0102363E02C46A1B2AC
S21400E6808B4559D3BDF802205946A0B2FFF782FE4B
S21400E6900028044650D0BDF802205946FFF793FEE6
S21400E6A005462046FFF7CAFA0028E7D00020ADF856
S21400E6B0000004AB6A4621464046FFF777FD8246D7
S21400E6C00398BDF80010001F884203DA0398001F65
S21400E6D0ADF80000002EBDF800000BD4B04202D109
S21400E6E0001D87420BDA01994A7A1144301D00F06A
S21400E6F0BDF8C0E00646381F8642C8BF0646200A58
S21400E7008DF809008DF80840280A8DF80B008DF862
S21400E7100A500422019802A9F8F7DDFF0198F2B228
S21400E7205146F8F7D8FFB81B071F4FF6FF70854213
S21400E730BFB218BF6C1CA2D116F1010FD3D100F0E6
S21400E7407AFA0A234A4610214046FEF7B2FCD0E782
S21400E7502DE9F04F80460D46914685B01C46494649
S21400E7602846FFF7E9FE08B1012333E00E9920465C
S21400E770FFF79EF9834602210920FEF731FC01903F
S21400E7804FF0FF37B8F80400ADF80C50841EA4B262
S21400E790264600E06D1CA9B289455ED35A46494616
S21400E7A0A8B2FFF7F7FD050057D0FFF747FA002895
S21400E7B0F0D0012229464046FFF786FB029018B1AA
S21400E7C000F039FA029B05E000F060FA40B100F074
S21400E7D032FA80232A4608214046FEF76AFC1FE0EC
S21400E7E0ADF8000002AB6A4629464046FFF7DEFC5D
S21400E7F08246BDF800102046884288BF0846ADF81D
S21400E8000000002FBDF800000BD4B84202D1801CD7
S21400E81086420BDA01994A7A1144B81C00F026F8B1
S21400E82029E00746B01E8742C8BF0746280A8DF86B
S21400E83003008DF80250022201980DF10201F8F74C
S21400E8404AFF0198FAB25146F8F745FFF01B861EBC
S21400E8504FF6FF708542B6B29CD117F1010FD9D1A1
S21400E86000F0E9F9BDF80C200A23B4E748744046E6
S21400E8700199FEF7FCBB05B0BDE8F08F2DE9FC471B
S21400E88004460F4688B011463846FFF755FE10B1CD
S21400E89001233A4652E002210520FEF7A1FB009034
S21400E8A04FF6FF78A088ADF80470851EADB2C1465D
S21400E8B000E07F1CBDF82000B9B2884236D320465F
S21400E8C0FFF7A5FD8246C24530D04FF40062B9B2CC
S21400E8D02046FFF7F9FA0028EBD15FEA0A404CBF62
S21400E8E010260226C14509D00AF4004009F400416A
S21400E8F088421BD1B01C854201DA17E0D1463804A5
S21400E900000E8DF809008DF808700DF10A015046CA
S21400E910FFF7FDF8B21C0098D2B202A9F8F7DBFEAA
S21400E920A81BBFB2851E4745ADB2C2D1C1450AD1AC
S21400E9306846F8F7F7FDBDF804200A2304212046B0
S21400E940FEF7B7FB0DE00098417A084400F110018D
S21400E9505FEA09404CBF0220012048702046FEF7BF
S21400E9608BFB0AB0BDE8F0872DE9F84F0546DFF8C7
S21400E9700407006886B0904601908946414648469E
S21400E980FFF7DAFD0A27CA46002608B101273EE04F
S21400E99001210720FEF735FB5FEA000B47D1112760
S21400E9A035E0BDF80200ADF804000423BDF8000011
S21400E9B0ADF8060001AA59462846FEF7FFFABDF84C
S21400E9C000A00126C2452BD259462846FEF7E9FA92
S21400E9D0042825D3BDF81800ADF80C00ADF808A043
S21400E9E0ADF80A80ADF814406B46109804900DF10F
S21400E9F0020202A92846FFF7EFFA07460A2F0FD0B1
S21400EA00002FCED0BDF802905846FEF727FB3B46B7
S21400EA104A4606212846FEF74CFB07B0BDE8F08FB5
S21400EA20002EF1D059462846FEF726FBF5E7119C46
S21400EA30C8E738B50C4611461A4690F83050002301
S21400EA4080F83030049B2BB122462946FEF731FB76
S21400EA50002032BDADF800300C2D6B4602D1FEF71B
S21400EA6053FB01E0FEF742FBBDF8000032BDFEB5E9
S21400EA701746002604460D46ADF804600122FFF74F
S21400EA8023FA029028BB00F001F970B194F83060C8
S21400EA900820FBF748FB28B300F025F840F2027187
S21400EAA004F10C00F9F794FEF7BD02AB01AA294663
S21400EAB02046FFF77BFB0646029850B9BDF80400D7
S21400EAC0B84202D20720029003E0C01B3E44ADF8D5
S21400EAD0040032460298BDF80430009029462046CD
S21400EAE0FFF7A7FFF7BD2168C97F01704580067153
S21400EAF0C780024670470A2280F830200022B6E718
S21400EB000C2380F83030B2E72DE9F04F824683B010
S21400EB10BAF80400461E0C461746304604F014FAAF
S21400EB2000258346D8460095A9462FB107EBD77037
S21400EB304010B7EB40000CD004200090009B4A46E3
S21400EB400E215046FEF7B5FA584604F006FABDE820
S21400EB50F78F607814F8021B41EA00290122494623
S21400EB605046BF1EFFF7B0F900280090E6D1484691
S21400EB70FFF7A8F808B18020DFE76B4601AA4946F0
S21400EB805046FFF713FB00990029D7D1BDF80420A3
S21400EB90711B9142B8BFADF80410BDF804200146C1
S21400EBA04046F8F71FFBBDF804004519002F8044C7
S21400EBB0CFD1AAB259465046FEF7C3FAC4E780B58D
S21400EBC0002380F830302AB113460A461221FEF799
S21400EBD070FA01E0FEF7C5FA002002BD76B50446DD
S21400EBE0122084F830000D4602222046FFF76CF90A
S21400EBF0060002D000F01FF812E001980199407A52
S21400EC00C01C487200F042F830B101980090002312
S21400EC10122200F038F873BD019B00F007F8064694
S21400EC20324629462046FFF7CAFF73BD0022294612
S21400EC302046FFF7FDBA01A8F8F774BC34B582B0D9
S21400EC4004460D460422FFF73FF918B102A8F8F76C
S21400EC5069FC37BD02980299407AC01C487252205F
S21400EC6084F8300000F012F830B1029800900023CB
S21400EC70522200F008F837BD029BFFF7D7FF0020AE
S21400EC8084F8300037BD294620465EE42846FFF764
S21400EC9019B8F2B504460846497A00F08FF82846B7
S21400ECA0FEF7CCFF98B901276846F8F73BFC00F062
S21400ECB081F83B462A4616212046FEF7FAF9092F28
S21400ECC004D140F209412046FFF749FCF1BD02227B
S21400ECD029462046FFF7F8F80700E5D100980027F8
S21400ECE001E000687F1C0028FBD10120F8F7A7FE92
S21400ECF0FFB2B91D814204DA00980121F8F725FB1E
S21400ED0008B90927D0E7014604F14800F8F7D9FC0E
S21400ED1000980099407A401D48723246009B29466A
S21400ED202046FEF72CFAF1BD7CB5044600200D46C1
S21400ED301646019026BB04F14800F8F7FEFB01904A
S21400ED40F0B1417A00F03AF8FFF7A0FF00280198EA
S21400ED50407A09D00199401D4872334601980090C8
S21400ED601822FFF790FF23E00199401D48723246B3
S21400ED70019BFFF75CFF06460020002E0190DAD0CC
S21400ED80FFF759FF00F016F8002084F8300046B16F
S21400ED9033462A4618212046FEF78BF906F5806191
S21400EDA003E02046FEF71AFA00212046FFF7D7FBBD
S21400EDB0002076BD04F14800F8F7B4BB08441030D4
S21400EDC0B0F80150B0F80360704710B5044631B98A
S21400EDD0FFF7F0FF2046BDE81040FEF7FFB9182009
S21400EDE084F8300000222046BDE8104000219BE752
S21400EDF038B50446658E280020D042F60520FFF779
S21400EE0031FBA8420BD1FEF7CFFE606304232068D7
S21400EE1090F93C0004F134020C21FEF7C8FC40F2E5
S21400EE200A612046FBF761F800F009F80346022263
S21400EE3029462046FFF7CBFB0020608631BD2946D9
S21400EE402046FEF7F0BF2DE9F04104460D46164673
S21400EE5098462846FEF70FFF0746FFF7F0FFF9062D
S21400EE6009D5C10707D54346324629462046FEF750
S21400EE70BEF998B113E0B90613D5800711D5608E98
S21400EE8078B94346324629462046FEF7C6F930B9D9
S21400EE90658640F20A612046FBF71EF80020BDE8B2
S21400EEA0F08140F28110FAE72DE9F84304460D465A
S21400EEB090469946002600272CB1207D012808BFE1
S21400EEC040F2031029D02846FEF7D5FE302108422E
S21400EED008BF4FF4C07020D044B90126002002E0DD
S21400EEE000B901272046FBF74FF8044674B1207D91
S21400EEF0012809D04B46424629462046FFF7A3FF85
S21400EF00002EEDD110B108E0002EEBD187F0010005
S21400EF10064214BF40F281100020BDE8F2832DE9BE
S21400EF20F843054605F114070024387801280E46F4
S21400EF309146984608BF40F203101AD03046FEF7B6
S21400EF40C1FE10B94FF4C07013E0387F0A2818BF0E
S21400EF500C280BD10898009043464A46314628466E
S21400EF60FFF767FD099919B1088001E040F28114A6
S21400EF702046BDE8F2832DE9F041044604F114066C
S21400EF800027307801280D46904608BF40F203104F
S21400EF901FD0FFF77BFE10B94FF4C07019E0307F2A
S21400EFA0122804D018280AD0522806D00EE042466E
S21400EFB029462046FFF703FE06E0377708E042467C
S21400EFC029462046FFF7B0FE074601E040F28117CB
S21400EFD03846BDE8F0812DE9FC41044642F605209E
S21400EFE0FFF740FA054624480088ADF802000DF108
S21400EFF002010220FEF75CFD0126074624E001AB75
S21400F0006A4631462046FFF7D1F8019901291AD001
S21400F010BDF80010032916DB4178807851EA0028F5
S21400F02011D0A84504D14146204600F027F850B933
S21400F0304146FFF705FF010005D003460122414681
S21400F0402046FFF7C4FA761CB0B2FEF708FE60B1A1
S21400F050B0B2FEF7F3FD0028F5D03A464FF6FF7142
S21400F060B0B2FFF797F90600C9D1BDE8F3810000FA
S21400F070FC0100202C5800004A700000F8B5074636
S21400F0800025002F0CBF012600260120ADF8000049
S21400F0900C464FF6FF70ADF802001EB13846FAF780
S21400F0A073FF0746BFB1FEF77FFD796B884210D02D
S21400F0B03846FFF7E8F921463846FEF7B4FE022840
S21400F0C007D104236A4621463846FFF7BCFE00B93E
S21400F0D06D1C002EE2D1E8B2F2BDFEE770B5054623
S21400F0E005F10F00C408AFF30080E400A54232D259
S21400F0F0082C04D2082402E0083000F047F8224822
S21400F100026811000CD1011D0A6802B31368A342FD
S21400F11038BF111DF8D310E01D68A5420DD2191D89
S21400F1200B68002BF8D11268011D00E0191D0B6852
S21400F13093420CD01D68A542F8D361B10D682A68C9
S21400F140A2F10803A3420AD26A680A600FE003F03D
S21400F15007FF0028D0D1AFF30080002070BD2B1928
S21400F1600B60121B6E685E600B681A602C60096884
S21400F17000291DBF4A68002A091D00210160AFF35F
S21400F180008005F1080070BD0815002000B9704722
S21400F19038B5A0F108042068082833D310F0070F0C
S21400F1A030D1AFF300801848416809B18C4203D2D1
S21400F1B06160446017E019464B680BB1A342FAD36E
S21400F1C00B68CD18AC421BD3A54204D12268D218D6
S21400F1D00A600C4607E04A681AB1236823449A423C
S21400F1E00ED362604C60616851B12268A3188B42EE
S21400F1F006D10023036008688018206048686060B5
S21400F200AFF3008031BD00000815002062F30F2226
S21400F21062F31F4200B500BF1300964694461039AD
S21400F22028BFA0E80C50FAD85FEA417C28BF0CC083
S21400F23048BF40F8042BC90728BF20F8022B48BF58
S21400F24000F8012B00BDFEE710B504464FF49A7196
S21400F250FAF7CAFF204603F099FE0021204603F085
S21400F260B6FE0021204600F011F82046BDE810400A
S21400F2700022002103F0ADBE002908BF03F0DFBF67
S21400F2800148704700000000045000F1C1600020F3
S21400F290704780B5802A18BFB2F5807F02D06FF025
S21400F2A01F0002BDC0F810214FF48A73D20818441C
S21400F2B0F7F798FF002002BD30B583B00C46D0F8B3
S21400F2C0105119464FF48A73802D034403D0B5F5C8
S21400F2D0807F09D011E0012C009318BF0024019410
S21400F2E0102304F042F83EBD012C009318BF002402
S21400F2F00194102304F049F83EBD6FF01F003EBD98
S21400F3002DE9FE4F1400DDF834B0DDF83880814674
S21400F3108A461E4603D0276817B10C9D30E00027AA
S21400F3201AF00F0FF9D1D9F810114FF48A7080290E
S21400F330484403D0B1F5807F2AD02EE000F031F8A3
S21400F34004F000F82BE097B92B46324601214846D8
S21400F350FFF7B2FF10203118321811F8011C491CB3
S21400F36002F8011CC9B211B9401E0128F3DA1BF8D5
S21400F370010BE95D484008F8010B781C00F00F0708
S21400F3805FEA0A00A0F1010ADDD144B1276006E079
S21400F39000F007F803F0DCFF01E06FF01F00BDE8A7
S21400F3A0FE8F002102910090019653465A46414630
S21400F3B04846704710B504464FF49671FAF714FFA6
S21400F3C0204603F0E3FD0021204603F000FE002166
S21400F3D0204600F02AF82046BDE810400022002112
S21400F3E003F0F7BD10B50229144616D1802B05D0C0
S21400F3F0C02B18BFB3F5807F0CD00EE08021C0F87C
S21400F40008114FF48673102221461844F7F7EAFED7
S21400F410002010BD6FF01F0010BD0B4810BD002966
S21400F42008BF03F00CBF08487047C1600020704753
S21400F4301FB5012400F00CF818B10449884208BF33
S21400F440014804B010BD0000015F00F1045000F157
S21400F450019303941023069C0093A4B24FF4867382
S21400F4600294034404F092B9016B09B90020704776
S21400F470C06B08B9022070470120704710B5040021
S21400F4800BD001F090F904F10C0001F08CF904F1B6
S21400F4901800BDE8104001F086B910BD00281CBF5A
S21400F4A04FF4BA71FAF7A0BE704710B504000BD03F
S21400F4B001F080F904F10C0001F07CF904F1180069
S21400F4C0BDE8104001F076B910BD38B504002CD068
S21400F4D0206E012812D0201D01F06CF904F11000F6
S21400F4E001F068F904F11C0001F064F904F1280049
S21400F4F0FFF7DBFF04F14C0001F05CF9606F68B1C8
S21400F500002505E0242169430844FFF7CEFF6D1C63
S21400F510A16F606F8D42F5D3FAF721FE2046BDE855
S21400F52034404FF4BA71F8F7ABBA31BD38B504467B
S21400F5300D4601F0A2F970B905F10C0104F10C00BA
S21400F54001F09BF938B905F1180104F11800BDE87F
S21400F550344001F092B932BD10B50446012101F0E5
S21400F560E4F960B9012104F10C0001F0DEF930B9CC
S21400F57004F11800BDE81040002101F0D6B910BD16
S21400F58080B50021183001F07CFB401E8041C00F82
S21400F59002BD70B50D460446686E30B92A1D214678
S21400F5A02046BDE8704001F0F0BF2068002804D572
S21400F5B00021204601F065FB30B9204601F0F9F93C
S21400F5C0A96D4900814200D223E0696E2046884733
S21400F5D006001CD1206800280CD50021204601F02A
S21400F5E050FB38B12A1D2146204601F01AFC0600C1
S21400F5F0F0D00CE0291D204601F0FBFA002806D4C6
S21400F6002A1D2146204601F0C7FB0600F2D03046F0
S21400F61070BDDFF8680970BD000070B504460D4681
S21400F62086B0002105F1180001F02BFB002847D01A
S21400F630204602F05DFA20B12946204602F0C1FCC1
S21400F6403EE000F0B8FC00F0F6FA221D05F11801C5
S21400F65003A802F06DF806002DD103AA03A900F056
S21400F660E7FA060027D100F0ECFA060023D16A4636
S21400F6702946284601F081FD06001CD12146284671
S21400F680FFF787FF060016D16A4600F030FD060039
S21400F69011D100F032FD06000DD100F027FD060066
S21400F6A009D100F02AFD060005D1012105F1180058
S21400F6B001F03BF9064600F07BFC00F0B2FA30465B
S21400F6C006B070BD2DE9F04F1646022E89B00446EE
S21400F6D00D4603D22968FFF7A0FFDFE002F008FA24
S21400F6E020B100F079FC02F0BFFCD7E00C213046D8
S21400F6F0FAF733FD5FEA000908BFDFF8C40CF4D060
S21400F70000F059FC00F097FA06A801F04CF82868BB
S21400F71000F11801484601F0B0F85FEA000A4FF021
S21400F7200C0832D1012717E008FB07F009EB000BA5
S21400F73055F8270000F11802ABF10C01584601F00D
S21400F7401CFD5FEA000A20D121465846FFF721FF3C
S21400F7505FEA000A19D17F1CB742E5D308FB06F022
S21400F7604844A0F10C01221D03A801F0E1FF5FEA66
S21400F770000A0AD1771E00E07F1E3FB903A968463B
S21400F78001F07BF85FEA000A1FD072E008FB07F082
S21400F7904844A0F10C0203A900F04AFA5FEA000A06
S21400F7A067D100F04EFA5FEA000A62D155F82700EA
S21400F7B000F1180203A900F003FC5FEA000A58D122
S21400F7C000F012FC5FEA000A53D16A46694600F070
S21400F7D00DFA5FEA000A4CD100F030FA5FEA000A40
S21400F7E047D155F8271006AA084601F0C6FC5FEA7E
S21400F7F0000A3ED155F827002146FFF7CAFE5FEA09
S21400F800000A36D155F8270000F10C0106AA0C3084
S21400F81001F0B3FC5FEA000A2BD100F042F85FEA81
S21400F820000A26D155F8270000F10C016A460C3074
S21400F83001F0A3FC5FEA000A1BD100F032F85FEA91
S21400F840000A16D1A16855F8270000F0E6FF5FEA27
S21400F850000A0ED155F82700A1680C3000F0DDFF35
S21400F860824630B955F82700183000F0A3FF002F65
S21400F87082D100F09DFB00F0D4F906A800F09AFFB4
S21400F880002405E008FB04F0484400F093FF641CE5
S21400F890B442F7D34846FAF762FC504609B0BDE8D2
S21400F8A0F08F55F8270021460C3072E670B584B00C
S21400F8B000F09EFB00F0BFF905F10C02211D00F0E0
S21400F8C0ADF904000BD100F0D3FE00B1012000EA30
S21400F8D00602694605F10C0000F0F3FF044600F04E
S21400F8E0A0F9204604B070BDF0B58DB000F080FBE6
S21400F8F002F0FEF820B100F06FFB02F0AAF96AE110
S21400F90009A800F050FF00F096F900F054FB06A896
S21400F91000F049FFA069002834D100F085F90700FF
S21400F92011D100F08EF907000DD16A46314600F07D
S21400F9303CFB070007D100F050F9002804D400F083
S21400F94067F90700F7D03BE16A46314600F019FB3D
S21400F9500700F8D10698002807D500F038FB20B13C
S21400F96000F012FB0700F5D02AE106AA03A900F072
S21400F9705FF90700F8D100F064F90700F4D100F051
S21400F98030F93FE03246314600F052F90700EBD13D
S21400F99000F057F907000DD100F023F9070009D150
S21400F9A0211D09A801F025F9002804D400F02BF940
S21400F9B00700F5D004E1002104F1100001F061F920
S21400F9C000282CD000F030F90700F3D100F039F908
S21400F9D00700EFD100F0F2FA0700EBD100F004FBCD
S21400F9E00700E7D104F1100203A900F021F907008F
S21400F9F014D100F026F9070010D16A4609A909A813
S21400FA0001F00FFA070009D1211D09A801F0F1F84D
S21400FA10002804D400F0F7F80700F5D0D0E006F18F
S21400FA200C0206F10C0100F0CBFA0700F6D100F04C
S21400FA30DBFA0700F2D1012103A801F032F8070033
S21400FA4007D100F0CAF8002804D400F0E1F8070057
S21400FA50F7D0B5E003AA314600F0EAF80700F8D17F
S21400FA6000F0EFF80700F4D10121684601F019F81C
S21400FA70070007D100F036FB002804D400F08EFA09
S21400FA800700F7D09CE003AA03A900F0AFF8070030
S21400FA90F8D100F0D3F80700F4D1012106A801F050
S21400FAA000F8070009D1211D06A801F0A2F80028D9
S21400FAB004D400F0A3F80700F5D081E009AA09A94C
S21400FAC000F07EFA07007BD100F08EFA070077D1AF
S21400FAD000F08FF8070073D10398002807D500F0D0
S21400FAE072FA20B100F05FFA0700F5D068E000F087
S21400FAF080F8070064D10398002807D500F063FA61
S21400FB0020B100F050FA0700F5D059E003AA00F043
S21400FB1084F8070054D10098002807D500F060FA52
S21400FB2020B100F036FA0700F5D049E009AA694688
S21400FB3000F07EF8070043D100F083F807003FD1BD
S21400FB4006AA00F06AF807003AD10098002807D500
S21400FB5000F046FA20B100F01CFA0700F5D02FE0BE
S21400FB6006F1180206F10C0100F040F8070027D154
S21400FB7000F064F8070023D1012106A800F091FFE9
S21400FB8007001DD1211D06A801F033F8002804D473
S21400FB9000F034F80700F5D012E003A9284600F07C
S21400FBA06CFE07000CD1694605F10C0000F065FEFE
S21400FBB0070005D106A905F1180000F05EFE07460D
S21400FBC009A800F0F7FD00F02CF800F0F1F906A8FF
S21400FBD000F0F0FD38460DB0F0BD211D03A801F081
S21400FBE008B80322694609A801F03FBB06A801F041
S21400FBF0C4BA6A4603A903A801F02DB9221D06A9B6
S21400FC0006A801F0C9B8221D09A909A801F0C4B8C0
S21400FC10221D03A903A801F0BFB86946684601F093
S21400FC201AB9684600F0C6BD06F1180206F11801BA
S21400FC30684601F0A2BA684600F0B5BD214606A89F
S21400FC40A7E421466846A4E42DE9F04196B000F00A
S21400FC50CFF91F4601F04CFF20B100F0BCF902F0CE
S21400FC6067F887E1002106F1180001F00AF808B9E4
S21400FC70394608E0386A80B1002107F1180001F023
S21400FC8000F818B9314600F0F9FC73E1386A20B183
S21400FC9000F064FC08B1B9486CE1FFF7CCFF09A896
S21400FCA000F081FD00F087F90FA800F07CFD06A8A3
S21400FCB000F079FD0CA800F076FD12A800F073FDA8
S21400FCC0FFF7B2FF5FEA000841D1FFF7BAFF5FEA2D
S21400FCD000083CD106F11802694609A801F04DFA61
S21400FCE05FEA000833D1214609A8FFF752FC5FEA15
S21400FCF000082CD13A466946FFF79AFF5FEA0008EB
S21400FD0025D1FFF79EFF5FEA000820D107F10C021D
S21400FD1009A909A801F031FA5FEA000817D12146BF
S21400FD2009A8FFF736FC5FEA000810D13246FFF755
S21400FD3074FF5FEA00080AD10098002808D500F092
S21400FD404FF928B100F025F95FEA0008F4D0FDE08D
S21400FD5006F10C0209A909A801F07DF85FEA00087F
S21400FD60F5D1099800280DD5002109A800F089FFD3
S21400FD7040B1221D09A909A801F053F85FEA00085E
S21400FD80EFD0E3E000F02CF968B9002109A800F0F4
S21400FD9078FF20B900F020F9FFF7A6FDD5E0284649
S21400FDA0FFF7DAFBD1E06A4606F1180112A801F067
S21400FDB0E4F95FEA0008E4D1214612A8FFF7E9FB60
S21400FDC05FEA0008DDD100F0F9F85FEA0008D8D154
S21400FDD000F00AF95FEA0008D3D16A4603A90FA823
S21400FDE001F0CBF95FEA000823D121460FA8FFF700
S21400FDF0D0FB5FEA00081CD1324603A900F0E0F809
S21400FE005FEA000815D100F0EFF85FEA000810D1AD
S21400FE10022203A9684601F028FA5FEA000808D122
S21400FE2000F060F9002805D400F0B8F85FEA000892
S21400FE30F6D08BE009AA09A9FFF7D8FE5FEA00080A
S21400FE40F7D1FFF7FBFE5FEA000804D16A4600F030
S21400FE5097F85FEA000879D10698002808D500F0E0
S21400FE60B6F828B100F090F85FEA0008F4D06DE02C
S21400FE700FAA00F085F85FEA000867D10698002808
S21400FE8008D500F0A4F828B100F07EF85FEA000874
S21400FE90F4D05BE006AAFFF7ADFE5FEA000855D196
S21400FEA00398002808D500F08EF828B100F07BF8FB
S21400FEB05FEA0008F4D049E009AA03A900F080F838
S21400FEC05FEA000842D100F08FF85FEA00083DD1F3
S21400FED006F10C020FA90FA801F04FF95FEA00081F
S21400FEE034D121460FA8FFF754FB5FEA00082DD156
S21400FEF00FAA03A90CA800F0AEFF5FEA000825D100
S21400FF000C9800280DD500210CA800F0BAFE40B1D0
S21400FF10221D0CA90CA800F084FF5FEA0008EFD0B1
S21400FF2014E006A9284600F0A8FC5FEA00080DD1F8
S21400FF300CA905F10C0000F0A0FC5FEA000805D152
S21400FF4012A905F1180000F098FC8046FFF769FE3C
S21400FF5009A800F02FFC00F02BF80FA800F02AFCF0
S21400FF6006A800F027FC0CA800F024FC12A800F05D
S21400FF7021FC404616B0BDE8F081000080B0FFFFCF
S21400FF8006A906A800F067BF221D06A906A800F06D
S21400FF9048BF221D6946684600F043BF221D6946D9
S21400FFA0684600F0F9BE221D03A903A800F039BF79
S21400FFB003A800F0FFBB03A800F0F5BB6A4669463D
S21400FFC003A801F0DAB8002103A800F05ABE002109
S21400FFD006A800F056BE3B463246294620467047E5
S21400FFE00021684600F04DBE214603A8FFF7D1BAAF
S21400FFF004460D46164670472DE9F047044686B07F
S214010000A06DC01DC6080D4690469946FFF713FE23
S214010010FFF7D1FF00274B4642463146684601F0BE
S21401002071FB00F05FF8002807D40121684600F054
S21401003083FD5FEA000AF4D04BE03846471C0B28E4
S21401004002DBDFF8440749E00121684600F019FEAB
S2140100500128E0DB6A4605F1180105F1180001F0F8
S2140100608CF85FEA000A34D1214605F11800FFF743
S21401007090FA5FEA000A2CD1FFF7A0FF5FEA000AB8
S21401008027D1FFF7B1FF5FEA000A22D103AA29466A
S214010090284601F072F85FEA000A1AD1214628467E
S2140100A0FFF777FA5FEA000A13D16A4603A9FFF75A
S2140100B087FF5FEA000A0CD1FFF796FF5FEA000AA6
S2140100C007D100F013F85FEA000A02D100F015F834
S2140100D08246FFF7A6FDFFF76BFF504606B0BDE868
S2140100E0F0870000211D684600F083BD03AA05F1D4
S2140100F00C0105F10C0001F040B8214605F10C0099
S214010100FFF747BA2DE9F8430D460446904699464F
S214010110691CF7F7B5FC00260CE007FB05614846AD
S21401012000F020FCA15DB8400843A0557F1C474560
S214010130F3D3761CAE4238BF0027F8D30021012046
S2140101401CE0225C01EA02034A402254271802F00E
S2140101500101C1F1010817F8011C5FFA88F616FBC8
S21401016001FC0CEA02018CEA02022254194317F838
S214010170012C42EAC61207F8012C401C8542E0D247
S214010180BDE8F1832DE9FE4F8346002002900E461E
S21401019017461D46584601F0ABFC28B1584601F0FB
S2140101A0AEFC5FEA000860D139463046FFF7BEF97B
S2140101B05FEA000859D10124691E04FA01F00027FC
S2140101C001904FF0240911E0524651465846FFF778
S2140101D08BFB5FEA000848D16D1C0C988542F3D36F
S2140101E0FFB24DF827A064067F1C240E01988442B6
S2140101F00FD219FB04F006EB000A601019FB00F0A1
S21401020031185046FFF792F95FEA00082DD1002514
S214010210E3E700F03EF85FEA000826D10027012454
S2140102201BE0281909FB00F006EB000A19FB04F095
S214010230331809FB05F0321851465846FFF704FDFE
S2140102405FEA000811D1FFB24DF827A07F1C2846AF
S214010250451E0028E5D16406240E0198844238BF65
S2140102602546F4D300F015F88046DFF820058045D2
S2140102700AD0584601F03CFC18B1584601F072FC11
S2140102800290B8F1000F01D0404600E00298BDE8A8
S214010290FE8FFAB269465846FFF714BA2DE9F84FB1
S2140102A00A9C82468B4617469846C4F345090025A4
S2140102B007E006F10C010BF10C0000F002FBD0B9CF
S2140102C06D1C454510DA4D450CBF01220022242045
S2140102D068433E183146584600F0F3FA58B94D4582
S2140102E00CBF01220022E4E7E20959465046BDE868
S2140102F0F84FFFF7DBBABDE8F28F2DE9F04F8BB070
S21401030081468A469346984601A8FFF7B7F8159E98
S214010310149DA85D009043465A4651464846FFF74D
S214010320BDFF0024070035D101210AF1180000F0B5
S214010330FCFA07002ED1169A100006D0179B5146DC
S2140103404846FFF759FE070024D1484601F0D0FB86
S21401035020B1484601F0D3FB07001BD13046461EAC
S214010360C0B1524651464846FFF7BEFA070011D1C2
S214010370A85D009043465A4601A94846FFF78EFFFE
S214010380070007D101AB524651464846FFF75CFCD1
S2140103900700E3D0DFF8F403874207D0484601F0B0
S2140103A0A7FB18B1484601F0DDFB044601A8FFF79C
S2140103B07CF8002F14BF384620460BB0BDE8F08FFE
S2140103C080B2FFFF2DE9F04FABB006468A46914654
S2140103D01D4604A800F0E7F907A800F0E4F900219B
S2140103E006F14C0000F0BEFA0024012818BFDFF821
S2140103F0A00340F08980F06D401C470824210220AC
S214010400F9F7ABFE5FEA000808BFDFF8885356D05D
S214010410009702232A4641463046FFF7B3FE050001
S21401042049D10021484600F09DFA01280CBF4FF043
S214010430010BA346494604A800F01FFA05003AD16D
S2140104404A4606F14C0107A800F005FD050032D129
S2140104508BF001094A4607A904A800F032FA050004
S21401046029D104AB022239460AA8FFF74BFE35987C
S214010470039002233498029001970AA800904246FE
S21401048051463046FFF739FF050014D14A4651461A
S2140104903046FFF70BFA05000DD1304601F028FB78
S2140104A020B1304601F02BFB050004D15146304601
S2140104B0FFF7B3F80546DFF8D40285420AD0304686
S2140104C001F016FB18B1304601F04CFB0446B8F1BA
S2140104D0000F0CD00026242010FB06F04044FEF747
S2140104E0E4FF761C022EF6DB4046F9F738FE04A838
S2140104F000F060F907A800F05DF925B15046FEF757
S214010500D4FF284600E020462BB0BDE8F08F2DE949
S214010510FC4104460D461F46164600F01FF8DFF85C
S2140105207082C0B93146204600F0C1F8A0B93946FC
S214010530204600F0A6F878B92046FEF795FF012878
S21401054009D1099801903B4608980090FFF744FDB1
S214010550FFF738FF00E04046BDE8F681012107F1CC
S214010560180000F08EBBF0B504460D4687B000219A
S214010570284600F086FB0028DFF81C6210D400F045
S21401058077F800280CD4211D284600F032FB0028FD
S21401059006D5211D05F10C0000F02BFB002801D427
S2140105A0304663E0FFF707FDFFF745FB05F10C0258
S2140105B005F10C01FFF704FD070052D1FFF714FD0A
S2140105C007004ED12A462946FFF732FB070048D1DD
S2140105D0FFF737FB070044D1A06988B903226946B3
S2140105E0684600F05EFC07003BD10098002818D54D
S2140105F0FFF7F6FCA8B1FFF7CCFC0700F5D030E01A
S21401060004F110026946684600F00BFC070028D189
S214010610FFF768FD002804D4FFF7C0FC0700F7D0F9
S2140106201FE02A466946FFF703FB070019D1FFF7CB
S21401063008FB070015D104F11C026946684600F064
S214010640F0FB07000DD1FFF74DFD002804D4FFF79E
S214010650A5FC0700F7D004E06946FFF7BFFA00B132
S2140106603746FFF7A5FCFFF7DCFA384607B0F0BDC2
S214010670002105F10C0000F004BB39462846FEF7C0
S21401068055BF38B504460D46012105F1180000F0A6
S214010690F8FA00B123E02046FEF7E6FE012804D171
S2140106A029462046BDE834405DE7394832BD38B5B5
S2140106B004460D46FEF7D8FE01280FD10121284633
S2140106C000F0DFFA002806D404F14C01284600F0B9
S2140106D090FA002800D402E0002032BDE5E72E485B
S2140106E032BD2DE9F04F044689B0E06DC01D4FEADA
S2140106F0D008894692469B462046FEF7B5FE01285D
S21401070031D1129E139F0025424669463846B047AE
S21401071058BB42466946504600F06AF928BBE06D70
S214010720C0EBC801504600F007FA00281DD16D1C29
S2140107301F2D01DB144814E00121504600F0A1FAF8
S2140107400028E1D404F14C01504600F052FA00288A
S214010750DAD5019700964B46524659462046FFF792
S214010760D6FEFFF79BB80A48FBE70028F1D0F8E76A
S2140107701CB500931346049C01940A4600F1280117
S214010780FFF7AFFF16BD000000B3FFFF01D000F179
S21401079080B0FFFF80B2FFFF80B3FFFF002918BFC4
S2140107A0F7F76EB9704720B1012101600021416061
S2140107B08160704710B504000DD0A06830B1616843
S2140107C08900FFF7EBFFA068F9F7C9FC012020605C
S2140107D000206060A06010BD70B504460D4642F270
S2140107E01170854208D26068A84214D204212846B6
S2140107F0F9F7B3FC060000D13CE0A16849B1606896
S21401080082003046F6F7EEFC00F030F8A068F9F703
S214010810A6FC6560A660002070BD70B504466068E1
S214010820814203D32046BDE87040D5E7401E04D080
S214010830A26852F82020002AF8D0451C8D4238BF05
S2140108400D4604212846F9F788FC060000D111E080
S214010850A16839B1AA00F6F7C5FC00F007F8A06850
S214010860F9F77DFC6560A660002070BD60688100B8
S214010870A06893E76FF00F0070BDF8B504460D460B
S214010880AC4204D0A86820B92046FFF793FF0020A9
S214010890F2BD6968491E03D050F82120002AF9D01C
S2140108A0286820604E1C314600F052FA070006D137
S2140108B000F053F8A968A068B200F6F7A3FC384622
S2140108C0F2BDF8B5044650420D4600F03DFAF8B9BF
S2140108D000F025F801FB0232226000220AE0D5F87A
S2140108E008C0A3685CF822C053F8227006FB0CFC13
S2140108F000F00FF86B689A42F1D363689A4207D208
S214010900A36853F822504D4343F82250521CF4E793
S214010910F2BD01FB07C743F82270521C70472B68D3
S2140109202268C6F101017343704770B50D4604464F
S2140109300121FFF751FF06000DD100F00EF8A16866
S214010940002D4CBF684228460860002D4CBF4FF072
S214010950FF3001202060304670BD60688100A068CD
S214010960F9F742BC4268B1EB421F01D30020704741
S21401097080684A0950F8220001F01F01C84000F0C3
S2140109800100704710B50021002204E05B1C491CE1
S214010990202B04D3521C43689A4208D20023846851
S2140109A054F82240DC40E407F0D5084610BD00208C
S2140109B010BD10B5416809B9002010BD491E04D00C
S2140109C0826852F82120002AF8D02022836853F842
S2140109D02130541EE340DB0701D4521EF6D102EB50
S2140109E0411010BD80B5FFF7E4FFC01DC00802BD71
S2140109F02DE9F04100F0F8FD002700E07F1CB7422A
S214010A0002D2E85D0028F9D0F01B10F0030118BFF0
S214010A10012101EB900100F09BF9D0B900F01BF821
S214010A20B8B9002113E0A36805EB060E8A081EF884
S214010A3001EC53F822C04FEAC10808F018080EFA74
S214010A4008FE4EEA0C0C43F822C0761E491CB7423B
S214010A50E9D3BDE8F0810021204666E7F8B50446F3
S214010A600D461746FFF7BEFF0646B74202D26FF0A5
S214010A700700F2BD39462846F7F702F8781E00212E
S214010A80002E0BE0A2688B0852F82320CB0003F05F
S214010A901803DA402A54401E491C761EF2D1002063
S214010AA0F2BD2DE9F041044600258846FFF781FF97
S214010AB008EB00016068400188424FEA581608F0CA
S214010AC01F0708D211F01F0018BF012000EB5111BB
S214010AD000F03EF970BB0020BEB161680AE0A26872
S214010AE08B1B02EB830302EB810253F8043C42F8B2
S214010AF0043C491E8E42F2D300291FBFA26802EBB6
S214010B00810242F8040C491EF6D19FB13146C7F165
S214010B10200C0CE0A26852F8213023FA0CF6BB40F8
S214010B2042F821302B4342F821303546491C626891
S214010B309142EFD3BDE8F08170B5436800224C09BD
S214010B40A34201F01F0102D39C4204D119B1BDE8B2
S214010B5070400021E9E6A4B1002306E08568E618A6
S214010B6055F8266045F823605B1C45682D1BAB4293
S214010B70F4D34468A3423EBF856845F823205B1C36
S214010B80F7D3A1B14368002B10E0856805EB830419
S214010B90C1F1200654F8045C05FA06F6CD4044F887
S214010BA0045C2A4344F8042C5B1E3246EDD1002037
S214010BB070BD10B500F04CF819D0934210D39A428C
S214010BC001D211E0521E92B183688C6803EB820356
S214010BD004EB820453F8043C54F8044C9C4201D2C2
S214010BE0012010BDA342EDD24FF0FF3010BD002012
S214010BF010BD30B500F02CF828D0934220D30C68F5
S214010C009A4201D2604230BD0368012B03DB002CFF
S214010C1009D5012030BD012C05DB002B03D54FF093
S214010C20FF3030BD521E8AB184688D6804EB8204A1
S214010C3005EB820554F8044C55F8045CA54201D234
S214010C40006830BDAC42EDD2584230BD002030BD08
S214010C50426800E0521E32B1836803EB820353F808
S214010C60043C002BF6D04B6800E05B1E33B18C6869
S214010C7004EB830454F8044C002CF6D053EA020427
S214010C80704700B5002985B004D5494200914FF060
S214010C90FF3101E0009101210191CDF80CD0012135
S214010CA0029101A9FFF7A5FF05B000BDF8B50446FE
S214010CB01646B44204BF0E4621468C4203D0FFF7C7
S214010CC0DCFD00283FD101202060756800E06D1E24
S214010CD035B1B06800EB850050F8040C0028F6D05A
S214010CE0294600F035F870BBB268A16800260027D7
S214010CF011E00B68F3180B60B342D2F800C06344EE
S214010D000B60B641D2F800C0F60F634538BF761CBB
S214010D107F1C121D091DAF42EBD3A6B162687D1C74
S214010D20974206D3294600F013F860B9A16801EB93
S214010D3087010A68B2180A602F4651F8042BB2429E
S214010D40B641F60FE9E7F2BD10430006C60F696823
S214010D502046FFF741BDF0B5002300240FE01568DB
S214010D609D42B641ED1A1560F60F51F8047BBD425F
S214010D709B41ED1B06EBD37342F8045B641C844273
S214010D80EDD343B1106898428941C90FC01A42F8A1
S214010D90040B0B46F5E7F0BD70B500F025FCA4B0DA
S214010DA000F056F8002848BF6FF0090037D400F06D
S214010DB0E9FBAC421AD0B44212D10ECE68460C3EC4
S214010DC00EC07068212807D28200B16803A8F6F722
S214010DD019FA03A8029002E000206060A0606E4647
S214010DE029462046FFF749FD050010D10120206065
S214010DF000257068B16800E0401E28B101EB800252
S214010E0052F8042C002AF7D0A268FFF7A4FF029834
S214010E1003A988421CBF6846FFF7CCFC284624B0CD
S214010E2070BDF8B500F033F80CD500F011F80028C5
S214010E3002D400F028F808E02A46314600F025F8EA
S214010E4028B92BE02046FFF731FF00B92760F2BD35
S214010E5031462846ADE6F8B500F019F801280CDB56
S214010E60FFF7F6FF002802D400F00DF808E02A4646
S214010E70314600F00AF828B910E02046FFF716FFC1
S214010E8000B92760F2BD32462946204684E70D4662
S214010E90164604462F6830687843704779422160C9
S214010EA0F2BD00B5002A85B000F004F8FFF7D3FFC5
S214010EB005B000BD04D5524200924FF0FF3201E06A
S214010EC0009201220192CDF80CD00122029201AAD1
S214010ED07047F0B50C46054616461F46002102E04F
S214010EE0F0634036103D102DC0F0AD8000F03EF9A5
S214010EF038BF5B1C081830608842606838BF5B1CCE
S214010F0000F014F938BF491C101870609042A068B0
S214010F1038BF491C00F023F938BF5B1C0818B060C5
S214010F208842E06838BF5B1C00F0FBF838BF491CFC
S214010F301018F0609042206938BF491C00F008F98B
S214010F4038BF5B1C081830618842606938BF5B1C7B
S214010F5000F0E7F838BF491C101870619042A0698C
S214010F6038BF491C00F0EDF838BF5B1C0818B061AB
S214010F708842E06938BF5B1C00F0D3F838BF491CD3
S214010F801018F0619042206A38BF491C00F0D4F86E
S214010F90316A726A38BF5B1C081830628842606A20
S214010FA038BF5B1C00F0BDF838BF491C10187062D2
S214010FB09042A06A38BF491C00F0BEF8B16AF26AD6
S214010FC038BF5B1C0818B0628842E06A38BF5B1CF9
S214010FD000F0A7F838BF491C1018F0629042206B49
S214010FE038BF491C00F0A8F8316B38BF5B1C0818E5
S214010FF08842306338BF5B1C606B726B00F091F8FF
S21401100038BF491C101870639042A06B38BF491C4A
S21401101000F092F8B16BF26B38BF5B1C0818B06336
S2140110208842E06B38BF5B1CA7FB000140341818F0
S214011030984238BF491C1018904200D2491C4FE70D
S214011040F0612036083D082D54D300F08FF838BFE4
S2140110505B1C081830608842606838BF5B1C00F073
S21401106065F838BF491C101870609042A06838BFF8
S214011070491C00F074F838BF5B1C0818B060884241
S214011080E06838BF5B1C00F04CF838BF491C1018EC
S214011090F0609042206938BF491C00F059F838BF0B
S2140110A05B1C081830618842606938BF5B1C00F021
S2140110B038F838BF491C101870619042A06938BFD3
S2140110C0491C00F03EF838BF5B1C0818B061884226
S2140110D0E06938BF5B1CA7FB000120341818984252
S2140110E038BF491C10189042AAD2491CA8E746F8F6
S2140110F0040B6D1E6DB154F8040B00F01DF8316839
S21401110038BF5B1C0818884234BF591C1946EEE7E5
S214011110012130680818306056F8040B8842F7D36E
S214011120F0BDA7FB0001181898427047A7FB000105
S2140111301818984272687047A7FB002388188842DF
S2140111407047A7FB002388188842B169F269704787
S214011150A7FB002388188842316972697047A7FB8C
S214011160002388188842B168F26870472068A7FB98
S214011170002388188842316870472DE9F043A7B0EC
S21401118004460D46904600F0FDF900F0B1FAAC4277
S21401119018BF44451FD16068212810D2049006A8C4
S2140111A005906068A168820006A8F6F72BF8AC42A5
S2140111B008BF03AD444517D10DF10C0814E0AC424D
S2140111C009D1294600F0DBF95FEA000947D1444519
S2140111D06D4609D107E0444506D1414600F0CFF9F6
S2140111E05FEA00093BD1E8466F6800E07F1E37B131
S2140111F0A86800EB870050F8040C0028F6D0D8F851
S214011200046000E0761E3EB1D8F8080000EB8600C8
S21401121050F8040C0028F5D0F119FFF799FD5FEAA4
S21401122000091CD1FFF717FC5FEA000917D17F1CE4
S214011230002E0EE0D8F80800A96800EB860050F8EA
S214011240043CA06800EB8600021F781EFFF741FEF3
S214011250761EEFD12868D8F800104843206000F0C9
S2140112604AFA484627B0BDE8F08300B585B00123A9
S214011270009201930293CDF80CD001AAFFF77DFFEF
S21401128005B000BD2DE9F84F80460C4690B0924659
S21401129000211846FFF7F5FC10B96FF00B0060E16E
S2140112A000F070F907A8FFF77EFA0AA8FFF77BFAA5
S2140112B004A8FFF778FA0DA8FFF775FA10995046BB
S2140112C0FFF777FC002813D5B8F1000F06D00021F0
S2140112D04046FFF72AFB0028814670D134B15146BB
S2140112E02046FFF7CAFA0028814668D1002038E177
S2140112F0514600F044F90028814660D1109907A8AC
S214011300FFF7BBFA0028814659D1012007900090CB
S214011310DAF80400811C0AA8FFF75EFA0028814665
S2140113204DD100210AA8FFF700FB0028814646D1CF
S214011330022104A8FFF750FA002881463FD1032175
S2140113400DA8FFF749FA0028814638D107A8FFF70C
S21401135030FB00F01F001F2811D2C0F11F000390C0
S21401136001466846FFF79DFB0028814627D1039971
S21401137007A8FFF796FB0028814620D101E0002050
S21401138003900198471E0898461EBD1B690107A8D1
S214011390FFF787FB0028814611D107A96846FFF7AA
S2140113A028FC00280CD40C9850F82510491C40F84D
S2140113B0251007AA00F0EBFA00288146EDD0C1E01F
S2140113C0690107A8FFF7B8FB00288146F7D13FE07F
S2140113D0506051F8270090600DA904A8FFF709FC9A
S2140113E0012854DA0C9800EB850007A900F0BAF83A
S2140113F000288146E3D1681E4FEA401B594604A8DF
S214011400FFF74FFB002881461ED104AA00F0BFFA61
S2140114100028814618D100216846FFF732FC0028D3
S21401142015D507A904A8FFF728FA002881460BD18D
S214011430594604A8FFF735FB0028814604D104AAC3
S21401144000F0A1FA002881467CD100F08FF87F1EBB
S214011450BE4252D2099850F82620029850F827101A
S214011460914228BF00200CD200EB8700002350F8E1
S214011470040CFCF751FA0123994228BF4FF0FF30C4
S214011480401C0C99BD1B01EB850141F8040C00F0D2
S2140114906DF804A80021FFF748FA0028814651D1CB
S2140114A00998069A002E0EBF002100EB860151F81E
S2140114B0041C116004A950F8260050600C9800EB3B
S2140114C0850000F04FF8002881463BD100210DA889
S2140114D0FFF72BFA8146A8BB02990F9A022F24BF69
S2140114E001EB870050F8080C1060002F0FBF00209A
S2140114F001EB8700083840686AE7B8F1000F0CD0A6
S2140115000AA94046FFF7B9F98146D8B91099DAF821
S214011510000009684843C8F800009CB16846039972
S214011520FFF70AFB814668B9DAF80000009000F080
S214011530E5F8814630B900212046FFF7A2FB08B93D
S2140115400120206000F0D7F807A8FFF733F90AA8B2
S214011550FFF730F904A8FFF72DF90DA8FFF72AF9D0
S214011560484648E050F8042C04A87EE60C9800EBA8
S214011570850050F8041C491E40F8041C7047684654
S214011580FFF77BB96846FFF70EB970B500F02CF887
S21401159000213046FFF775FB002800D528E03346CA
S2140115A02A4621460020FFF76DFE05001AD10021CC
S2140115B02046FFF766FB002807D53246214620461F
S2140115C0FFF72FFC0500F2D00CE031462046FFF76E
S2140115D010FB002806D4324621462046FFF73BFC86
S2140115E00500F2D0284670BD04460D4616467047E3
S2140115F06FF0090070BD11B0BDE8F08F70B58AB00C
S214011600FFF7F2FF06A8FFF7CEF800F071F8FFF734
S214011610B9FF294603A8FFF730F905005DD1314629
S214011620FFF7ADFF050058D103A8FFF7ABF9054654
S2140116306846FFF7A7F90646AE4288BF2E463146F2
S21401164003A8FFF779FA050047D131466846FFF748
S21401165073FA050041D1012000900390002103A8F0
S214011660FFF70FFB80B303A8FFF78CF9014603A829
S214011670FFF762FA050030D16846FFF783F90146A5
S2140116806846FFF759FA050027D1694603A8FFF710
S214011690B0FA00280DD46A4603A903A8FFF77CFB1D
S2140116A005001AD1012103A8FFF746FA0500D5D097
S2140116B013E003AA69466846FFF76EFB050004BF00
S2140116C001216846F0D008E031466846FFF7E9F99F
S2140116D0050002D100F012F8054606A8FFF76AF8E1
S2140116E003A8FFF767F800F006F828460AB070BDB1
S2140116F003A8FFF758B86846FFF75CB86946204666
S214011700FFF7BBB870B50D460446212D88B01646C6
S21401171028BF6FF0030009D22A4669461846B0472B
S21401172020B92A4669462046FFF762F908B070BD1F
S214011730F0B504460E4615469BB000212846FFF735
S214011740A0FA0128B8BF6FF00300C0F21A8115A8ED
S214011750FFF729F80CA8FFF726F809A8FFF723F8E2
S21401176006A8FFF720F818A8FFF71DF812A8FFF73C
S2140117701AF80FA8FFF717F8FFF704FFFFF7B8FFEF
S2140117802A46314618A8FFF739FF070006D101217E
S21401179018A8FFF776FA10B16FF00D07D6E02A46C3
S2140117A0314615A8FFF7F1FE0700F7D115A90CA8D9
S2140117B0FFF763F80700F1D1294612A8FFF75DF895
S2140117C00700EBD129460FA8FFF757F80700E5D128
S2140117D0012109A8FFF7A9F80700DFD1002106A813
S2140117E0FFF7A3F80700D9D100216846FFF79DF857
S2140117F00700D3D1012103A8FFF797F807002AD1E4
S2140118000E980078C0074ED401210CA8FFF794F972
S214011810070020D10B980078C00703D408980078F9
S214011820C0070DD512AA09A909A8FFF7FAFA0700F9
S21401183011D115AA06A906A8FFF70DFB07000AD1C4
S214011840012109A8FFF778F9070004D1012106A8AC
S214011850FFF772F9070079D1D2E701210FA8FFF748
S2140118606BF9070072D102980078C00703D4059877
S2140118700078C0070BD512AA00F085F8070065D1DD
S21401188015AA03A903A8FFF7E6FA07005ED101210E
S2140118906846FFF751F9070058D1012103A8FFF761
S2140118A04BF9070052D111980078C007D5D50FA97A
S2140118B00CA8FFF79EF9002815D40FAA0CA90CA8AE
S2140118C0FFF7C9FA070041D16A4609A909A8FFF737
S2140118D0C2FA07003AD103AA06A906A8FFF7BBFA7F
S2140118E0070033D112E00CAA0FA90FA8FFF7B3FA2D
S2140118F007002BD109AA00F04AF8070026D106AA4C
S21401190003A903A8FFF7A7FA07001FD100210CA817
S214011910FFF7B7F900289FD100216846FFF7B1F914
S21401192000280AD52A4600F02EF80700F4D00DE06C
S2140119302A4600F02CF8070008D129466846FFF72A
S21401194058F90028F4D5FFF7D9FE074615A8FEF783
S21401195031FF0CA8FEF72EFF09A8FEF72BFF06A8FD
S214011960FEF728FF18A8FEF725FF12A8FEF722FFAC
S2140119700FA8FEF71FFFFFF7BEFE03A8FEF71AFF2C
S21401198038461BB0F0BD69466846FFF74ABA694655
S2140119906846FFF760BAFEE710B582B0049C009473
S2140119A0FEF7E6FE16BD2DE9F0418CB004460D4665
S2140119B016461F4602A8FDF761FD31462046FEF792
S2140119C060FE5FEA000818D113980190334612981A
S2140119D000903A4602A92046FEF799FD5FEA000804
S2140119E00BD102A8FDF7CCFD10B1DFF81C8004E096
S2140119F002A92846FEF741FF804602A8FDF755FDDD
S214011A0040460CB0BDE8F08180B0FFFF10B54A68D3
S214011A108B68CC680968016002600360046010BDD1
S214011A2010B502680368046800680A608C604B6041
S214011A30C86010BD38B504460D46FFF7E7FF05F14F
S214011A4010012046BDE83440E0E738B504460D46AF
S214011A50FFF7E6FF05F110012046BDE83440DFE759
S214011A6038B504460D466868A96808280DD2820074
S214011A702046F5F7C7FB6868810004EB8000BDE8E7
S214011A803440C1F12001F5F7FBBF2046BDE83840E0
S214011A902022F5F7B7BBDFF87027026540690860BA
S214011AA0000E00F00100704710B5044602F059F828
S214011AB088B90021204600F00FF860B900212046C1
S214011AC000F012F838B904F1840100228A604A60F5
S214011AD004F198020A6010BD002904BF7C3001F0B1
S214011AE0AEBBDFF828077047C0F8881000207047A3
S214011AF00068032801D10120704700207047F8B51F
S214011B00074607F18005F86F0468284602F008FAD0
S214011B10060026D1284602F066FA4FF480102060AF
S214011B20DFF8EC062063002060633868032810D1D4
S214011B300521204602F074FA606820F4407040F4F3
S214011B4000706060606820F4406040F4006060608F
S214011B5001E0DFF8C066284602F051FA06B90646EB
S214011B603046F2BD803002F013BAF0B54B688A6891
S214011B70042B09D2002300F029F8082BBEBF002150
S214011B8001605B1CF9DBF0BDD46895685668176880
S214011B90082B0ED20760066005601032046004232D
S214011BA000F014F8082BBEBF002101605B1CF9DBB6
S214011BB0F0BD07600660056004601769566995699F
S214011BC0D4690760066005600460F0BD03E052F862
S214011BD0044B04605B1C4C68A342F8DB704770B58D
S214011BE00D4688B069680024082903D1A968FFF763
S214011BF02CFF2BE009290AD3A968FFF726FF68689E
S214011C0008388100A8682030F8F7EEFA1EE00026B2
S214011C10002203684DF82230521C03B11646082AEA
S214011C20F7DBB1420DDA31462846FEF7D5FD040052
S214011C300CD1A868B2006946F5F7E4FA01202860DD
S214011C4004E08A00A8686946F5F7DCFA204608B081
S214011C5070BD2DE9F04389B00C46C16F0E6800F1E6
S214011C6080099046484602F0BEF9DFF8AC053065BB
S214011C7008F11801DFF8A4057065DFF8A405B06562
S214011C80DFF8A005F0654FF4867030664FF480707B
S214011C90351800F0C2F808F10C0100F0BEF800F0AB
S214011CA0B8F807003BD14FF4887041463044FFF73F
S214011CB05CFF69462846FFF7C8FEDFF86C0530650D
S214011CC02146DFF868057065DFF86405B065DFF862
S214011CD06405F065DFF860053066DFF8600530659D
S214011CE0DFF85C057065DFF85C05B065DFF8580560
S214011CF0F06500F090F8070011D1DFF85005306567
S214011D006946DFF84C057065DFF84805B06528467A
S214011D10FFF790FE04F10C0100F07DF807464846F7
S214011D2002F06DF907B90746384609B0BDE8F083F9
S214011D302DE9F8430C46C16F0F6800F18008914603
S214011D401E46404602F04FF9DFF80C05386509F1EA
S214011D501801DFF808057865DFF80405B865DFF8CF
S214011D600405F865DFF8000538664FF480703D1805
S214011D7000F053F8314600F050F806F10C0100F07F
S214011D804CF84FF4827009F10C013844FFF7EDFE70
S214011D90DFF8D80438654946DFF8D4047865DFF8FB
S214011DA0D404B86500F039F800F033F8060028D1FD
S214011DB0DFF8C40438652146DFF8C0047865DFF82B
S214011DC0C004B865DFF8BC04F865DFF8BC04386504
S214011DD0DFF8B8047865DFF8B804B865DFF8B4044E
S214011DE0F865DFF8B404386600F015F8060008D187
S214011DF009F10C0100F011F804F10C0100F00BF8E8
S214011E000646404602F0FBF806B906463046BDE8EF
S214011E10F28304F118012846E1E62846A5E62DE9F5
S214011E20F04704468AB02068D0F800A00D46164652
S214011E3098462022414601A8F5F7E4F901AF0020B3
S214011E403862201D02F0CFF84FF4827031465044BC
S214011E50FFF7F0FD4FF4847029465044FFF7EAFD82
S214011E604FF4867041465044FFF7E4FD0AF1080539
S214011E70DFF82804A86400264FF480700AEB0009F6
S214011E8004E0DFF81C04A8648820286069465046F0
S214011E90FFF701FE002878D10098C00504D4DFF8CA
S214011EA00404A864761E61E0002E0ED5DFF8F80360
S214011EB0A86401A9DFF8F403E86476424846FFF710
S214011EC0C4FDE868C0F3034038620120DFF8E01380
S214011ED0DFF8E023DFF8E033A964E968090A11F0C6
S214011EE0030114BF4FF0FF30761E88212960E96890
S214011EF0AA64090A0122EA64EA68AB64120A0128A4
S214011F0012D101F0010002F00101084205D0DFF80C
S214011F10AC03A864DFF8A80304E0DFF8A803A8640C
S214011F20DFF8A403E86421E010F1010F1ED101F0EF
S214011F30010002F0010181F00101084306D1E348E6
S214011F40A864E348E8640120286503E0E148A86442
S214011F50E148E86401A94846FFF76CFD97F82000C0
S214011F6000F00F00CAF848018320286090202860FE
S214011F70E868C00585D5D948A8644146D848E864CC
S214011F80D848286500F0C0F97EE7D748A8646946B6
S214011F90129F5046FFF77FFD20B14FF488703946F7
S214011FA0504406E0414600F0AFF9D048A8643946EF
S214011FB04846FFF74AFD201D02F021F80AB0BDE8A9
S214011FC0F087F0B50646A1B0F06F05680C462021F3
S214011FD001A8F8F709F90120019004F1180119A8E0
S214011FE0FFF73EFD311D11A8FFF73AFD09A8009045
S214011FF011AB19AA01A906F17C00FFF710FF803684
S214012000304601F0F0FF4FF4827009A92844FFF72B
S21401201011FD4FF486702F1821463846FFF7A5FDAF
S2140120204FF4887004F10C012844FFF79EFDB04878
S214012030286504F10C01AF486865AF48A865012022
S214012040E8654FF480702844FFF7C9FD21463846FD
S214012050FFF7C5FD304601F0D2FF012104F118005B
S214012060FEF763FC21B0F0BD2DE9F04F044699B0B0
S214012070E06F07681646022E8A4605D2DAF8001087
S2140120802046FFF79EFFBCE020213046F8F765F8B2
S2140120905FEA000808BF9948F5D004F1800001F016
S2140120A0A2FFDAF8000000F118014046FFF7D8FC5D
S2140120B04FF48470012507EB000917E05AF8250054
S2140120C000F118014FF482703844FFF74EFD08EB1B
S2140120D0451BABF1200100F017F9634838655946F6
S2140120E04FF480703844FFF7B0FC6D1CB542E5D361
S2140120F004F1800001F083FF202101A8F8F774F8AD
S21401210001200190211D11A8FFF7AAFC09A8009043
S21401211011AB08EB4610A0F1200201A904F17C00E6
S214012120FFF77DFE04F1800001F05DFF4FF486703D
S214012130761E3D1800E0761E002E09A903D14846FA
S214012140FFF778FC1BE04FF482703844FFF772FC0F
S21401215008EB4610A0F1200100F0D6F85AF8260048
S21401216000F11801FFF759FE6548386509A94FF4D3
S2140121708E7078654FF480703844FFF766FC5AF825
S2140121802610FFF74AFE5AF8260000F10C014FF41C
S21401219088703844FFF7E9FC5A4838655548786531
S2140121A05548B8650120F8655AF8260000F10C017B
S2140121B04FF480703844FFF712FD5AF82610FFF7E7
S2140121C02AFEA1685AF82600FEF727FB5FEA000BF5
S2140121D00FD15AF82600A1680C30FEF71EFB5FEA05
S2140121E0000B06D15AF826001830FEF7E3FA002E47
S2140121F0A1D104F1800001F002FF4046F7F7AFFFDE
S214012200584619B0BDE8F08F3539380180B0FFFF68
S2140122102000100080B1FFFF708182D11C83708284
S2140122201CC00C6391D11CC0C00C81E11C82DC0C6B
S214012230811484E11C81C80C0C810100D20C848BB2
S214012240D91CE0146384E21482D11C01837081825C
S214012250D11CC00C82D31401708184E11C8170836F
S214012260D91C83E11C817082D11C0100C81482999B
S2140122707083D91481E11C018CE11C811C84D91C5A
S2140122808391D11CE0140100D814146381CB14810E
S214012290D11C827081E11C84E21401003084880123
S2140122A0D23E8201C93E810190A2848899830100B1
S2140122B0D9080100C93E8198DB3E0100C834098176
S2140122C0E20C8201C80881E20C82010083D9341134
S2140122D081E2148283D91081E2148201D23E827097
S2140122E0C024D0340982010098390100E0100100B1
S2140122F08AD11C81D91C83D11C81E11C80B2FFFFCD
S214012300D11C82D991D11C814846FFF793BBFEE7C9
S2140123107047FEE7890001EB401000F108500260AB
S21401232070470122F6E70022F4E770B50446F7F796
S21401233018FF0546DFF8AC65052221463046F4F75E
S21401234051FF307900F01F0030712846BDE870401B
S214012350F7F70BBF38B50446F7F703FF0546052226
S214012360DFF880152046F4F73DFF2846BDE83240E9
S214012370F7F7FBBE38B5DFF870450325206818B9B6
S2140123800120F4F7C3FF206024680CB16D1EF5D15F
S21401239031BD38B5DFF8545529788842044601D155
S2140123A0002032BD200007D001F0F2FE01214FF0DF
S2140123B0004002F035FB04E002F059FB002001F07A
S2140123C0E7FE2C70012032BDDFF8241508680022D4
S2140123D00A60704710B50024DFF8142530B10221D9
S2140123E002F10800FFF79DFF012404E0022102F13B
S2140123F00800FFF798FF2046BDE81040002102F0D4
S21401240071BD10B50024DFF8E82430B1012102F1D6
S2140124100800FFF786FF022404E0012102F108000C
S214012420FFF781FF2046BDE810400122002102F09F
S2140124306DBDDFF8BC1400B50020486183B00121F2
S214012440032002F0FBFCDFF8AC04D0E90023CDE961
S2140124500023684602F075FD0020FFF7BBFF002051
S214012460FFF7CFFF07BD38B5A0B10088010008BF50
S21401247001200AD0DFF880140A4600E0121D136816
S2140124800BB19842FAD3501A8010DFF8641408761C
S21401249000204860B221DFF86404DFF84854018068
S2140124A002F0A8FC01214FF44C7002F04EFDDFF85B
S2140124B0500402F0BFFD044602F0DCFDFF220421B9
S2140124C02846FCF7A3FE1F202871204632BD80B5A2
S2140124D0FFF7AFFFBDE802400020C4E702E0453A3F
S2140124E00A60006810B10A68452AF8D2704738B504
S2140124F004460D4606E0EDB22946204602F0B8FD38
S21401250004442D1AE8B20028F5D131BD02F0F4BD1D
S21401251002F086BD0A46002808BF02F0A8BA0021CC
S214012520104602F07DBADFF8C003F4F7FBBF38B5FA
S214012530DFF8BC5304462869A0420AD02C61204625
S21401254002F0E0FD012C286203D1BDE8314002F023
S2140125509CBD31BD10B50C46DFF89413096A10B165
S21401256002F0D0FD01464888497A6143081810BD3B
S21401257010B50C46DFF87813096A10B102F0C2FDF7
S21401258001464888497A201AB0FBF1F010BD70B5B3
S2140125900D46DFF85C130446164618460C734C735A
S2140125A0FFF7C5FF224631462846BDE870400123A5
S2140125B002F07CBD70B50D461646CD49044622464E
S2140125C00B2C18460C73B8BF621C0DDB252CB8BF4C
S2140125D0A21C09DB08BF002206D0262C08BF0C224D
S2140125E002D0272C18BFFF224A73FFF7A0FF22460E
S2140125F031462846BDE87040002302F057BD30B58D
S2140126000D46BB4C0121616185B0FFF7FAFE80B92A
S2140126100090029501208DF80400694600208DF88F
S2140126200C0001208DF80D008DF80E00607B02F085
S21401263099FC08B100F035F8FFF79CFE05B030BDF7
S2140126407FB50E46AA4C012161611546FFF7D9FEFA
S214012650A8B9206A90F90710711A009100218DF827
S214012660041000888DF80C10281802908DF80E10B2
S21401267001208DF80D006946607B02F073FC08B1FD
S21401268000F00FF8FFF776FE7FBD80B5984A01216E
S2140126905161FFF7B6FE08B100F003F8BDE801404E
S2140126A068E60B2001F0BABD7CB505460024286813
S2140126B0D0B9687A291801F11003A97A0C1A8C4846
S2140126C00093C461ADF80440684602F03AFC76BD5A
S2140126D0687AA97A0E1A284400F1100132461819B0
S2140126E0F4F780FD2D683419002D864BF0D1E6E70E
S2140126F010B57F4C02216161FFF76CFE20B9607B4B
S2140127000022002102F006FD10B1BDE8104025E0D0
S21401271010BD30B50D46764C0221616183B0FFF7DE
S21401272059FE60B9206A784990F90800281A009085
S2140127306A4600208DF80400607B02F0EBFC08B1CD
S214012740FFF7AFFF37BD80B5694A02215161FFF738
S21401275041FE10B1BDE8024000E001BD0B2001F0D2
S2140127605DBDC4E66248007E704770B582B004461F
S214012770002000906D465E4E08E028607068006894
S2140127807060002029680860453C2D68012C0CDB30
S21401279070680028F1D10120F4F7B8FD0028286000
S2140127A0F2D16846F4F7BEFE01E0009808B90020B1
S2140127B076BD816841F00201816076BD704710B533
S2140127C082B000F021F808B9206016BD0099226891
S2140127D0C1F14501914288BF11462160417A084402
S2140127E000990844103016BD10B582B000F00CF800
S2140127F048B100214172009A817AA218914202D210
S21401280000996118817213BD14460091694665E608
S21401281001F00EBD36494A69022A18BF0B200CD1B9
S2140128200A7A52074CBF042200224A61096A0268EA
S21401283091F90610511A0160042001F0EFBC10F066
S214012840F7000CD02A494A69022A18BF0B2004D186
S214012850002280074A6102D5082001F0DFBC7047DC
S21401286038B5234D04466869012805D000946846AA
S214012870F4F758FE0B201BE0287A2A6A80074CBF23
S214012880032000206861607AB2F90420204450F8E1
S214012890101F891A0160297B8171017901F00101FC
S2140128A00171286810B12846F4F73CFE2C6005201B
S2140128B001F0B4FC31BD0E494A69012A18BF0B204C
S2140128C00DD1002210F4407F4A6118BF0A2006D1BC
S2140128D0C10648BF072002D4800602D5092001F0B0
S2140128E09DBC7047E4080020F00800207F150020FA
S2140128F0EC080020F85700000858000028000020C7
S2140129000058000030080020534801007047704707
S21401291070477047704770477047704710B50A4B4D
S21401292040F201141C6098600120586002E012F821
S214012930010B98610846411E0028F8D1D8694FF06E
S214012940FF31484010BD00BF00C00140001D01F02E
S214012950D5BA38B5044609B1124832BD002000F098
S2140129608FFB050019D10020206000F08BFB01468B
S214012970201D01F0CBFA0C49201D01F0C9FA0B49C4
S214012980201D01F0C7FA0A49201D01F0C5FA0949C0
S214012990201D01F0C3FA02480460284632BD00003B
S2140129A0BC0C0020011000F1953001009F300100A1
S2140129B0AF30010083310100DFF800F08101002013
S2140129C0DFF800F0ED01002010B582B00446FFF7F5
S2140129D0F3FF002000F07EF9201DFFF7F1FF00F065
S2140129E078F904F10800FFF7EBFF221D082100F03B
S2140129F056FA00F073F9002016BDC0F30A0108313B
S214012A00B1F5006F04D280884FF6FF71884201D17C
S214012A10012070470020704710B502F0BFFBDFF8B9
S214012A209C04DFF89C44016809048909A1F58051DA
S214012A3021600821006800048009A0F5006060603C
S214012A402068021D00F02BFA2168096888421CBF25
S214012A502068FFF7B9FF6068021D082100F01FFA21
S214012A606168096888421CBF6068FFF7ADFF20688F
S214012A7040686168496888428041DFF84814C00FA1
S214012A80087010BD70B5DFF83C1491F900100446CB
S214012A90DFF82C0450F8215005F10C0600F06DF912
S214012AA0A8B900F0F9F93168884204BFB088A0429D
S214012AB001D1304670BD00F0E8F906EB800000F168
S214012AC00806F00A05F10C0100F051F9E6D00020E5
S214012AD070BD2DE9F04104464FF6FF75AC4214BFB8
S214012AE0002840F2122084B00E462FD000F0E6F8FF
S214012AF050F8218008F10C073846FFF77EFF20BB0F
S214012B00B888304006EA0401884211D1D7E90001AD
S214012B10CDE90001ADF806500422BDF80400684076
S214012B20ADF8040002A901980290381DFFF748FF8E
S214012B30B87900F0C8F807EB800000F10807F80A3A
S214012B4008F10C0100F013F9D6D0002004B0BDE85E
S214012B50F0812DE9F84D80464FF6FF7008B48045A8
S214012B6014BF5FEA08004FF4C07084B00D46934668
S214012B701F4622D000F0A2F850F8210000F10C0404
S214012B80002600F10C0A2046FFF737FF002839D14E
S214012B90A079011D221D00F082F92168884204BF38
S214012BA0A08840451FD1A079834507D104985A468D
S214012BB004F10801F5F7A4FE002876D0D4E9000157
S214012BC0CDE901010422BDF808004FF6FF71484027
S214012BD0ADF80800ADF80A10694602980090201D6D
S214012BE0FFF7EEFE0646A07900F06DF804EB8000D4
S214012BF000F10804E00A00F05BF808BF002EC2D01E
S214012C00002E4DD15FEA0B004BD004EB0B000830D1
S214012C10C00A00F04DF80ED000F0E2F80446C4F306
S214012C200A00002804D058440830B0F5006F02D9D5
S214012C3040F2015039E04BEA0520ADF80A00ADF844
S214012C400880251D029800902646042269462846DB
S214012C50FFF7B6FE2C1D00250EE03878797840EA9D
S214012C600120B97840EA0140F97840EA016000F0B5
S214012C7035F83F1D241D6D1C38B90BF103004110BA
S214012C8000EB9170B5EBA00FE7DB321D0BF10401F1
S214012C9000F005F900F01EF83046FFF791FE0646F3
S214012CA00EB9002001E04FF4C67006B0BDE8F08D05
S214012CB0C0024FEADA21B0EBC12F70478149804844
S214012CC091F900107047C01C411000EB9170801004
S214012CD07047012000900422694670470090042244
S214012CE069462046FFF76CBE2DE9F0470C4675494C
S214012CF091F900100746724850F821A015469946EA
S214012D000AF10C0800F038F8A8B900F0C5F83168E7
S214012D10814218BF7F1CF088FF2190FBF1F1C1EBC7
S214012D200121401AFFF7CFFF08EB800000F10808E9
S214012D3000F019F802D040F2025012E03846471E61
S214012D40C0B20028DED1B088208015B1F088000A14
S214012D502870F08889F8000006F1080008990860D4
S214012D600020BDE8F0874FEAD8200AF10C01C00226
S214012D70C90AB0EBC12F7047464630463DE670B5EE
S214012D800E4615461C46FFF77DFE20B906B130708B
S214012D9028702060D5E016B1C188090A3170C18853
S214012DA0297008302060002070BD1CB514466B46A3
S214012DB001AAFFF7E4FF10B99DF8040010B940F22C
S214012DC0025016BD0098007820809DF80410022954
S214012DD004DB0099497840EA01202080002016BDD6
S214012DE02DE9F047374C364994F9000082B051F886
S214012DF020A080F0010051F820502846FFF7DCFDA6
S214012E000AF10C0805F10C0905E000F03EF808EBA4
S214012E10800000F10808FFF7A6FF18D1FFF7ACFF06
S214012E20A8B900F039F831688842EED1002700F0E1
S214012E302CF8801C8742EEDA58F8040BFFF74AFF9D
S214012E404846FFF7BDFD09F104097F1CEFE7DAF8F4
S214012E500400401CFFF73EFF281DFFF7B1FDFFF7FA
S214012E6038FF05F10800FFF7ABFD2A1D082100F029
S214012E7016F8FFF72FFF2846FFF7A2FD207880F00F
S214012E80010020704846BDE8F687B079C01C4110A5
S214012E9000EB917080107047B079011D321D4FF024
S214012EA0FF30FFF73BBD0849096800E08968002943
S214012EB01CBF0A888242F9D108467047F881E00FA4
S214012EC0D80400200C020020E004002010B50C46B7
S214012ED0FFF7E9FF10B940F2025010BD0C30206038
S214012EE0002010BD38B50446FFF7DDFF050002D10E
S214012EF040F2025032BDAA7805F10C0302212046A9
S214012F00FFF727FE0020A88032BD70B504460D46A7
S214012F10FFF7C9FF060000D113E02DB1B2782946AC
S214012F2006F10C00F4F75EF9B088F188401CB08019
S214012F3080B2884203D32046BDE87040D2E7002025
S214012F4070BD40F2025070BD80B5FCF7C7F8009026
S214012F5008B902F02FF9009802BDFCF717B9FEE791
S214012F600749086808B1002070470648C008C00035
S214012F7008600549C908C900091A0160704700BF01
S214012F8010150020A7150020A025002010B5044626
S214012F904FF48471F7F728F904F1F8000021016075
S214012FA04FF6FF71416081600021017304F1080052
S214012FB08160416004F11C0101602046002100F09F
S214012FC03EF92046BDE810400022002101E000F055
S214012FD036B9D0F8F8300022994204D0002914BF3F
S214012FE0024AC0F8F810104670470000015000F180
S214012FF07047FEE710B54A688B68CC6809680160BF
S21401300002600360046010BD10B5026803680468BE
S21401301000680A608C604B60C86010BD38B5044615
S2140130200D46FFF7E7FF05F110012046BDE83440E5
S214013030E0E738B504460D46FFF7E6FF05F1100157
S2140130402046BDE83440DFE738B500F013F8FFF757
S214013050F0FF6069C0F30340286231BD38B500F067
S21401306009F8FFF7DBFF95F8200000F00F00C4F821
S214013070480131BD04464FF480700D462044704728
S21401308000207047022801D300207047734901EBE6
S2140130900010704772490A688068104304E070495E
S2140130A00A68806822EA0000086000207047F8B5C8
S2140130B0056868680C4604F1B806606000F4406074
S2140130C029682160B0F5006F296BA16004F19407AF
S2140130D0696BE160E96C2161296D6161696DA161CE
S2140130E0A96DE161E96D2162296E616204F1280131
S2140130F018D100F044F88820A86004F14C0100F0D3
S2140131003EF89020A86004F1700100F038F898208D
S214013110A860394600F033F8A020A860314600F0D8
S2140131202EF819E04FF4807000F027F84FF4827003
S21401313004F14C0100F021F84FF4847004F17001A1
S21401314000F01BF84FF48670394600F016F84FF47D
S2140131508870314600F011F81422012104F11400A0
S21401316002F02CF840B1C0F1140104F11402511818
S214013170BDE8F440F4F784BCF1BD284459E728467D
S21401318062E7F8B50C4605686068686000F4406060
S21401319021682960B0F5006FA168296304F1B806BB
S2140131A0E168696304F194072169E9646169296545
S2140131B0A1696965E169A965216AE965616A2966A6
S2140131C01BD104F14C0100F038F88120A86004F10D
S2140131D0700100F032F88220A860394600F02DF820
S2140131E08320A860314600F028F88420A86004F106
S2140131F028012846BDE8F44030E74FF4807004F11A
S214013200280100F018F84FF4827004F14C0100F028
S21401321012F84FF4847004F1700100F00CF84FF4CA
S2140132208670394600F007F84FF488703146284416
S214013230BDE8F440F2E62844F0E628460EE709B178
S214013240084870470849096809B908487047091DC0
S214013250416002490160002070470000B45B000035
S214013260B0400E40011000F1BC0C0020021000F12D
S214013270890001EB401000F184400260704710B5F0
S2140132804A688B68CC680968016002600360046064
S21401329010BD10B502680368046800680A608C6097
S2140132A04B60C86010BD38B5102A04460D460ED1D5
S2140132B001220021FFF7DCFF4FF488700444294601
S2140132C02046FFF7DCFF05F11001204606E000224C
S2140132D00021FFF7CDFF294604F12400BDE8344064
S2140132E0CDE71FB5044611F0030008D0102268464A
S2140132F0F3F778FF69462046FFF7C1FF1FBD20465A
S214013300FFF7BDFF1FBD1FB50C4614F0030108D023
S2140133106946FFF7BEFF102269462046F3F762FFB3
S2140133201FBD2146FFF7B5FF1FBD04EBC50403947F
S21401333008240294099C0194089C009400F033F838
S21401334005B030BD30B585B0D0F8F850574CECE735
S21401335030B585B0D0F8F850544C00F001F8E8E7E5
S21401336004EBC50403941024704730B585B0099C5E
S214013370D0F8F850002C14BF4D4C4E4C04EBC5044D
S2140133800394082402940024D5E730B585B0099C3F
S214013390D0F8F850002C14BF454C464CFFF7E0FF20
S2140133A002940024C7E72DE9F04F054683B028684C
S2140133B0D0F80090D5F8F8608A4693469846281DBE
S2140133C000F0AEFD00284BD1281D00F00CFE0400D5
S2140133D040D10D9F01963A460F980E9B0C9900908E
S2140133E0284600F03FF8281D00F009FE040031D100
S2140133F046B953465A464146284600F05DF8040051
S21401340028D118E0281D00F0EEFD040022D128681E
S2140134100068C0F830804346002259462846FFF728
S214013420E7FD281D00F0EBFD040013D1284600F04F
S2140134306DF804000ED16FB1281D00F0D4FD040014
S21401344008D1394609F18400FFF75DFF281D00F019
S214013450D6FD0446281D00F09BFD04B9044620460F
S214013460BDE8FE8F70B50068049E05680F481446D7
S2140134701A46059B00EBC30086420CBF4FF4404042
S2140134800020286000202863686311B12846FFF7F2
S2140134900AFF24B1214605F18400FFF722FF3068B8
S2140134A028657068686570BD000000009C5B0000C0
S2140134B0A45B0000AC5B00002DE9F0410446904699
S2140134C0226817681D460E0902E0103508F110083B
S2140134D031464E1EC1B1201D00F085FD002813D1D6
S2140134E010203863414607F18000FFF7FAFE4FF4DB
S2140134F00070B860294607F18800FFF704FF201D19
S21401350000F07DFD0028E0D0BDE8F08138B5044626
S21401351020680568201D00F066FD58B94FF400705C
S214013520A860286910F0030FFBD1201DBDE83240CA
S21401353000F065BD32BDFEE7890001EB401000F1E9
S21401354084400260704710B54A688B68CC68096889
S214013550016002600360046010BD10B50268036874
S214013560046800680A608C604B60C86010BD38B59E
S214013570102A04460D460ED101220021FFF7DCFF7A
S2140135804FF48870044429462046FFF7DCFF05F116
S2140135901001204606E000220021FFF7CDFF294654
S2140135A004F12400BDE83440CDE7006900F00300D3
S2140135B0401E8041C00F70471FB5044611F003003E
S2140135C007D0102200F08DFA69462046FFF7BBFFB0
S2140135D01FBD2046FFF7B7FF1FBD1FB50C4614F0F1
S2140135E0030108D06946FFF7B8FF10226946204656
S2140135F0F3F7F8FD1FBD2146FFF7AFFF1FBDF0B57E
S21401360085B00E46154600F1800409E03146204695
S214013610FFF7D2FF31462046FFF7DFFF103D103699
S214013620A8B2A8B1ADB2102DF0DA00F030FA2A46F1
S214013630314600F056FA69462046FFF784FF694690
S2140136402046FFF78AFF2A4669463046F3F7CAFD49
S21401365005B0F0BD2DE9F84305468946286804689B
S214013660D5F8F80017461E4610B1DFF8380485E095
S214013670281D00F055FC0028F9D100F084F85FEA17
S214013680000874D100202060089919B104F12400C3
S214013690FFF759FF09980168D0F80320D0F80730E2
S2140136A0B0F80BC0090204F1840041F00101016089
S2140136B002600360C0F800C041F04901C4F8801000
S2140136C097FA87FEC4F88020C4F880304EEA0C01D1
S2140136D0C4F88010310441F480718160002181605A
S2140136E081608160276361630520A0605920A06026
S2140136F00520A0604620A0600A9E0B98B0B1DFF8B6
S214013700A8032065BAB2DFF8A40360654946DFF86E
S214013710A003A065DFF89C03E06501202066204633
S214013720FFF76DFFD4F8800030601AE0DFF88803F9
S2140137302065BAB2DFF8840360654946DFF8800386
S214013740A065DFF88003E065DFF87C03206620468D
S214013750FFF755FFD4F880003168884218BFDFF8BC
S214013760408300F00DF8B8F1000F08BF8046281D11
S21401377000F00EFCB8F1000F18BF4046BDE8F2831A
S214013780281D00F03CBC281D00F02DBC2DE9F04F93
S214013790054689B02868D0F80090174617F0070F3D
S2140137A00E46984607D1149C812C04DA200002D0DC
S2140137B01298102802D0DFF8E4020CE1281D00F070
S2140137C0AFFB0028F9D1FFF7DEFF5FEA000B40F000
S2140137D0FA80C9F80000C9F83000C9F8340009F1C8
S2140137E08400DFF8E812FFF7AEFEB8F1000F01D053
S2140137F000F0F4F800F0F6F8DFF8D402C9F850004B
S214013800DFF8D002C9F85400DFF8CC02C9F8580036
S214013810DFF8C802C9F85C004FF4C170C9F860004F
S2140138204846FFF7C2FE0028FAD007F07F00C0F135
S214013830800A5FFA8AFABAF1800F00D11FB905A98A
S21401384009F1800002E005A909F18800FFF785FE6D
S214013850FFF796FF5FEA000B79D1802F01A808D207
S214013860002156F8212040F82120491C0429F8D3CC
S2140138700BE000217A1ED20901EB820256F82220C3
S21401388040F82120491C0429F4D3BAF1800F40D016
S2140138904FEA9A010AEB5171C908BAEBC10204D189
S2140138A001AB4942194480222EE00DF1040CC1F10E
S2140138B0000EF444AAF101039CF810E0CDF800E0F4
S2140138C04FEAA30B03EB5B7B4FEAEB0B4FF0010ECA
S2140138D0A3EBCB030EFA03FE009BD7194EEA0303B4
S2140138E0AAEB0A028CF8103002EBC1015FFA81FAEA
S2140138F0BAF1000F18D04FEAAA020AEB5272D210A0
S21401390001A95242114400220A740837AAF108019B
S214013910ECE74FB901A9002200239446A1E88C10D8
S21401392080218DF8041080274FF0000A05AA50F870
S2140139302A1052F82A20514040F82A100AF1010AAA
S214013940BAF1040FF2D3FFF71EFF5FEA000B3AD17C
S214013950D9F8300040F01000B8F1000FC9F8300077
S21401396001D000F03BF800F03DF80520C9F8500002
S2140139708A4609F1A0084FF4007B08E006EB0A111D
S2140139804046FFF719FEC9F808B00AF1010AF8091E
S214013990401E8245F2D301A94046FFF7D4FDC9F87F
S2140139A008B04846FFF701FE0028FAD0139A159989
S2140139B02346284600F01DF88346FFF7E1FEBBF1DB
S2140139C0000F08BF8346281D00F0E2FABBF1000F86
S2140139D008BF8346584609B0BDE8F08F0822414625
S2140139E04846C4E504200021401EC9F88010FBD1DA
S2140139F07047F0B585B00068006815461C468030F3
S214013A000126E1B12946FFF7E8FD204602E0002243
S214013A106A540830802837DA811000EB5171C910DA
S214013A20B0EBC103F3D0C0F107046B5C04EBC10239
S214013A3006FA02F223EA02026A54401CEAE76946E1
S214013A40FFF78BFD002004E01DF802209A4216D1F4
S214013A500830A04218DA821000EB5272D210271AF0
S214013A60AB5C082FF0DAC0F1070707EBC2071DF8B9
S214013A70022006FA07F73A403B409A4202D0DFF8A6
S214013A80200002E0401CE4E7002005B0F0BD6846D7
S214013A9000210022002300278EC07047045000F149
S214013AA0025000F1015000F1F870455905460348EF
S214013AB0055163FB04480559F803480545705263F0
S214013AC04558520546FB0448055901001C5C000098
S214013AD0F50536F024FC31FE36833624FC31FE36FD
S214013AE039466846F3F77EBB0123036092084260BD
S214013AF08160704738B504461D46201DFFF7F4FF68
S214013B002DB1049A294604F11000FFF7EDFF069A3D
S214013B10059904F11C00FFF7E7FF0C9A0B9904F1D5
S214013B204C00FFF7E1FF089A079904F12800FFF718
S214013B30DBFF0A9A099904F13400FFF7D5FF01204B
S214013B40206460641C48A064201DFCF732FFA06559
S214013B5004F14C00FCF72DFFE065012020660020F3
S214013B6032BD30B589B004460D46FBF7AEFC032DD9
S214013B7025601BD10FF289001049606600232020C2
S214013B80089020220E480790202006900D480590A8
S214013B90202004900C480390202002900B480190AE
S214013BA0002000902046FFF7A5FF03E02046FBF724
S214013BB08CFC074809B030BD500000202C5C00008A
S214013BC0AC5C00008C5C00006C5C00004C5C00008F
S214013BD080B1FFFF0368CB1803608B4211788041E8
S214013BE001EBD0701070704710B5036814788B42E3
S214013BF09B41A4EBD37313700268511A016010BD88
S214013C0030B58FB0044600208DF804002421012031
S214013C1002900920039005A80490F6F7E5FA102112
S214013C202046FCF7D9FD050040F0F880A068016841
S214013C30009101AA016A00F0F7F800F001F900F01E
S214013C401DF900F016F900F023F900F00DF9A0684F
S214013C500099016001AA406800F033F902D500F02E
S214013C60E0F801E000F0E0F800F0EAF800F0E3F830
S214013C7000F0FFF800F00CF900F0F6F800F0EAF8B2
S214013C80A0680099416001AA806800F01AF902D57F
S214013C9000F0C7F801E000F0C7F800F0CCF800F03B
S214013CA0D4F800F0F5F800F0DFF800F0D3F8A068DB
S214013CB00099816001AAC06800F003F902D500F0FE
S214013CC0B0F801E000F0B0F800F0BFF800F0BDF881
S214013CD000F0E3F800F0E1F800F0EEF800F0BAF8D2
S214013CE000F0A4F800F0CFF8A0680099C16001AA1E
S214013CF0006900F0E6F802D500F093F801E000F064
S214013D0093F800F0CAF800F0C8F800F0D5F800F013
S214013D10D3F800F0CCF800F0B6F800F0A0F8A068F0
S214013D200099016101AA406900F0CBF802D500F0C4
S214013D3078F801E000F078F800F0BEF800F0BCF882
S214013D4000F0B5F800F0B3F800F0ACF800F087F832
S214013D5000F094F8A0680099416101AA806900F01A
S214013D60B0F802D500F05DF801E000F05DF800F073
S214013D709EF800F09CF800F095F800F093F800F03B
S214013D8096F800F099F800F051F800F07CF8A06879
S214013D900099816101AAC06900F093F802D500F08C
S214013DA040F801E000F040F800F07CF800F07AF806
S214013DB000F078F8A068016A01AA00F035F800F072
S214013DC04EF800F05BF800F054F800F061F8A068D7
S214013DD00099C16108219DF90420012AACBF134650
S214013DE0002303620023009302E0009B40F8213089
S214013DF0491C63689942F8D3002A0FD504980399A1
S214013E0000EB8100514240F8041C224602A92046DC
S214013E10FCF7C2FF10B94FF0FF30206028460FB004
S214013E2030BD49426846DFE66846D3E6A068016AC7
S214013E3001AA6846D8E6A068816A01AA6846C9E66A
S214013E40A068416A01AA6846C4E6A068C16A01AAD8
S214013E506846BFE6A068C16B01AA6846C4E6A068CA
S214013E60816A01AA6846BFE6A068816B01AA684616
S214013E70BAE6A068016B01AA6846B5E6A068C16A01
S214013E8001AA6846B0E6A068416A01AA6846ABE6A0
S214013E90A068416B01AA6846A6E6A068016B01AA64
S214013EA0684697E6A068C16B01AA684692E6A068D4
S214013EB0816B01AA68468DE6A068416B01AA684637
S214013EC088E69DF904100090002000298DF8040072
S214013ED07047FEE711F1010F04D101680029FCD0FB
S214013EE006E0491E02680AB90129FADA016819B121
S214013EF000210160002070474648704710B504460F
S214013F001C21F6F771F90120A06010BD0160704711
S214013F10C1607047016170474161704781617047B8
S214013F202DE9F04104463C4E25683068DFF8EC8008
S214013F30C0F30800002818BF0120E0603068C00503
S214013F4007D1A16805F10800FFF7C4FF314988428F
S214013F501BD06F6867B1F868E168884210D27C614F
S214013F60796828686A69904727616C60002005E0D7
S214013F702868E96888476C60002020616061804697
S214013F803068C00504BF0120A8604046BDE8F08146
S214013F9070B50646204D34682868C00505D14FF037
S214013FA0FF3104F10800FFF795FF306971690028B9
S214013FB008BF002904D160602169206888470BE0AA
S214013FC001B1086140B141616168B14204D16060EC
S214013FD041682068A26990472868C00504BF01208F
S214013FE0A060002070BD0C49096802460020C90582
S214013FF004D110684FF0FF3108306BE7704706496F
S2140140000968C90502D10068012181600020704756
S2140140100000000001F000F104ED00E001D000F125
S21401402042685209042941EA421209D9491F022964
S21401403008D9C91E032903D9091F022902D97047C5
S2140140404260704742F0100141607047890001EB01
S214014050401000F10850026070470122F6E7002286
S214014060F4E77848C068DC38704780B5FEF750FA48
S2140140707449C968081ADC3802BD10B5714C21684C
S214014080CA0607D521F01001216018B9A168CA69CE
S214014090022090470020A0602068810708D520F004
S2140140A0020020600021BDE810400020FEF732BA71
S2140140B010BD38B504460020206063686148051DC0
S2140140C000E00D46296871B14A68D21AF9D4216018
S2140140D080682968884206D1087E217E88423CBFD6
S2140140E00020FFF7CAFF2C6031BD38B50446554D98
S2140140F00846A968A14208BFFFF7BFFF281D00E0D8
S2140141000846016819B1A142FAD10968016031BDBA
S214014110F8B54C4C6568002D38D0FEF7F9F9AB6858
S2140141206E682F7D2A69F61A361AFF07114609D4DA
S214014130002E07D5EF68D21B961903D418186860AD
S214014140891A01E0002E17D4286801E0114600689C
S2140141506A685318B0B1426886689A1AB218012A7A
S21401416010DB8A4204D2EB688A1ADC339A42EDD21B
S2140141702A7E037E9A42EAD2EA69294603209047BC
S2140141800020F2BD03F1DC00E060A5600120F2BD75
S21401419010B52C4C28B102212046FFF75EFF022005
S2140141A006E002212046FFF75AFFA06818B1032057
S2140141B0BDE8104032E0BDE8104038B5214C20780B
S2140141C040072AD4A06840BB02212046FFF745FFDE
S2140141D0FFF79EFF0028FBD002212046FFF73FFF96
S2140141E0A5681DB9BDE83140FEF79DB9A86838B18C
S2140141F0206840F0100020602946EA6900209047B8
S214014200287D800709D4206840F002002060012044
S2140142106968BDE83440FEF77DB931BD0949896852
S21401422000291CBFCA691047704706488068704756
S2140142300448016821F0020141F0100101600120EB
S214014240ECE70000800F002080B501F058FB01F07C
S2140142508BFF00906846FEF7DDFA01BD2DE9F141BE
S21401426081B002F0CBF80446BDF8046000254FF695
S214014270FF7086425CD0C6F30806A642ACBF01209A
S2140142800020002102F07EFA02F0EEFCB0428041EE
S214014290C043C00F012102F075FA361BB6B206F113
S2140142A00C00FEF762FA074609E0C9B202F0BCFC50
S2140142B000984519ADB2009A414600F03CF8B54267
S2140142C011DA701B009005F10A086A464146384625
S2140142D0FEF775FA00990029E7D1701B80B202F04B
S2140142E0A7FC3546E7E70C2000906A4600213846D1
S2140142F0FEF765FA010002D000980C280AD20022C7
S21401430000F018F8DFF8FC0702680021204601F0EB
S214014310F7F907E00E812046019A01F0F1F90C2227
S21401432000F008F83846FEF79BFA3846FEF746FADC
S214014330BDE8F38100213846FEF756BA0020FEF7A5
S2140143408FBA80B502F092FCDFF8BC1709784907EE
S21401435002D5BDE80240F1E7BDE802407EE7DFF89E
S214014360AC17802008601020FEF7A5BA2020FEF7C3
S214014370A2BA4FF40060FEF79EBADFF82807DFF80E
S2140143804C2700684FF08071C001116054BF4FF494
S21401439080604020FEF78FBADFF800180968012810
S2140143A006D002280AD1C80508D54FF4807003E06C
S2140143B0880503D54FF40070FEF77DBA7047DFF825
S2140143C0E4160968002009060FD5DFF8DC06006848
S2140143D0800800F0010090F0010006D0DFF8CC075D
S2140143E0006800F0010080F00100704710B5044637
S2140143F014F01C0F0AD0FFF7E2FF38B1DFF8CC1635
S214014400802008601020DFF8C8160860DFF8A007D3
S2140144100068204205D02040BDE81040C0B2FEF73B
S2140144200EBA10BD4FF48050FEF745BA4FF4005057
S214014430FEF741BA0220FEF73EBA0420FEF73BBA69
S2140144400820FEF738BADFF878070068000E00F09B
S2140144500F00FEF75BBA3EB50446A00248BFFEF762
S21401446059FA200328D501F00FFD28B3DFF8A0166E
S214014470DFF8A03648680968402202FA01F11A6896
S214014480DFF840371B68491EC3F38113032B00F185
S214014490005089B292B28DF800300ED100239C18DC
S2140144A0083C0C400DEB0305045DAC705B1C082B4F
S2140144B0F5DB6846FEF730FA37BD022BFCD1931EBA
S2140144C00B40521EC35CADF802301140405C43EA1B
S2140144D00020ADF80200ECE748B1DFF8BC266FF02B
S2140144E0FF011160000ADFF8FC1600020860704741
S2140144F038B502F004FE0546A80205D5292002F0CB
S214014500ECFE4020FFF772FF6802DFF8944613D5F1
S21401451000F064F9272002F0E0FE01202060DFF8B9
S2140145208416086800F07F40B0F1007F1ED1DFF8E6
S21401453078160220086019E0E80206D500F04EF968
S214014540282002F0CAFE202011E0E80411D500F070
S21401455045F902F07EFDDFF89806006810F4A00F1A
S21401456007D12A2002F0B9FE012020600420FFF7BF
S2140145703DFF00F09EF80020206031BD704780208E
S214014580FEF75DB9DFF8801601200870FEF740B926
S21401459010B5DFF83406DFF83446C17801F0EF01D4
S2140145A000F01FF901F0D7FF208000F045FCDFF88E
S2140145B020160978002914BFDFF81816DFF8181638
S2140145C04FF400100860B4F90000DFF81046FEF75B
S2140145D0A0F92068FFF780FF002020600120DFF8A7
S2140145E08C16087010BD10B5044602F0BBFE61685B
S2140145F0884201D0012010BD00F04BFFDFF8E00536
S214014600DFF8C4451B21816060210160207840F0FD
S21401461007002070E07840F00100E07002F011FF22
S214014620C00703D5A07840F02000A070A07840F025
S2140146304000A070DFF8B00500F0ECFE206800F046
S21401464026FEDFF8A80502F0BAF9DFF8BC0400215F
S2140146500160002002F0D4F9FEF759F9002010BDE0
S214014660F021084201D001207047DFF834160A68AD
S214014670120900F00F0040EA0210CEE110B5002446
S2140146800021002203280CD8DFE800F003020C0FFB
S2140146900124204601F093F81CB100F00AF800202E
S2140146A0206010BD01240121F3E70124012101222C
S2140146B0EFE7DFF8F04520680EE780B502F0D2FCA0
S2140146C038BBDFF8E405006800F07060B0F1807F69
S2140146D018BFB0F1007F1AD0B0F1407F18BFB0F11B
S2140146E0806F14D0B0F1A06F18BFB0F1E06F0ED09C
S2140146F0B0F1006F18BFB0F1106F0AD0B0F1206FA3
S2140147001CBFB0F1306FB0F1406F02D003E0012062
S21401471002BD022002BD002002BDDFF8880300684A
S214014720C00900F0010080F00100704770B502F08A
S2140147308FFE0446032002F041FC10B902F092FC01
S21401474010B100F091F91AE0DFF874040568DFF89B
S2140147505403066800F088F915F0404F0FD1300673
S2140147600DD405F07060B0F1407F18BFB0F1C06F96
S21401477005D0B0F1106F18BFB0F1406F01D1002025
S21401478070BD012070BDF8B503240025002608B1D0
S2140147900568868802F05CFE074600F00BFA18BF33
S2140147A0072803D0092818BF0C2804D1DFF8F40223
S2140147B00068C0030DD4DFF8E8130120086000F09C
S2140147C07CFAB04205D332462946002002F03EF973
S2140147D00024384602F040FE2046F2BD042002F0D6
S2140147E036BBC170006800F052BD7CB50D4601F0C5
S2140147F063FC2A682B79111A012B10D182420CD343
S214014800084602F04BFC2E79044606B10126287BA9
S214014810022809D1002202230DE00021F0E7022B35
S214014820EED100240226F2E7A86802F037FC2B7BC3
S214014830024603B10123A87B00B101206D7B0190E4
S214014840691E8941C90F00912046314600F0BBFE22
S21401485076BD38B505462C7904B1012401F092FBEA
S2140148602A792968012A03D1814238BF002000D362
S214014870081A02F013FC2146BDE8344000F016BFCA
S21401488070B514461D46084600F0F2F900262000D1
S21401489007D02846A047060005D0002000F0E8F91A
S2140148A001E000F076FE304670BD012809D00BD33A
S2140148B0032803D008D24FF0C05006E04FF0005056
S2140148C003E04FF0605000E00020DFF8C0140A68F3
S2140148D022F06052104308604FF40010DFF8F41223
S2140148E0DFF8AC240860DFF8AC04016821F00601AB
S2140148F041F0040101604FF08051116004214161D3
S21401490000207047DFF89014062008600020DFF8CA
S2140149108C1408604FF08050DFF8841408604FF460
S2140149200011DFF8B40201604FF060510160002011
S2140149307047DFF870141B2008607047DFF86414B6
S21401494000200860704710B5DFF87C124A78040929
S214014950030B04F0010400F051F8430B02F0F702D8
S21401496003F0010342EAC30202F0DF02430842EA0F
S214014970431202F0BF02830842EA831202F07F026A
S214014980C30842EAC3120B784A7003F0F70343EAFE
S214014990C403440903F0EF0304F0010443EA0413DB
S2140149A0840A03F0DF0304F0010443EA44130B70A6
S2140149B010F4407403F0BF0318BF012443EA8413C4
S2140149C00B7002F0FD02C30A03F0010342EA430240
S2140149D04A7000F001034C4C227802F0F70242EADA
S2140149E0C3022270DFF8B421FFE71060086800F008
S2140149F04EFC206802F004F8002010BD02F0FB0215
S214014A0003F0010342EA83027047C00747BF022052
S214014A10DFF894130220DFF8941308600020704733
S214014A2070B50D0018BF01250229064603D100F016
S214014A301EF8002070BD02F00BFD04466248C178E6
S214014A4041F00801FFF7CDFEDFF8BC110020087029
S214014A50304602F023FB294601F00AFA054600F02B
S214014A6003F885F0010070BD204602F0F5BC80B564
S214014A7001F003FA5448C17801F0F701C170BDE8AE
S214014A800240006800F003BC012002F0C4BC10B56F
S214014A90444A1368012410309BB204FA00F018311E
S214014AA018430DE0884008400C50084010B53D4AB8
S214014AB0136801241B0C04FA00F0083140EA034095
S214014AC004FA01F108431060002010BD8840084434
S214014AD00040084401F0F4BD02F008BD38B502F00C
S214014AE00AFDDFF8DC520446286820B100F0EBF935
S214014AF02A6801219047204632BDDFF8C4120860BB
S214014B0070470000145B00007C0F0020680008401E
S214014B1030100840080F002180B503F081F8BDE889
S214014B20014003F017B880B502F0E0FFBDE8014090
S214014B3003F040B880B502F0D9FFBDE8014003F0AC
S214014B4061B8F8B504460D46164600F0BFF90128CF
S214014B501FD0FFF7EBFD1A4F18B1386810F0706FD1
S214014B60F7D1386810F0706F01D00220F2BDDFF87F
S214014B7050020268100002D00021204690471EB164
S214014B806968A86803F0D5F82888201AC0B200F032
S214014B9013FE0020F2BD000018700844700F0020BC
S214014BA028100840100F002100400846A450084075
S214014BB0380000203C480068C0F3036008287047AE
S214014BC0044008408C4008406C0F0020FE01002085
S214014BD0821500201860084618600844740F0020EB
S214014BE044000840187008461C5B00003C0000208A
S214014BF05C50084000280CBFDFF8CC01DFF8CC0180
S214014C004FF48071016070478115002070B5DFF8A0
S214014C10C041DFF8C0112578DFF8BC21ED074FF45D
S214014C20806303D505000CBF13600B602678B607BA
S214014C304FF4006503D506000CBF15600D6066785D
S214014C40F60703D506000CBF53604B6063789B07DD
S214014C5003D508B9556070BD4D6070BD002814BFFE
S214014C60534854484FF48061016070478315002013
S214014C7010B50400DFF86401006882B008BF6C4616
S214014C8000906078FFF7C2FFA078FFF7E7FF4D4975
S214014C900868800644BF2078FFF7ACFF13BD00000C
S214014CA0700F0021780F00200440084080B500F006
S214014CB004F8BDE80240FDF72BBE002001F076BFE8
S214014CC00120FDF7BCBD80B5012001F07AFFBDE8EB
S214014CD00240FDF722BE0120FDF7EDBD38B50446C2
S214014CE0A078E178884201D0012032BD60780100C9
S214014CF002D1FFF707FE01E0FFF7D7FD384DA17897
S214014D00287819B900F0FE00287004E040F0010090
S214014D10287000F021F82878E17851B900F0FB00FE
S214014D20287060202049086040202849086000203B
S214014D300BE040F00400287060201C49086000F079
S214014D4017F82149402008600120FFF75EFE286819
S214014D5001F056FE002032BD1849042008600120EB
S214014D60204908604FF400501F49086004200AE0FB
S214014D7012491E4A4FF480600860012111604FF409
S214014D8000511B4A11600C490860704718600840C2
S214014D9094400846700008407000084484000840AB
S214014DA0944008444C000840440008464400084427
S214014DB01C6008461C600844EC100846EC100844C9
S214014DC0680F0020040F00218840084688400844E8
S214014DD06A150020A0000844A0000846185B0000E1
S214014DE07C0F002028100840241008445810084062
S214014DF05410084410B5044682B0A06800F00110B3
S214014E0002F0FCFA2046FFF7EEFB010007D1002076
S214014E100090684600F097F8010008BF002016BD14
S214014E2010B50446FFF749FC08B1022010BD204624
S214014E30BDE81040FFF714BC0021012010B50C4658
S214014E40FFF71CFC1CB1FFF738FC0028FBD110BD96
S214014E50FFF733BC1F4908607047F8B504461D4884
S214014E60006800281CBF0168002911D0406878B18D
S214014E7000220C2505FB02F68B5B9C4222BF8E1995
S214014E807688A6423CBF521C8242F3D3824201D3AB
S214014E900120F2BD05FB02F00F4F104E0D183868C9
S214014EA0A84204D13078A04203D10020F2BD0122ED
S214014EB000E0002229462046FFF743FE010004BF1A
S214014EC03D603470F2BD05480078704704480068BC
S214014ED070470000600F0020640F0020801500203E
S214014EE05C0F002038B504460D46022C18BF022D73
S214014EF001D1012032BDFFF7E0FB022805D029468B
S214014F002046BDE83440FFF7C2BD32BD70B50D4640
S214014F10022D0446164601D1012070BDFFF7CDFBD8
S214014F20012801D1022070BD29462046FFF7BEFDAB
S214014F30010005D13046FFF768FD010008BF0020DB
S214014F4070BDFFF720BCFFF7C9BE10B5044611B10E
S214014F50FFF7EFFC01E0FFF7F1FC2046BDE810404B
S214014F60FFF7F1BC38B504460D46FFF771FF08B1EF
S214014F70022032BD2046FFF770FF010005D1294609
S214014F802046BDE83440FFF730BC32BD38B501F0ED
S214014F90E3F93249324A0120087032490868496803
S214014FA01378840A03F0FE0304F00104234313700C
S214014FB0C00A03F0FD0300F00100547843EA400004
S214014FC08D0A107004F0FE0405F00105C90A2C4391
S214014FD004F0FD0001F00101547040EA41005070F8
S214014FE0002032BD10B50446FFF734FF2068416843
S214014FF0806802F09EFE02F082FE002814BF1A4866
S2140150001A4802F06DFF1548017829B10021017098
S2140150104FF4803002F0FFF920680088C0B210BD5E
S21401502080B502F00EF8BDE80440002102F021B878
S21401503001F084B810B50446208801F035F82080C8
S214015040608801F01CF86080A08800F093FFA080C3
S214015050E08800F0C9FFE080002010BD8515002023
S2140150606A150020A0000840C0CF6A00E06735003E
S21401507002F0A0BF80B503F042F81E490120087077
S2140150800320BDE80240FFF7CBBE80B500F00BF869
S21401509010B1FFF712FB08B1002002BDBDE80240C7
S2140150A0012003F017B813480078704770B50C4616
S2140150B01049097815461E4609B9002070BD90FAB8
S2140150C0A0F0000AFFF706FDE0074CBF5520AA2016
S2140150D0214603F028F826B9012245F04001442074
S2140150E002E000220021002003F02AF8012070BD12
S2140150F000000000841500200148006880B2704757
S214015100585008400A220249504308440A3870475A
S214015110905B000013460A460021F8B504460D468A
S21401512016461F46FFF7F9FA08B90220F2BD2046D7
S214015130FFF793FE010008D13B463246294620463A
S21401514001B0BDE8F040FFF79BBBF2BD10B5FFF71D
S21401515084FE040005D101210120FFF76FFEFFF751
S214015160E2FC204610BD80B511E010B5012901D042
S214015170012010BDFFF771FE040005D101210120B9
S214015180FFF75CFEFFF7D6FC204610BD80B5FFF7A3
S214015190C3FC002002BDFFF7A1BCFEE7044841F6B0
S2140151A07131816301684908490001607047000058
S2140151B008000E40012003F043B8FEE7C9B283079A
S2140151C006D0521E22D310F8013B9942F7D11FE0B8
S2140151D0083A13D302F1040241EA012141EA0141EE
S2140151E050F8043B121F21BF4B40A3F1013C2CEAAF
S2140151F0030C1CF0803FF3D0C9B2001F083210F830
S214015200013B521E28BF91EA030FF8D818BF0120B0
S214015210401E7047012100F01F029140DFF8DC2B91
S214015220400942F82010704710B50446FFF7F2FF18
S214015230012004F01F018840DFF8C41B09E010B507
S2140152400446FFF7E7FF012004F01F018840DFF85E
